:100000000C9495010C94BD010C94BD010C94BD01A0
:100010000C94BD010C94BD010C94BD010C94BD0168
:100020000C94BD010C94BD010C94BD010C94C22430
:100030000C94BD010C94BD010C94BD010C94BD0148
:100040000C9412240C94BD010C9482240C945C2416
:100050000C94BD010C94BD010C94BD010C94BD0128
:100060000C947E250C94BD016E2F61004F4B004F08
:100070004B004F4B00427574746F6E20646F657354
:10008000206E6F742066697420696E204D656D6FF7
:100090007279004F757470757420646F6573206E8B
:1000A0006F742066697420696E204D656D6F72797A
:1000B00000375365676D656E7420646F6573206EDD
:1000C0006F742066697420696E204D656D6F72795A
:1000D0002100536572766F20646F6573206E6F74B4
:1000E0002066697420696E204D656D6F72792100FC
:1000F0004C434420646F6573206E6F74206669748E
:1001000020696E204D656D6F72792100416E616CC2
:100110006F67496E20646F6573206E6F7420666927
:100120007420696E204D656D6F7279004F75747023
:1001300075745368696674657220646F6573206EA8
:100140006F742066697420696E204D656D6F7279D9
:1001500000496E7075745368696674657220646FC7
:100160006573206E6F742066697420696E204D651A
:100170006D6F727900446967496E4D757820646FC0
:100180006573206E6F742066697420696E204D65FA
:100190006D6F7279004661696C757265206F6E20B3
:1001A00072656164696E6720636F6E666967004D92
:1001B0006F6269466C69676874204E616E6F0045B6
:1001C0006E636F6465727320646F6573206E6F7405
:1001D0002066697420696E204D656D6F7279007EAE
:1001E000306D79335B5F707F7B771F0D3D4F47002C
:1001F00000000000000000000000000000000000FF
:100200000000000000000000000000800180257E4A
:10021000306D79335B5F707F7B0000000900000068
:10022000777F4E7E4F475F37307C000E00767E67CB
:100230007E775B463E000000336D4E137800080069
:100240007D1F0D3D4F477B373038000600151D6779
:1002500073055B0F1C000000276D4E007800004DF9
:10026000465374657070657220646F6573206E6F9D
:10027000742066697420696E204D656D6F72790017
:100280005374657070657220646F6573206E6F744F
:100290002066697420696E204D656D6F727921004A
:1002A000446576696365427566666572204F76655A
:1002B00072666C6F7721004C6F6164696E672063B2
:1002C0006F6E666967206661696C65640000000096
:1002D0000800020100000304070000000000000005
:1002E0000000000000240027002A00000000002574
:1002F0000028002B00000000002300260029000435
:1003000004040404040404020202020202030303BC
:1003100003030301020408102040800102040810B6
:1003200020010204081020009D2611241FBECFEFDB
:10033000D8E0DEBFCDBF12E0A0E0B1E0E8E3F5E633
:1003400002C005900D92A230B107D9F727E0A2E0D4
:10035000B2E001C01D92A73FB207E1F711E0C5E985
:10036000D1E004C02197FE010E94702EC439D1074C
:10037000C9F70E9450270C949A320C940000AC01EB
:100380001092DC069091AC078091AB07FA01BF0197
:10039000641B750B2091DC0630813093DC069313CF
:1003A00004C0921302C01092DC063081311104C0E7
:1003B000921721F0CB0108953817D1F33196E7CF8A
:1003C0000F931F93CF93DF938091A007882309F4A5
:1003D00046C0D0E0C0E0813029F482E08093A007DD
:1003E000C0EED6E08091A107882341F1209721F447
:1003F000C091A507D091A6078E01CE010E94BF0132
:10040000892B29F42196F80180818111F5CFF8011B
:100410008081882309F1C8010E94BF01F801E80F1B
:10042000F91F8081882311F010823196F093A6077E
:10043000E093A5071093A4070093A3078091A30757
:100440009091A407892B59F081E08093A107DF9157
:10045000CF911F910F91089510E000E0EBCF80E065
:10046000F6CF0E94E001882351F081E08093A1073C
:100470008093A2078091A3079091A40708951092FA
:10048000A20790E080E0089590E0FC01ED5EFC4F53
:100490002491FC01E150FD4FE491EE2371F0F0E076
:1004A000EE0FFF1FEB50FD4FA591B491EC91E223AD
:1004B00081E090E021F480E0089580E090E00895EC
:1004C00090E0FC01ED5EFC4F2491FC01E150FD4FFA
:1004D000E491EE2389F0F0E0EE0FFF1FE551FD4FB0
:1004E000A591B4918FB7F894611107C09C91E22F48
:1004F000E095E923EC938FBF0895EC91E22BFACFBE
:10050000CF93DF9390E0FC01ED5EFC4F249181508E
:100510009D4FFC0184918823C9F090E0880F991FBA
:10052000FC01EF51FD4FA591B491FC01E551FD4F48
:10053000C591D49161110DC09FB7F8948C9120950D
:1005400082238C938881282328839FBFDF91CF91BA
:100550000895623051F49FB7F8943C91822F8095B2
:1005600083238C93E8812E2BEFCF8FB7F894EC91F7
:100570002E2B2C938FBFEACF1F93CF93DF93182F8F
:10058000EB0161E00E948002209739F460E0812F46
:10059000DF91CF911F910C946002CF3FD10511F4F0
:1005A00061E0F5CFE12FF0E0E353FD4FE491E3305C
:1005B00031F140F4E130B1F0E230E1F0C038D10582
:1005C0007CF7E4CFE73029F1E83059F1E430B1F7B6
:1005D00080918000806280938000D0938B00C093D4
:1005E0008A0004C084B5806884BDC7BDDF91CF9107
:1005F0001F91089584B5806284BDC8BDF7CF8091F6
:100600008000806880938000D0938900C093880028
:10061000EDCF8091B00080688093B000C093B300AC
:10062000E5CF8091B00080628093B000C093B400A9
:10063000DDCF3FB7F89480918A0490918B04A0910C
:100640008C04B0918D0426B5A89B05C02F3F19F0EE
:100650000196A11DB11D3FBFBA2FA92F982F882742
:10066000BC01CD01620F711D811D911D42E0660F1D
:10067000771F881F991F4A95D1F708952FB7F894CF
:100680006091860470918704809188049091890418
:100690002FBF0895DC01ED91FC910190F081E02DD8
:1006A0000994EF92FF920F931F93CF93DF938C01E6
:1006B0007B01D0E0C0E0F701EC0FFD1F64916623E1
:1006C00061F0D801ED91FC910190F081E02DC8011D
:1006D0000995892B11F02196EECFCE01DF91CF91B4
:1006E0001F910F91FF90EF900895AF92BF92CF921C
:1006F000DF92EF92FF920F931F93CF93DF936C01E2
:100700007B018B01040F151FEB015E01AE18BF08C2
:10071000C017D10759F06991D601ED91FC91019074
:10072000F081E02DC6010995892B79F7C501DF918C
:10073000CF911F910F91FF90EF90DF90CF90BF90DE
:10074000AF900895FC01538D448D252F30E0842F08
:1007500090E0821B930B541710F0CF9608950197E9
:100760000895FC01918D828D981779F0A28DAE0FBE
:10077000BF2FB11D5D962C91828D8F5F60E60E9428
:10078000502E928F822F90E008958FEF9FEF089563
:10079000FC01918D828D981731F0828DE80FF11D4B
:1007A000858D90E008958FEF9FEF0895FC01918D66
:1007B000228D892F90E0805A9F4F821B910960E61D
:1007C00070E00E945C2E08958AE196E00E94D603B4
:1007D00021E0892B09F420E0822F089580E090E049
:1007E000892B29F00E94E40381110C9400000895E4
:1007F000FC01A48DA80FB92FB11DA358BF4F2C9198
:10080000848D90E001968F739927848FA689B7898C
:100810002C93A089B1898C91837080648C93938D83
:10082000848D981306C00288F389E02D80818F7D26
:1008300080830895EF92FF920F931F93CF93DF93DE
:10084000EC0181E0888F9B8D8C8D98131AC0E8890C
:10085000F989808185FF15C09FB7F894EE89FF89DB
:100860006083E889F98980818370806480839FBF79
:1008700081E090E0DF91CF911F910F91FF90EF9079
:100880000895F62E0B8D10E00F5F1F4F0F73112789
:10089000E02E8C8D8E110CC00FB607FCFACFE889C4
:1008A000F989808185FFF5CFCE010E94F803F1CF51
:1008B000EB8DEC0FFD2FF11DE358FF4FF0829FB73A
:1008C000F8940B8FEA89FB8980818062CFCFCF9328
:1008D000DF93EC01888D8823B9F0AA89BB89E88968
:1008E000F9898C9185FD03C0808186FD0DC00FB60E
:1008F00007FCF7CF8C9185FFF2CF808185FFEDCF8C
:10090000CE010E94F803E9CFDF91CF9108950895B9
:100910002091EC03260F3327331F21323105ECF4ED
:100920002091B404FC0190E080E0243069F082E082
:100930000895A091EC032191AC0146535C4FA40FA4
:10094000B52FB11D2C930196861798F38091EC0377
:10095000680F6093EC0380E0089581E008951092A1
:10096000B40481E08093B30410928E0461E082E1CC
:100970000E94600261E083E10E946002E9EBF0E026
:1009800080818E7F808380818D7F808388E48093C7
:10099000B80085E48093BC000895CF93DF9391E085
:1009A0009093C9038823B9F0C091B800D091BA00E0
:1009B0008091BC008A7B8093BC0060E082E10E9451
:1009C000600260E083E10E9460020E94AF04D09365
:1009D000BA00C093B800DF91CF9108958F929F9293
:1009E000AF92BF92CF92DF92EF92FF920F931F933D
:1009F000CF93DF93D091DD04D13208F0D7C0182F08
:100A0000C091DC040E9419036B017C018091B40445
:100A100081116BC082E08093B4041093B3048FEF14
:100A20008093B2041092B104D093B004ACEBB4E064
:100A3000E0E9F4E080E0D81391C010928F04809137
:100A40008F04CC0FC82BC0938F0480918E0481300B
:100A500009F088C010928E040E9419036B017C017A
:100A600080918F048093BB008091B6049091B7046D
:100A7000A091B804B091B904892B8A2B8B2BA1F0DB
:100A80000E9419030091B6041091B7042091B80494
:100A90003091B9046C197D098E099F090617170753
:100AA0002807390708F442C08091BC0083FDD8CFE5
:100AB00085EC8093BC000E9419036B017C0180913E
:100AC000B404823009F450C08091B2048F3F09F41D
:100AD0006FC08091B204803209F46CC08091B2047E
:100AE000803309F469C084E026C08091B6049091F7
:100AF000B704A091B804B091B904892B8A2B8B2B31
:100B000009F484CF0E9419038090B6049090B70432
:100B1000A090B804B090B9046C197D098E099F09A2
:100B200086169706A806B90608F070CF8091B5041E
:100B30000E94CD0485E01092BB041092DD04109257
:100B4000BA04DF91CF911F910F91FF90EF90DF904A
:100B5000CF90BF90AF909F908F9008959D9191936B
:100B60008F5F69CF85EEA5CF8091B6049091B704D1
:100B7000A091B804B091B904892B8A2B8B2B09F46E
:100B80009ECF0E9419030091B6041091B7042091E2
:100B9000B8043091B9046C197D098E099F090617B4
:100BA00017072807390708F08ACFC0CF81E0C3CFE5
:100BB00080E0C1CF82E0BFCF83E0BDCF81E00C9465
:100BC000EE04089508950895E091C8038091C70345
:100BD000E81730F4F0E0E955FC4F808190E008958B
:100BE0008FEF9FEF08959091C8038091C7032FEF77
:100BF0003FEF981748F4E92FF0E0E955FC4F2081CA
:100C000030E09F5F9093C803C90108958091C703A6
:100C10009091C803891B990B0895CF92DF92EF92B0
:100C2000FF920F931F93CF93DF937C01CB018A0137
:100C30002091BA04222389F0EB016B01C40ED51E6A
:100C4000CC15DD0569F06991D701ED91FC9101901A
:100C5000F081E02DC7010995F3CF642F0E9488042D
:100C6000C801DF91CF911F910F91FF90EF90DF901E
:100C7000CF900895CF93DF931F92CDB7DEB76983EE
:100C80002091BA042223F9F02091DD04203258F09B
:100C900021E030E0FC013383228390E080E00F907C
:100CA000DF91CF9108958091BB04E82FF0E0E454E8
:100CB000FB4F998190838F5F8093BB048093DD0409
:100CC00081E090E0ECCF61E0CE0101960E948804C3
:100CD000F7CFCF93C82F682F646085E096E00E941D
:100CE0003A066C2F70E06B7F85E096E0CF910C9414
:100CF0003A060F931F93CF93DF938C01C62FD42F07
:100D0000FC01848191E09093BA048093DC041092FA
:100D1000BB041092DD04862F807F842B9585892B60
:100D20000E946906F0E1CF9FC0011124F80195856A
:100D3000892B8D2B0E946906DF91CF911F910F9116
:100D40000C94DE05CF93DF93CDB7DEB728970FB6AF
:100D5000F894DEBF0FBECDBF28E0EAE4F1E0DE018B
:100D6000119601900D922A95E1F7FC012385241735
:100D700010F44FEF420F50E0440F551F21E030E0D8
:100D80002C0F3D1F420F531FFA012081620F606834
:100D900040E028960FB6F894DEBF0FBECDBFDF91BE
:100DA000CF910C947906CF93DF93EC0140E061E0A2
:100DB0000E9479068BE39FE10197F1F789858823EB
:100DC00039F040E060E0CE01DF91CF910C94A206B3
:100DD000DF91CF91089541E00E94790681E090E093
:100DE0000895FC01248131E03093BA042093DC049F
:100DF0001092BB041092DD04607F8585862B0E94D3
:100E000069060C94DE05AF92BF92CF92DF92EF920B
:100E1000FF920F931F93CF93DF936C01FC018481AA
:100E200091E09093BA048093DC041092BB0410927A
:100E3000DD04EB01042F10E05B01A00EB11EF12CCC
:100E4000EE24E394CA15DB0541F18991F6019585FD
:100E50009160807F892B0E946906FE013197208175
:100E6000F0E12F0290011124F60185858160822B2B
:100E70000E946906F394F7E0FF1520F780E00E94D6
:100E8000EE04F6018481E092BA048093DC041092AF
:100E9000BB041092DD04F12CD5CF0E94DE05C80101
:100EA0000197DF91CF911F910F91FF90EF90DF900D
:100EB000CF90BF90AF90089590E080E00895CF93D9
:100EC000DF93FC012381222359F1EC0161E084814D
:100ED0000E94800261E08D810E9480028B818430BB
:100EE00011F08830B1F461E08E810E94800261E0EF
:100EF0008F810E9480028FA58F3F91F061E00E9458
:100F000080026EA581E068278FA5DF91CF910C94B8
:100F10006002833011F0863071F761E08E81E9CF95
:100F2000DF91CF910895CF93DF93FC01238122239A
:100F3000A9F0EC010190F081E02D0480F581E02D15
:100F400060E009958FA58F3F49F061E00E94800223
:100F50006EA58FA5DF91CF910C946002DF91CF91A8
:100F60000895DC01ED91FC9124813581477055276E
:100F700066277727415051096109710947305105AA
:100F80006105710560F4FA01E853F84F0C94702E76
:100F9000D207D407D607D807DA07DC07DE0761E0F7
:100FA000F901099465E0FCCF64E0FACF66E0F8CF80
:100FB00062E0F6CF6AE0F4CF68E0F2CF69E0F0CF0C
:100FC000CF93DF93EC01CB01BA0126E030E040E0A3
:100FD00050E00E94A62D623071058105910589F1CE
:100FE0006CF46115710581059105D1F061307105D1
:100FF00081059105F9F0DF91CF9108956430710575
:101000008105910561F124F1653071058105910536
:1010100091F7E881F9810480F581E02D66E006C052
:10102000E881F9810480F581E02D64E0CE01DF9153
:10103000CF910994E881F9810480F581E02D65E084
:10104000F5CFE881F9810480F581E02D61E0EECFF4
:10105000E881F9810480F581E02D63E0E7CFE88144
:10106000F9810480F581E02D62E0E0CFDC01ED91B3
:10107000FC910480F581E02D437055276627772782
:10108000423051056105710571F04330510561052C
:10109000710559F0413051056105710511F065E0A8
:1010A000099466E0FDCF6AE0FBCF69E0F9CFCF930A
:1010B000DF93EC01CB01BA0123E030E040E050E0E7
:1010C0000E94A62D613071058105910599F062306D
:1010D000710581059105A9F0672B682B692BC1F477
:1010E000E881F9810480F581E02D64E0CE01DF9193
:1010F000CF910994E881F9810480F581E02D61E0C8
:10110000F5CFE881F9810480F581E02D62E0EECF32
:10111000DF91CF910895DC01ED91FC910480F58180
:10112000E02D43705527662777274230510561052A
:10113000710571F0433051056105710559F0413079
:1011400051056105710511F062E0099463E0FDCF7E
:1011500061E0FBCF60E0F9CFCF93DF93EC01E88152
:10116000F9810480F581E02D8A8160E0811162E0DF
:10117000CE010995E881F9810480F581E02D8A810D
:1011800061E0811163E0CE0109958CA59DA58230B7
:10119000910538F0880F991F880F991F05970197BF
:1011A000F1F7E881F9810480F581E02D8A8160E022
:1011B000811162E0CE01DF91CF910994CF93DF934B
:1011C000EC0120E030E0A9016C897D898E899F893E
:1011D0000E948B2F18162CF4E8A9F9A9DF91CF9162
:1011E0000994EAA9FBA9FACFCF92DF92EF92FF927E
:1011F0000F931F93CF93DF93DC011396CC91C430F0
:1012000039F0C83059F1C33019F0C63049F1C2E0A5
:101210008C010C5F1F4FF12CE12CC62ED12CD1E09C
:10122000F8016481C6010E2C02C0959587950A9439
:10123000E2F780FD6D270F5F1F4F80810E946002E3
:10124000BFEFEB1AFB0AEC1658F3DF91CF911F9119
:101250000F91FF90EF90DF90CF900895C4E0D8CF2A
:10126000C3E0D6CFDC011396EC911397E93008F078
:1012700038C0F0E0E25CF64F0C94702E47094D093F
:10128000530959095F097109650971096B09ED91E4
:10129000FC910084F185E02D0994ED91FC9102848C
:1012A000F385E02DF9CFED91FC910484F585E02DD7
:1012B000F3CFED91FC910684F785E02DEDCFED9114
:1012C000FC910088F189E02DE7CFED91FC91028837
:1012D000F389E02DE1CFED91FC910488F589E02DB3
:1012E000DBCF08954F925F926F927F928F929F9281
:1012F000AF92BF92CF92DF92EF92FF920F931F9324
:10130000CF93DF93EC01C888D988EA88FB888C8565
:101310009D85AE85BF85C81AD90AEA0AFB0A6C8981
:101320007D898E899F899B01AC010E94D22C4B0143
:101330005C016C8D7D8D8E8D9F8D9B01AC010E941B
:10134000772E9B01AC01C501B4010E94E32E0E94DF
:10135000552FC114D104E104F10409F0B1C0623089
:101360007105810591050CF0CBC01CA21DA21EA227
:101370001FA21C8A1D8A1E8A1F8A1CAA1DAA1EAAB9
:101380001FAADF91CF911F910F91FF90EF90DF90F7
:10139000CF90BF90AF909F908F907F906F905F9015
:1013A0004F9008951016110612061306B4F46C152A
:1013B0007D058E059F051CF42A812111A1C09B018A
:1013C000AC0188279927DC01821B930BA40BB50B7A
:1013D0008CAB9DABAEABBFAB93C001151105210526
:1013E000310509F48DC06C157D058E059F050CF047
:1013F00087C08A81882309F483C030952095109591
:1014000001951F4F2F4F3F4F0CAB1DAB2EAB3FAB8A
:1014100077C0011511052105310509F471C0882433
:10142000992454018C189D08AE08BF0868157905E9
:101430008A059B050CF064C08A81811161C0DDCFF3
:10144000CCACDDACEEACFFACA7019601C701B60198
:101450000E94772E2B013C01C501B4010E94732C20
:1014600020E030E040E850E40E94D22C20E030E060
:1014700040E85FE30E94772E9B01AC01C301B201FB
:101480000E94E32E9B01AC01C701B6010E94762E9B
:101490003B016C01FE01E05CFF4FE080F1800281C6
:1014A00013819701A8010E948B2F181614F4730161
:1014B0008601C701D8018CAF9DAFAEAFBFAF3AC0B8
:1014C0000CA91DA92EA93FA91C141D041E041F044C
:1014D0000CF468CF10161106120613060CF099CF03
:1014E0000027112798010C191D092E093F096017C3
:1014F0007107820793070CF062CF2A8121115FCF19
:101500008CA89DA8AEA8BFA881149104A104B10421
:1015100009F096CF88AD99ADAAADBBAD8CAF9DAFAC
:10152000AEAFBFAF81E01C141D041E041F040CF0FD
:1015300080E08A833FEF831A930AA30AB30A8CAA36
:101540009DAAAEAABFAACCACDDACEEACFFACC70185
:10155000B6010E945C2F6CA37DA38EA39FA3A7015D
:10156000960160E074E284E799E40E94E32E6C8BBC
:101570007D8B8E8B9F8B2A81211103CF90586C8B92
:101580007D8B8E8B9F8BFDCE8F929F92AF92BF9261
:10159000EF92FF920F931F93CF937C018B01C42F87
:1015A0000E943E03F80180809180A280B380DC011C
:1015B000CB0188199909AA09BB094C2F50E070E0AA
:1015C00060E084179507A607B70748F0F70109956B
:1015D0000E943E03F8016083718382839383CF91DD
:1015E0001F910F91FF90EF90BF90AF909F908F90C1
:1015F00008952091A5033091A603280F311D81E0A5
:101600002D32314008F080E00895FC018481882368
:10161000E1F08181811119C081E081838281938110
:10162000FC014089518962897389403659476E4F60
:101630007F4F59F040E659E76EEF7FEFFC01408B9A
:10164000518B628B738B0C94720908954F925F9249
:101650006F927F928F929F92AF92BF92DF92EF92A2
:10166000FF920F931F93CF93DF93D12C08E810E0E4
:10167000B8E5EB2EB2E0FB2EC4EB4C2E512C612CC6
:10168000712C80917802D81608F096C0ED2DF0E00C
:10169000EE0FFF1FEC58FD4FC081D18189899A89D7
:1016A000AB89BC894D855E856F85788984179507E0
:1016B000A607B70709F47AC0481759076A077B07D6
:1016C0000CF076C00197A109B109898B9A8BAB8B7D
:1016D000BC8BA989BA89A03282E0B807ACF52B850A
:1016E0004801821A910827FD9394880C991C880C54
:1016F000991C092C000CAA08BB082C85C701821B69
:10170000910927FD93959C01220F331F220F331F50
:10171000032E000C440B550B281939094A095B09A3
:10172000A53BB10514F0A4EBB0E0B7FF02C0B0E0F8
:10173000A0E00E94D02DA30192010E94A62D820E4E
:10174000931EA41EB51ED401EA85EC3078F52B85D6
:10175000C801821B910927FD93959C01220F331F1D
:10176000220F331FA217B3077CF02C85C701821B01
:10177000910927FD93959C01220F331F220F331FE0
:10178000A217B3070CF49D0122503109220F331F19
:101790004FB7F8948E2F90E0FC01EE0FFF1FE80F7B
:1017A000F91FEF5EFB4F328321834FBFD39469CF84
:1017B0000196A11DB11D89CFDF91CF911F910F918E
:1017C000FF90EF90DF90BF90AF909F908F907F90B1
:1017D0006F905F904F9008958BE891E00197F1F73B
:1017E0000895EF92FF920F931F93CF93DF93EC0135
:1017F000162FE42EFF24F394442311F080E8F82EF2
:1018000008E061E089810E9480020E94EC0B61E0A7
:101810008F2D812309F060E088810E9480020E9460
:10182000EC0B60E089810E9480020E94EC0BEE20AC
:1018300081F1110F015029F761E089810E94800236
:1018400060E088810E9480020E94EC0B60E0898148
:101850000E9480020E94EC0B88810E944402182F93
:10186000811104C061E088810E9480020E94EC0B1B
:1018700061E089810E9480020E94EC0B81E01111DD
:1018800001C080E0DF91CF911F910F91FF90EF9009
:1018900008951695CFCFCF93DF93EC0161E0888157
:1018A0000E9480020E94EC0B60E089810E9480020D
:1018B0000E94EC0B60E088810E948002DF91CF9152
:1018C0000C94EC0B61E0FC0180810E9480020C947E
:1018D000EC0BAF92BF92CF92DF92EF92FF920F93F9
:1018E0001F93CF93DF93EC01162F042FAB880E9438
:1018F000620C40E060E4CE010E94F10BCE010E9438
:101900004B0C10958B89180FC02ED12CE12EF12C89
:1019100084E0B12EA81631F0F601EE0DFF1DE6575A
:10192000FE4FB080CE010E94620C60EC6B0D40E077
:10193000CE010E94F10B8B89CE0CDF1C8C151D048F
:1019400014F4082F011B10E0DD24DA94D00EEC0E05
:10195000FD1E011781F084E0ED2DE11BA81201C0EE
:10196000E12FEE0DFF2DF11D41E06381CE010E94BC
:10197000F10B1F5FEECFCE01DF91CF911F910F9141
:10198000FF90EF90DF90CF90BF90AF900C944B0CF6
:10199000EF92FF921F93CF93DF93EC01162F8C8170
:1019A00080FF10C0603170F46D837E0184E0E80E2A
:1019B000F11C612F617089910E9460021695EC16EE
:1019C000FD06B9F7DF91CF911F91FF90EF90089539
:1019D000DC01842FE0916302F0916402309719F0EA
:1019E0004D915C91099408954F925F926F927F920E
:1019F0008F929F92AF92BF92CF92DF92FF920F93FE
:101A00001F93CF93DF93F12C80915D02F81608F0BD
:101A1000EEC0EF2DF0E0EE0FFF1FE55BFD4FC08144
:101A2000D1818A81882309F4B3C088810E9444024D
:101A30008C0189810E9444026C010E943E034B018B
:101A40005C0181E090E0CD2811F090E080E0880F0B
:101A5000991F21E0012B09F020E0922F982B4B8D4C
:101A60005C8D6D8D7E8D95018401041B150B260BFD
:101A7000370BB901A801453651056105710508F418
:101A800089C08885823008F485C08B8E9C8EAD8E8F
:101A9000BE8E81508887EE859E1709F445C08885E3
:101AA00003E310E0873010F401E010E06D8524E0DE
:101AB000E202F0011124492F092E000C550BE42BF2
:101AC000F52BE558FE4F708170039001719F300D2A
:101AD0001124062E02C0220F331F0A94E2F7EF856D
:101AE000F8892E0F3F1F388B2F874C0F5D1FFA018F
:101AF00041854423C1F04B885C886D887E884F8A7D
:101B0000588E698E7A8E8B8A9C8AAD8ABE8A02C074
:101B1000359527956A95E2F73A8B298B8C3008F03A
:101B20008BE08F5F88879E8709891A898D819E81C6
:101B30000817190769F19801281B390BC901E091B1
:101B40004902F0914A026901CC0CDD1C309709F47E
:101B50004BC04B815C812F5C3F4F23363105E0F554
:101B600097FD30C0688180E00995C00ED11E31E438
:101B7000C3163FE1D30654F08F8598898370992767
:101B8000988B8F871A8A198A10E000E01E830D83D4
:101B9000F3943ACF4F89588D698D7A8D95018401E0
:101BA000041B150B260B370BB901A801453F51400B
:101BB0006105710508F46FCF8B8E9C8EAD8EBE8E45
:101BC000188669CF698182E00995C8018C199D0941
:101BD000803C904E8CF2DACF97FD03C0688181E0A3
:101BE000C3CF698183E0F0CF37FDEFCFBECFDF9168
:101BF000CF911F910F91FF90DF90CF90BF90AF904A
:101C00009F908F907F906F905F904F900895CF92AC
:101C1000DF92EF92FF920F931F93CF93DF936C01AC
:101C20007A018091470290914802892B31F1D601C7
:101C300013968C9100E181FD08E0EB01CE25DF25B4
:101C400010E0C0FF13C08091470290914802892B99
:101C500069F0E0914502F0914602309739F0D601E3
:101C60004D915C91612F8E2D81700995D695C79508
:101C7000F694E7941F5F0113E4CFDF91CF911F919A
:101C80000F91FF90EF90DF90CF900895AF92BF92A9
:101C9000CF92DF92EF92FF920F931F93CF93DF9338
:101CA0001F92CDB7DEB7C0904702D0904802C11452
:101CB000D10409F43FC0FC01238130E1B32E21FFA0
:101CC00002C028E0B22EA62E8C01F6018581868303
:101CD000F12CE12CBA946B2DC6010E94C80CF801BE
:101CE00082810E9444028983F80182810E94440219
:101CF0008983EE0CFF1C298181E090E0211102C054
:101D000090E080E0E82AF92AB110E4CFF60166817C
:101D1000C6010E94C80CF801648175816E157F05AB
:101D200049F0AA2021F0A701C8010E94070EF8017E
:101D3000F582E4820F90DF91CF911F910F91FF9078
:101D4000EF90DF90CF90BF90AF900895CF93C0E019
:101D500080914402C81768F4EC2FF0E0EE0FFF1FEB
:101D6000E25CFD4F61E0808191810E94460ECF5F71
:101D7000EFCFCF910895DC01E0913C02F0913D025C
:101D8000309761F013968C911397882339F04D9119
:101D90005C91119712966C9181E009940895DC0191
:101DA000E0913C02F0913D02309759F013968C91EE
:101DB0001397811106C04D915C91119712966C9109
:101DC000099408951F93CF93DF9310E080913B0215
:101DD0001817F0F4E12FF0E0EE0FFF1FE95EFD4F62
:101DE000C081D1818A810E9444029B81891751F070
:101DF00091E0811101C090E09B83811105C0CE016B
:101E00000E94CF0E1F5FE2CFCE010E94BB0EFACF21
:101E1000DF91CF911F910895FC01A08DB0E0139642
:101E2000AA0FBB1FA80FB91F868997892D913C91D6
:101E3000821B930B978B868B82818E3008F08E509D
:101E40008770806480937C0080917A0080648093A6
:101E50007A0080917A0086FDFCCF90917800809185
:101E60007900A08DB0E01396AA0FBB1FAE0FBF1F65
:101E70008927982789278D939C93A08DB0E013968E
:101E8000AA0FBB1FAE0FBF1F868997892D913C916A
:101E9000820F931F978B868B808D8F5F808F808DB5
:101EA0008770808F0895CF93C0E080911602C81785
:101EB00060F4EC2FF0E0EE0FFF1FEA5FFD4F808132
:101EC00091810E940C0FCF5FF0CFCF910895CF93F7
:101ED000C0E080911602C817B8F5EC2FF0E0EE0FC5
:101EE000FF1FEA5FFD4FA081B18156968D919C91B5
:101EF000579723E0969587952A95E1F713962D91AC
:101F00003C911497AC01421B530B9A0157FF03C03D
:101F100031952195310915964C9115974217130665
:101F200009F084F414969C938E931397E091040225
:101F3000F0910502309731F04D915C911197129616
:101F40006C910995CF5FC5CFCF9108950E943E0354
:101F500060935E0470935F048093600490936104C7
:101F60000895BF92CF92DF92EF92FF920F931F934B
:101F7000CF93DF93EC0160E088810E946002FB80D8
:101F80000F2D10E00C5F1F4F0C0F1D1FFF20E1F005
:101F9000F801D2908F01C980BA8088E0E82E6D2DBB
:101FA000661F6627661F8B2D0E946002DD0C61E0B4
:101FB0008C2D0E94600260E08C2D0E946002EA94E9
:101FC000E110EDCFFA94E2CF61E08881DF91CF910B
:101FD0001F910F91FF90EF90DF90CF90BF900C94E6
:101FE00060029F92AF92BF92CF92DF92EF92FF92E8
:101FF0000F931F93CF93DF93EC01C62E61E08B818B
:102000000E94600261E08A810E94600210E08D817E
:10201000181708F03FC0DB80BC8087E0E82EF12C69
:1020200000E061E08D2D0E9460028B2D0E94440231
:102030000E2C01C0880F0A94EAF7082B60E08D2D62
:102040000E94600281E0E81AF10858F75E01A10ED3
:10205000B11CF501D780D016D9F0CC20B9F0912E63
:10206000990C990C990CE02EF12C8D2D8E2580FF6A
:1020700007C04E2D4170692D6F0DCE010E94E80CF6
:10208000D694E694F394F8E0FF12EFCFF5010783BE
:102090001F5FBDCF60E08A81DF91CF911F910F91CB
:1020A000FF90EF90DF90CF90BF90AF909F900C94F7
:1020B0006002CF93C0E080916202C81768F4EC2FF1
:1020C000F0E0EE0FFF1FE25AFD4F61E08081918149
:1020D0000E94F10FCF5FEFCFCF9108957F928F9243
:1020E0009F92AF92BF92CF92DF92EF92FF920F93A7
:1020F0001F93CF93DF93C0E080913B02C81760F439
:10210000EC2FF0E0EE0FFF1FE95EFD4F8081918123
:102110000E94BB0ECF5FF0CFC0E080913B02C8179A
:1021200060F4EC2FF0E0EE0FFF1FE95EFD4F8081C1
:1021300091810E94CF0ECF5FF0CF10E080916202BC
:10214000181708F057C0E12FF0E0EE0FFF1FE25A1A
:10215000FD4FC081D18160E0CE010E94F10F6E0180
:1021600087E0C80ED11C4601712CF12CE12C8D8129
:102170008E151F04D9F0D4F0F40181914F0100E0D5
:10218000A82EB12C80FF06C041E0672D600FCE0164
:102190000E94E80CB594A7948A2D0F5F083081F750
:1021A000FFEFEF1AFF0A88E0780EE1CFF12C912CB7
:1021B000812C8D8188151904D9F0D4F0F601819114
:1021C0006F0100E0A82EB12C80FD06C040E06F2D0D
:1021D000600FCE010E94E80CB594A7948A2D0F5F82
:1021E000083081F7FFEF8F1A9F0A88E0F80EE1CFE1
:1021F0001F5FA4CF0E94A60F10E080914402181721
:10220000E0F4E12FF0E0EE0FFF1FE25CFD4FC08134
:10221000D18160E0CE010E94460E4C815D8170E06C
:1022200060E0CE010E94070E4C815D816FEF7FEF71
:10223000CE010E94070E1F5FE0CFC0E08091160222
:10224000C81718F5EC2FF0E0EE0FFF1FEA5FFD4F07
:10225000A081B18156968D919C91579723E09695D8
:1022600087952A95E1F714969C938E931397E091A6
:102270000402F0910502309731F04D915C91119775
:1022800012966C910995CF5FD9CFDF91CF911F91B5
:102290000F91FF90EF90DF90CF90BF90AF909F9005
:1022A0008F907F9008950E94E001882359F081E08B
:1022B0008093A1078093A2078091A3079091A40720
:1022C0000C94DE2B1092A20790E080E00895CF934B
:1022D0000E945311C82F0E945311BC018C2F0E94E1
:1022E000BC02CF910C94A60F0E9453112091680458
:1022F000821760F4FC01FF27EE0FFF1FEC59FB4F24
:10230000808191810E94050B0C94A60F08950F9374
:102310001F930E94531120916804821708F047C050
:10232000FC01FF27EE0FFF1FEC59FB4FA081B1818D
:102330001296ED91FC9113971486158616861786D2
:10234000108A118A128A138A14AA15AA16AA17AA21
:1023500014A215A216A217A2148A158A168A178A21
:102360001C968C911C978823F1F012968D919C916C
:1023700013971A964C9150E0519541955109052EAD
:10238000000C660B770BFC010089118922893389C7
:10239000401751076207730731F0408B518B628BF6
:1023A000738B0E9472091F910F910C94A60F1F91BD
:1023B0000F9108958F929F92AF92BF92CF92DF922A
:1023C000EF92FF921F93CF93DF930E945311EC0182
:1023D0000E945311BC01809178028C171D0609F0F0
:1023E0000CF4B0C0CC0FDD1FCC58DD4F0990D88164
:1023F000C02DCD80DE800D2C000CEE08FF088980FA
:102400009A80092C000CAA08BB082F813885032E5E
:10241000000C440B550B2C193D094E095F09072E82
:10242000000C880B990B681979098A099B090E948D
:10243000402E2B813C81032E000C440B550B281998
:1024400039094A095B090E94A62DBA01A9014C0D60
:102450005D1D6E1D7F1D052E000C660B770B8D8597
:102460009E85AF85B88984179507A607B70709F435
:102470005CC04D875E876F87788B8985811155C0D9
:102480008A858C3008F04FC0188161E0812F0E944E
:1024900080028A85282F30E0F901EE0FFF1FE20F3E
:1024A000F31FEF5EFB4F1F739081907C912B908305
:1024B0001B861C862CE0622F0E94502E829FB0014A
:1024C000112430E020E0AB01420F531FFA01EE0F60
:1024D000FF1FE40FF51FEF5EFB4F908196FD16C0C6
:1024E0002F5F3F4F2C30310571F781110FC01092D3
:1024F000800082E080938100109285001092840019
:10250000B19A80916F00826080936F00EA858E2F70
:1025100090E0FC01EE0FFF1FE80FF91FEF5EFB4F8D
:1025200080818064808381E08987DF91CF911F91D2
:10253000FF90EF90DF90CF90BF90AF909F908F90E3
:102540000C94A60FDF91CF911F91FF90EF90DF9039
:10255000CF90BF90AF909F908F900895EF92FF9291
:102560000F931F93CF93DF930E9453118C010E940E
:1025700031027C01EC01FC01DE018081882349F0FD
:102580009091AC07891301C031968081899331966F
:10259000F3CFAE17BF0710F41D92FBCF000F111F32
:1025A000F801EB59FD4F00811181F80186858823E0
:1025B000B1F0C0E0F80181898C1789F04C2F60E000
:1025C000C8010E94A206F8014089B701C49F600DAE
:1025D000711D1124C8010E940307CF5FEBCFDF916B
:1025E000CF911F910F91FF90EF900C94A60F209127
:1025F0001806309119068217930710F40C94902D49
:1026000080E008950F931F93CF93DF938C01EB012C
:10261000F801808191819C012F5F3F4F318320839E
:102620000E94F71228813981A9014F5F5F4F5983BA
:10263000488322523B4FF9018083288139812C3D08
:10264000310560F48A3321F723523B4FF9011082A0
:1026500081E0DF91CF911F910F91089580E0F9CF34
:10266000EF92FF920F931F93CF93DF93EC01E090D3
:102670001806F0901906888199818C010F5F1F4F11
:10268000198308830E94F712E016F10650F08A338E
:1026900091F781E0DF91CF911F910F91FF90EF9023
:1026A000089580E0F7CFAF92BF92CF92DF92EF9282
:1026B000FF920F931F93CF93DF9300D000D0CDB73D
:1026C000DEB75C0119821A821B821C82CE01019640
:1026D0007C0110E000E06C01F501808191819C019A
:1026E0002F5F3F4F318320830E94F712F7018083D1
:1026F000F8018E3241F00F5F1F4F8FEFE81AF80A92
:102700000430110549F7EC0DFD1D1082C6010E9431
:10271000DE2B0F900F900F900F90DF91CF911F91B4
:102720000F91FF90EF90DF90CF90BF90AF90089502
:10273000FB0101900020E9F73197AF01461B570BD1
:10274000DC01ED91FC910280F381E02D09948091F0
:10275000D7068823A1F06091AA078091A8079091DD
:10276000A9070E944A038091DF06882341F06FEC9D
:1027700071E08091A8079091A9070E949813109288
:10278000DE061092D70680E008958F929F92AF9256
:10279000BF92EF92FF920F931F93CF93DF93CDB72A
:1027A000DEB7A1970FB6F894DEBF0FBECDBF7C0198
:1027B000FA01CB0119A2223008F42AE08E010F5D44
:1027C0001F4F822E912CB12CA12CBF01A501940189
:1027D0000E940F2EF901CA016A300CF5605DD80124
:1027E0006E938D01232B242B252B79F790E080E02D
:1027F000109721F0BD01C7010E949813A1960FB652
:10280000F894DEBF0FBECDBFDF91CF911F910F9126
:10281000FF90EF90BF90AF909F908F900895695C6C
:10282000DECFCF939091D7069923A9F0C82F60915E
:10283000AB078091A8079091A9070E944A034C2FEB
:1028400050E070E060E02AE08091A8079091A9072D
:10285000CF910C94C513CF9108959091D706911103
:1028600010C091E09093D7069093DE06482F50E079
:1028700070E060E02AE08091A8079091A9070C948D
:10288000C5130895CF93DF939091D70691111AC085
:10289000EB010E942D148091D706882379F0609176
:1028A000AB078091A8079091A9070E944A03BE0137
:1028B0008091A8079091A9070E945103DF91CF91C1
:1028C0000C94A71380E0DF91CF9108950E943E03FE
:1028D00060935E0470935F0480936004909361043E
:1028E00068E670E085E00C9442141F93CF93DF9369
:1028F00010923B0210925D0210925D0490916D0265
:10290000EEE6F2E080E0981731F0A191B191559692
:102910001C928F5FF8CF10926D0230917802C4E75D
:10292000D2E020E03217D1F0A991B99119968C919B
:102930001997882389F01A96EC911A978E2F90E0B8
:10294000FC01EE0FFF1FE80FF91FEF5EFB4F8081C8
:102950008F7B808319961C922F5FE4CF10927802B0
:1029600080916804882361F0E0916404F09165042B
:102970001082823028F0E0916604F09167041082A2
:102980001092680490910202E5E6F2E080E0981768
:1029900059F0A191B1911E962C911E97222311F00E
:1029A0001E961C928F5FF3CF1092020210921602B5
:1029B00090910302E9E6F2E080E0981759F0A191C6
:1029C000B19118962C911897222311F018961C9209
:1029D0008F5FF3CF1092030280916202882361F02F
:1029E000E0915E02F0915F021682823028F0E09161
:1029F0006002F091610216821092620210E0E09192
:102A000044021E1798F4F0E0EE0FFF1FE25CFD4F4A
:102A1000C081D1818B8180FF07C062E08A810E94E2
:102A200080028B818E7F8B831F5FE9CF10924402DF
:102A30001092380410923704109263041092A60387
:102A40001092A5036CE670E085E0DF91CF911F91B5
:102A50000C9442146FE670E08FE00C9442142091C5
:102A6000A5033091A603820F932F911D9093A60387
:102A70008093A5038C32914040F060EA72E085E0DB
:102A80000E94421490E080E00895C90187589D4F4C
:102A90000895CF92DF92EF92FF920F931F93CF93FF
:102AA000DF9390915D02993009F45EC07901142F93
:102AB000C62ED82E8FE10E94F90A81110DC06FEB4E
:102AC00071E085E0DF91CF911F910F91FF90EF9022
:102AD000DF90CF900C9442148FE10E942F15EC01EF
:102AE000892B09F01A8200915D02E02FF0E0EE0FD1
:102AF000FF1FE55BFD4FD183C0831E821D82FC82D8
:102B0000EB82D882C98285E0819FF0011124EE59C1
:102B1000FE4FDE01199601900D928A95E1F762E071
:102B20008D2D0E94800262E089810E9480021E86B3
:102B3000188A1F861A8A198A18861F8A188E198E73
:102B40001A8E84EF91E0A0E0B0E08B8B9C8BAD8B74
:102B5000BE8B81E08A838EE396E190934A02809354
:102B600049020F5F00935D02DF91CF911F910F919A
:102B7000FF90EF90DF90CF90089581E08093630401
:102B800062E770E081E10C944214CF93DF930E94DE
:102B9000A60F8AE00E942D1480913704909138048A
:102BA000892B91F18BE390E00E94F712C82F80915E
:102BB000D706882379F06091AB078091A8079091A0
:102BC000A9070E944A036C2F8091A8079091A9073A
:102BD0000E944A03C1E0D0E080913704909138040C
:102BE000C817D90788F4CE01CB960E94F7129091AE
:102BF000D706992339F0682F8091A8079091A907EB
:102C00000E944A032196E8CFDF91CF910C94A7133D
:102C1000CF93DF932091D7062223A1F0EC0160919E
:102C2000AB078091A8079091A9070E944A032097BB
:102C300049F0BE018091A8079091A907DF91CF913B
:102C40000C949813DF91CF9108950F931F93CF9316
:102C5000DF93C82FD62F8A018DE10E942D14C80161
:102C60000E9408168D2F0E9411148C2F0E9411149F
:102C7000DF91CF911F910F910C94A7130F931F9386
:102C8000CF93C82F8A0186E00E942D14C8010E94AC
:102C900008168C2F0E941114CF911F910F910C9444
:102CA000A7130F931F93CF93DF93C82FD62F8A01BB
:102CB0008EE10E942D14C8010E9408168D2F0E94DB
:102CC00011148C2F0E941114DF91CF911F910F913D
:102CD0000C94A7130F931F93CF93C82F8A0187E0FB
:102CE0000E942D14C8010E9408168C2F0E941114F6
:102CF000CF911F910F910C94A713CF92DF92EF9277
:102D0000FF92CF93DF936C01EA018CE10E942D14B6
:102D1000CE010E9408168091D706882321F1609188
:102D2000AB078091A8079091A9070E944A03C09120
:102D3000A807D091A9070D2C000CEE08FF082AE087
:102D4000B701A601F7FE0CC06DE2CE010E944A0356
:102D500044275527BA014C195D096E097F092AE0FD
:102D6000CE010E94C513DF91CF91FF90EF90DF90CD
:102D7000CF900C94A713FB0101900020E9F7319745
:102D8000AF01461B570BDC01ED91FC910284F385EA
:102D9000E02D0994CF92DF92EF92FF920F931F9351
:102DA000CF93DF938C01EB01FC01D0886D2D70E097
:102DB000FE0101900020E9F7CF0101978C1B9D0BCC
:102DC00086179707B0F4681B790B76956795D82E10
:102DD000C8010E94A206CC2EEC2EFD2E8E2D8C1941
:102DE0008D1548F4F70161917F01C8010E94EB063F
:102DF000F5CF60E0EDCFDF91CF911F910F91FF9064
:102E0000EF90DF90CF90089585ED8093BC00809186
:102E1000B6049091B704A091B804B091B904079694
:102E2000A11DB11D23E0B695A795979587952A9585
:102E3000D1F72091BC0024FD03C01092B404089582
:102E40004091B6045091B7046091B8047091B904F0
:102E5000452B462B472B69F30097A105B10541F09F
:102E600025E32A95F1F700000197A109B109E1CF07
:102E70008091B5040C94CD044F925F926F927F9233
:102E80008F929F92AF92BF92CF92DF92EF92FF927A
:102E9000CF93DF93EC016A017B0120E030E0A901D0
:102EA000CB01B6010E946C2C87FF04C0F7FAF094A6
:102EB000F7F8F0948C8C9D8CAE8CBF8CA70196019A
:102EC000C501B4010E946C2C882309F449C06CA987
:102ED0007DA98EA99FA90E94732C2B013C01A701FB
:102EE0009601C501B4010E94E32E9B01AC01C30110
:102EF000B2010E94D22C0E94552F6CAB7DAB8EABE1
:102F00009FABA701960160E070E080E090E40E9432
:102F1000E32E0E94962F26E53EE04DE25FE30E94FD
:102F2000D22C20E034E244E759E40E94D22C68AF6E
:102F300079AF8AAF9BAFCC8EDD8EEE8EFF8ECE0149
:102F4000DF91CF91FF90EF90DF90CF90BF90AF9047
:102F50009F908F907F906F905F904F900C9472092C
:102F6000DF91CF91FF90EF90DF90CF90BF90AF9027
:102F70009F908F907F906F905F904F900895EF9209
:102F80000F93CF93DF93EC0185E991E099838883D8
:102F90006B831C861D861E861F86188A198A1A8ACC
:102FA0001B8A1C8A1D8A1E8A1F8A80E090E0A0E886
:102FB000BFE3888F998FAA8FBB8F1C8E1D8E1E8EAC
:102FC0001F8E88A399A3AAA3BBA31CA21DA21EA205
:102FD0001FA261E070E07DA76CA73FEF3FA718A696
:102FE00019A61AA61BA64C832D830E83EF821EA65C
:102FF0001CAA1DAA1EAA1FAA18AE19AE1AAE1BAE95
:103000001CAE1DAE1EAE1FAEFE01E05CFF4F808306
:103010009183A283B3831A82188619861A861B8627
:10302000CE010E945F0740E050E060E87FE3CE0100
:10303000DF91CF910F91EF900C943C178F929F925C
:10304000AF92BF92CF92DF92EF92FF920F931F93B6
:10305000CF93DF930E945311EC010E9453118C0116
:103060000E9453117C0180916804C81708F078C051
:10307000DD27CC0FDD1FCC59DB4FC880D980F6018E
:10308000C281D381B80190E080E00E94712C4B0195
:103090005C01288D398D4A8D5B8D0E946C2C8823B4
:1030A000F1F1888E998EAA8EBB8E8E01005C1F4F27
:1030B000A501940160E074E284E799E40E94E32EA4
:1030C000F80160837183828393838CA99DA9AEA943
:1030D000BFA9181619061A061B060CF56C897D89FE
:1030E0008E899F899B01AC010E94D22C4B015C010F
:1030F0006C8D7D8D8E8D9F8D9B01AC010E94772EF6
:103100009B01AC01C501B4010E94E32E0E94552F22
:103110006CAB7DAB8EAB9FABCE010E947209B70149
:1031200090E080E00E94712C4B015C0120E030E0D7
:10313000A9010E946C2C882399F0B501A401F60125
:1031400082819381DF91CF911F910F91FF90EF903A
:10315000DF90CF90BF90AF909F908F900C943C17D2
:10316000DF91CF911F910F91FF90EF90DF90CF9063
:10317000BF90AF909F908F9008954F925F926F9203
:103180007F928F929F92AF92BF92CF92DF92EF92F7
:10319000FF920F931F93CF93DF93D02E90916804EB
:1031A000923009F44AC00E2DB22EE42E162FF82EBE
:1031B0008EE00E94F90A811115C060E872E085E096
:1031C000DF91CF911F910F91FF90EF90DF90CF9003
:1031D000BF90AF909F908F907F906F905F904F9037
:1031E0000C9442148EE00E942F15EC01892B09F0FB
:1031F0001882E0916804F0E0EE0FFF1FEC59FB4FDE
:10320000D183C08384E40E94F90A811127C06FE54D
:1032100072E085E00E944214C0916804DD2051F004
:10322000EC2FF0E0EE0FFF1FEC59FB4F80819181F6
:103230000E94050BCF5FC0936804DF91CF911F916F
:103240000F91FF90EF90DF90CF90BF90AF909F9045
:103250008F907F906F905F904F900895013009F4A8
:103260008EC028F0023009F496C01882D5CF84E4CD
:10327000FE100EC01B110CC00E942F154C01892B93
:1032800099F095E0E92E04E0212F4F2D61E009C06F
:103290000E942F154C01892B39F00F2D212F4B2D1A
:1032A00064E0C4010E94BF179B828A82EA80FB808F
:1032B00020E030E048EC53E4F701608D718D828DA1
:1032C000938D0E946C2C882309F440C080E090E02C
:1032D000A8ECB3E4F701808F918FA28FB38F80E0C9
:1032E00090E4ACE1B5E4E05CFF4F80839183A2837E
:1032F000B383F70184A995A9A6A9B7A91816190639
:103300001A061B061CF564897589868997899B01B5
:10331000AC010E94D22C2B013C01F701648D758D0C
:10332000868D978D9B01AC010E94772E9B01AC018D
:10333000C301B2010E94E32E0E94552FF70164AB36
:1033400075AB86AB97ABC7010E94720940E050E0B5
:1033500068E474E48A819B810E943C17DC8281E0EE
:103360008D83DD2021F062E08D2D0E948002CA86CF
:10337000AB8681E0888319828D878C874DCF84E46A
:103380000E942F154C01892B09F48ECF0F2D212F70
:103390004B2D68E086CF84E46FCF8F929F92AF92DF
:1033A000BF92CF92DF92EF92FF92CF93DF930E9472
:1033B0005311EC01B82E0E94E001882309F48FC05C
:1033C00081E08093A1078093A2078091A307909149
:1033D000A4070E94FC2B6B017C0180916804B81645
:1033E00008F083C0DD27CC0FDD1FCC59DB4F0990DF
:1033F000D881C02D19828E819F81A885B985C81674
:10340000D906EA06FB0609F45EC08A819B81DC01CD
:103410001C968D909D90AD90BC901F972B8522237C
:1034200051F02D85222339F0ED91FC910280F3813A
:10343000E02D09951D868C85882379F0C814D90460
:10344000EA04FB0454F48E819F81A885B985C816CF
:10345000D906EA06FB060CF41C868C85811110C087
:103460008C149D04AE04BF045CF48E819F81A885FA
:10347000B9858C159D05AE05BF0514F481E08C87D8
:103480008A819B814A852C85429FA0011124052EAB
:10349000000C660B770B4C0D5D1D6E1D7F1DFC0136
:1034A00080889188A288B388481559056A057B05EC
:1034B00031F0408B518B628B738B0E947209CE82EC
:1034C000DF82E886F986DF91CF91FF90EF90DF9061
:1034D000CF90BF90AF909F908F900C94A60F1092BA
:1034E000A207C12CD12C760178CFDF91CF91FF902C
:1034F000EF90DF90CF90BF90AF909F908F90089506
:10350000BF92CF92DF92EF92FF920F931F93CF93D0
:10351000DF93EC01E62EC42ED22EFB88FF0C0F2D7C
:1035200010E0A80170E060E003960E94EB2FEE2D02
:10353000EE0FEC0FFD2FF11DC482D38260E08A8173
:103540000E9460020D5F1F4F0C0F1D1FFF20E1F056
:10355000F801B2908F0188E0C82ED12C90E8E92EB6
:103560006B2D6E2188810E94600261E089810E943A
:10357000600260E089810E946002E694F1E0CF1A67
:10358000D10871F7FA94E2CF61E08A81DF91CF919F
:103590001F910F91FF90EF90DF90CF90BF900C9410
:1035A00060028F929F92AF92BF92CF92DF92EF9282
:1035B000FF920F931F93CF93DF930E945311EC015F
:1035C0000E945311882E0E9431025C010E94531107
:1035D0006C010E945311CC0FDD1FC259DD4F0881D1
:1035E0001981F8012589222309F43CC0C7E0D0E005
:1035F000912C7C01FF24DD246C2F4C2F4F5FC701E1
:103600000C2E02C0959587950A94E2F780FF28C09A
:10361000F801A3898A1618F5F501E90DF11D8081DD
:1036200087FD80E296010C2E02C0359527950A94FD
:10363000E2F720FD8068F80192819D3F10F06A1743
:1036400070F4E82FEF77F0E0E152FE4F24919D3FB8
:10365000B8F487FD2068682DC8010E94801A9394F1
:10366000219750F6DF91CF911F910F91FF90EF902E
:10367000DF90CF90BF90AF909F908F900C94A60F4B
:10368000220F87FD2160A150BB0BAC1BBD0BA00F0F
:10369000B11F13962C9341E0C8010E94690CDFCF43
:1036A0001F93CF93DF93DC0112962C9112972D3F3D
:1036B00060F453962C91621700F521E024274CE02A
:1036C000DF91CF911F910C94801A5496EC91F0E009
:1036D000F595E7951E2F411101C01860EC010E947D
:1036E000620C60E8610F40E0CE010E94F10BCE0158
:1036F000DF91CF911F910C944B0CDF91CF911F91D3
:1037000008950F931F93CF93DF93FC012589222304
:10371000C1F16217B0F5442391F12FEF240F20314E
:1037200008F02FE0D62F8C01FC01248B82818D3F85
:1037300080F48389681720F44AE0C8010E94801A47
:1037400040E06D2FC801DF91CF911F910F910C9434
:10375000501BC0E0413031F02695423009F421E0A1
:10376000C22FC860C8010E94620C60E86C0F40E084
:10377000C8010E94F10BC8010E944B0CE1CF41E04F
:10378000E2CFDF91CF911F910F9108951F93CF93B7
:10379000DF930E945311EC010E945311182F0E94D5
:1037A0005311CC0FDD1FC259DD4F482F612F888187
:1037B00099810E94811BDF91CF911F910C94A60FDC
:1037C0000C94C61BFF920F931F93CF93DF93F82E99
:1037D000C0E080916D02C817B0F4EC2FF0E0EE0F5E
:1037E000FF1FE259FD4F00811181D0E0F80185896A
:1037F0008D1739F04F2D6D2FC8010E94501BDF5FD0
:10380000F5CFCF5FE6CFDF91CF911F910F91FF9062
:1038100008950F931F93CF93DF93EC01062F4B89ED
:103820008A818D3F88F4641750F410E01F5F20E018
:10383000412F602FCE010E94801A1830B9F7DF9116
:10384000CF911F910F91089550E070E060E0CE019C
:1038500003960E94EB2F4B896FEF640FCE01DF912F
:10386000CF911F910F910C94690C2F923F924F9220
:103870005F926F927F928F929F92AF92CF92DF92E0
:10388000EF92FF920F931F93CF93DF9300D000D05E
:10389000CDB7DEB78091370490913804892B09F4B5
:1038A0005CC58BE390E09A8389831C821B82CE01E6
:1038B00001960E945313882309F44FC56BE4862EAA
:1038C00066E4962E74EB672E712CEFEFE80FCE01B5
:1038D0000196EF3008F0A4C00E2E000CFF0BED583F
:1038E000F34E0C94702E821C981EDD1C131DE11DDE
:1038F000481EBC1EA91E021E4420E71FB420101D36
:1039000017211D1E0E945313D82E80913B02823135
:10391000D9F184E00E94F90A65E770E0882309F490
:10392000CDC4EB80FC8084E00E942F158C010097B1
:10393000C1F0DC011296DC921297C70182529B4FB4
:103940008D939C9362E08D2D0E948002F80182810C
:103950000E94440221E0892B09F420E0D80113964B
:103960002C9380913B02E82FF0E0EE0FFF1FE95E01
:10397000FD4F118300832AE636E130933D02209308
:103980003C028F5F80933B02BE016D5F7F4FCE0193
:1039900001960E940213182FCE0101960E94531324
:1039A000882309F4D7C4111190CF1092B90565E9A5
:1039B00071E085E00E944214D0C40E945313F82E97
:1039C00080915D04823151F182E00E94F90A63E93D
:1039D00070E0882309F476C382E00E942F158C01E1
:1039E000009779F0FC01F082118261E08F2D0E9436
:1039F0008002D80111966C91119770E08C910E9411
:103A0000BC0280915D04E82FF0E0EE0FFF1FE75C41
:103A1000FB4F118300838F5F80935D04CE0101967D
:103A20000E943013B8CF0E945313582ECE01019636
:103A30000E945313D82ECE0101960E945313C82E14
:103A4000CE0101960E945313482ECE0101960E948A
:103A50005313E82E80916D02833001F386E10E94BA
:103A6000F90A61EB70E0882309F42CC386E10E9417
:103A70002F158C01009729F0FC01138A8FE0848BAD
:103A8000158AF0906D02EF2DF0E0EE0FFF1FE25966
:103A9000FD4F11830083D8015C921196CC9211974F
:103AA0001296DC92BCEFBD1508F447C08E2DE8E0FD
:103AB000EE1508F488E0D80153968C9361E0852DCB
:103AC0000E94800261E0F80181810E94800261E031
:103AD000D80112968C910E94800261E0F8018281E7
:103AE0000E946002D12CD80153968C91D81608F010
:103AF0004CC020E04FE06D2DC8010E94801AF801F3
:103B000082818D3F48F48389D81630F427E04BE05A
:103B10006D2DC8010E94801A20E049E06D2DC8017A
:103B20000E94801A6D2DC8010E94091C41E06D2D74
:103B3000C8010E94501BD394D6CFFDEF84E0DF1262
:103B400086E0D80153968C9362E08C2D0E9480020F
:103B500062E0F80180810E94800260E0D801119645
:103B60008C910E94600260E0F80180810E946002F6
:103B700060E0C8010E94091C8FE0D80154968C9324
:103B800041E060E0C8010E94501BF801E58AE12C89
:103B9000D80155968C91E81680F4442D6E2DC801FD
:103BA0000E94811B40E06E2DC8010E94501B6E2DAB
:103BB000C8010E94091CE394EBCFF394F0926D02CC
:103BC0002DCF0E945313182FCE0101960E9453133C
:103BD000F82ECE0101960E945313D82ECE010196E5
:103BE0000E945313582ECE0101960E945313A12C0C
:103BF000C12CE12C00E0252D4D2D6F2D812F0E9431
:103C0000BD180CCF0E945313182FCE0101960E94AD
:103C10005313F82ECE0101960E945313D82ECE01D5
:103C200001960E945313582ECE0101960E94531301
:103C3000A12CC12CE12C082FDECF0E945313182F8A
:103C4000CE0101960E945313F82ECE0101960E94D8
:103C50005313D82ECE0101960E945313582ECE0135
:103C600001960E945313082FCE0101960E94531310
:103C7000E82ECE0101960E945313C82ECE01019664
:103C80000E945313AA24A3948111B5CFA12CB3CFC2
:103C90000E945313182F80917802823009F4BECE0F
:103CA00087E10E94F90A62ED70E0882309F40AC2F4
:103CB00087E10E942F15FC01892BB9F08091350412
:103CC0008C3098F591E0980F90933504828790E0BE
:103CD000DC01AA0FBB1FA80FB91FAF5EBB4F28EBBB
:103CE0003BE012963C932E93119780917802A82F77
:103CF000B0E0AA0FBB1FAC58BD4FED93FC931186EB
:103D0000158616861786108A118A128A138A148AD3
:103D10001282118274826382168215827086678293
:103D200010838F5F8093780279CE8FEF8287DDCF0B
:103D30000E945313182FCE0101960E9453132B811A
:103D40003C8122523B4F40E0682F812F0E94491551
:103D50001BCE0E945313182FCE0101960E945313BD
:103D6000082FCE0101960E9453132B813C812252D1
:103D70003B4F482F602FE9CF0E945313D82ECE011E
:103D800001960E945313E82ECE0101960E94531310
:103D9000F82E80910202823009F440CE82E10E9426
:103DA000F90A60EF70E0882309F48CC182E10E9477
:103DB0002F158C01009761F0DC0113961C921E9266
:103DC0001297E6E5F1E01196FC93EE9319961C929A
:103DD000E0910202F0E0EE0FFF1FEB59FD4F11835F
:103DE0000083D8011F96DC921F975096EC92509753
:103DF0005196FC92519781E01E968C931E971496D3
:103E0000DC9214971A96EC921A971B96FC921B97C9
:103E10001C961C921C971D961C921092C80310921F
:103E2000C7031092BB041092DD040E94AF04E1EEC0
:103E3000F5E0F093EB03E093EA0322EE35E03093F4
:103E4000EF032093EE03D80115961C9215971B964D
:103E50008C911B97823018F098E015969C93F8018E
:103E60009485992329F0813019F4858184608583B4
:103E70000E9419036B017C0162E3262E312C412C38
:103E8000512C0E9419036C197D098E099F09683E07
:103E9000734081059105A8F3F1E02F1A310841081C
:103EA000510828EEC20E23E0D21EE11CF11C2114A1
:103EB00031044104510429F7D8011D966C91C801C1
:103EC0000E94F10660E3C8010E94F106C401019757
:103ED000F1F760E3C8010E94F106C4010197F1F710
:103EE00060E3C8010E94F10683E592E00197F1F7D3
:103EF00060E2C8010E94F106F8016581606240E05D
:103F0000C8010E94790684E0D80116968C9340E09F
:103F10006CE0C8010E947906C8010E94D30682E0C5
:103F2000F801878340E066E0C8010E94790640E01E
:103F300062E0C8010E9479068BE39FE10197F1F7E7
:103F400088E0D8011D968C931D9714968C9191E072
:103F50009093BA048093DC041092BB041092DD04A9
:103F600068E085E096E00E943A060E94DE058CE05B
:103F70008093B800F8018685882319F1C8010E9452
:103F8000D306D80151964C91F12C433020F0469540
:103F9000FF24FA94F40E4F2D62ED71E0C8010E94E7
:103FA000CA16F8018189823038F041E04F0D6DED7D
:103FB00071E0C8010E94CA1640E060E0C8010E949A
:103FC000A206809102028F5F8093020227CD0E9499
:103FD0005313D82ECE0101960E945313C82E809100
:103FE0001602883009F4D0CC8DE10E94F90A6CE009
:103FF00071E0882309F462C1EB80FC808DE10E94AE
:104000002F158C01892B61F180E1F8013696DF01D3
:104010001D928A95E9F7F801178A168A108EC582D3
:10402000D282C70182529B4F9183808362E08D2DA3
:104030000E94800258E0F52EC8010E940C0FFA94ED
:10404000F110FACFD80156968D919C91579743E085
:10405000969587954A95E1F714969C938E931397BE
:1040600080911602E82FF0E0EE0FFF1FEA5FFD4F90
:1040700011830083EDE7F6E1F0930502E09304027B
:104080008F5F8093160280CC0E945313C82ECE01FE
:1040900001960E945313382ECE0101960E945313AD
:1040A000482ECE0101960E945313582E8091030290
:1040B000823009F4B3CC89E00E94F90A811106C06C
:1040C0006CE271E085E00E944214A8CC89E00E9475
:1040D0002F158C01D0900302ED2CF12CEE0CFF1C5F
:1040E000F701E759FD4F9183808381E0D80118964D
:1040F0008C931897CC9211963C92119712964C92F1
:10410000129713965C9261E08C2D0E94800261E010
:10411000F80181810E94800261E0D80112968C91A1
:104120000E948002F8019381349680E0981719F07C
:1041300011928F5FFBCFC8010E94B10FF701E759C1
:10414000FD4F80819181DC0113963C91FC013496F6
:1041500020E0321719F011922F5FFBCF0E94B10FB0
:10416000D394D09203025ACC0E945313D82ECE017E
:1041700001960E945313482ECE0101960E945313BC
:10418000582ECE0101960E945313C82E80916202D0
:10419000823009F4F9CB8BE00E94F90A61E571E005
:1041A000882309F48BC0EB80FC808BE00E942F15E4
:1041B0008C01009731F0FC0116821782108611865F
:1041C0001286E0916202F0E0EE0FFF1FE25AFD4F0F
:1041D00011830083F801D28243825482C701825244
:1041E0009B4F91838083C58261E08D2D0E94800268
:1041F00061E0D80113968C910E94800260E0F80182
:1042000084810E94800281E0D80116968C9360E040
:10421000C8010E94F10FE5E2F6E1F0936402E09339
:104220006302809162028F5F80936202ADCB0E9435
:104230005313D82ECE0101960E945313F82ECE01AF
:1042400001960E945313082FCE0101960E9453132A
:10425000182FCE0101960E945313F092110600937D
:10426000120610931306809314061092150601E1AE
:1042700016E061E0D8018D918D010E948002B6E0C8
:1042800005311B07B1F780911506816080931506F3
:1042900060E081E196E00E94C80CCE0101960E9488
:1042A0005313C82E80914402833009F46DCB86E00D
:1042B0000E94F90A811106C065E771E085E00E945D
:1042C000421462CBEB80FC8086E00E942F158C01AB
:1042D000009759F0E1E1F6E0F0934802E0934702DD
:1042E000DC0115961C921E921497E0914402F0E0B6
:1042F000EE0FFF1FE25CFD4F11830083F801D282B5
:10430000C70182529B4F91838083F1E0CF16F1F079
:10431000D80113961C9262E08D2D0E948002D80174
:1043200013968C911397816013968C9360E0C8016B
:104330000E94460EE1E5F6E1F0934602E093450265
:10434000809144028F5F809344021ECB82E0F8018B
:104350008383E1CF112309F428CB0F900F900F90A6
:104360000F90DF91CF911F910F91FF90EF90DF9011
:10437000CF90AF909F908F907F906F905F904F9075
:104380003F902F9008950E94351C0C94BD15FF920C
:104390000F931F93CF93DF930E945311EC010E9460
:1043A00031028C010E945311F82ECC0FDD1FC7592A
:1043B000DD4F0990D881C02D8885882369F164EE8E
:1043C00071E0C8010E94232C01E010E0009709F180
:1043D0000E94DE2B9885992391F0982F9770980171
:1043E00001C0220F9A95EAF7869586958695FE017B
:1043F000E80FF11D8481FF2049F0282B248364EE0F
:1044000071E090E080E00E94232CE0CF20952823EB
:10441000F5CFCE010E94B10FDF91CF911F910F9187
:10442000FF900C94A60FFF920F931F93CF93DF93EF
:104430008C01EB01F8800E94902DF81621F06F2D71
:10444000C8010E94982DCE01DF91CF911F910F914D
:10445000FF900895AF92BF92CF92DF92EF92FF92BA
:104460000F931F93CF93DF930E94A60F0E943102F8
:104470006C01EC0109900020E9F72197C81BD90BCA
:10448000DD27E0903704F0903804C70101968C0FC7
:104490009D1F8E31914008F053C05E018FEFA81A26
:1044A000B80A2BE3E20EF11C95012E0D3F1D809101
:1044B0001806909119068217930778F010E000E033
:1044C000B601600F711FC701800F911F0E94132258
:1044D0000F5F1F4F0A151B0598F340913704509149
:1044E0003804C40FD51FD0933804C093370480918B
:1044F000D706811147C085E00E942D148091D70610
:10450000882391F06091AB078091A8079091A9074B
:104510000E944A03AE0170E060E02AE08091A807A3
:104520009091A9070E94C513DF91CF911F910F9120
:10453000FF90EF90DF90CF90BF90AF900C94A713B7
:104540008091D70681111EC085E00E942D148091B4
:10455000D706882349F36091AB078091A807909113
:10456000A9070E944A03C091A807D091A9076DE24C
:10457000CE010E944A032AE041E050E060E070E092
:10458000CE01D0CFDF91CF911F910F91FF90EF908F
:10459000DF90CF90BF90AF900895CF93DF930E94AC
:1045A0003102FC0190E3A6E1B1E001900D929A95F1
:1045B000E1F78091180690911906892B29F063E2A2
:1045C00090E080E00E94982D809118069091190645
:1045D000C09760F0D0E0C0E0BE016A5E7E4F2196D9
:1045E000CE010E941322CF32D105B1F78091D706B8
:1045F00081110BC085E00E942D1486E191E00E949C
:104600000816DF91CF910C94A713DF91CF910895F5
:104610004F925F926F927F928F929F92AF92BF92D2
:10462000CF92DF92EF92FF92CF93DF930E943E03EF
:10463000611571058105910511F00E94D52B0E942D
:10464000862B2B013C010E94862B4B015C01CC2464
:10465000CA948FE0D82EE12CF12CC301B201A7013E
:1046600096010E94A62D7F936F93C501B401A70107
:1046700096010E94A62D7F936F9386EE91E09F9303
:104680008F9380E091E09F938F930E94F92F8DB7D5
:104690009EB708960FB6F8949EBF0FBE8DBF80914F
:1046A000180690911906CB9760F0C0E3D0E0BE01E8
:1046B00060537F4FCE010E9413222196CB33D10548
:1046C000B1F7DF91CF91FF90EF90DF90CF90BF9047
:1046D000AF909F908F907F906F905F904F900895D4
:1046E0000E9408238091D706811109C08AE00E94A8
:1046F0002D1480E091E00E9408160C94A7130895F1
:10470000EF92FF920F931F93CF93DF9380E390E09C
:104710000E94F712833509F048C081E390E00E94BF
:10472000F7128E3409F049C080911806909119064D
:10473000CB9770F000E011E0C0E3D0E0CE010E9422
:10474000902DF80181938F012196CB33D105B1F7DC
:104750000E94A60F8AE00E942D148091D70688231C
:1047600081F06091AB078091A8079091A9070E9402
:104770004A036FEA71E08091A8079091A9070E940F
:10478000510386E191E00E94081680E091E00E94CA
:1047900008168CEF91E00E940816DF91CF911F91CF
:1047A0000F91FF90EF900C94A713893431F481E3BB
:1047B00090E00E94F712843471F00E9408238091E7
:1047C000180690911906CC9718F260E08BE390E000
:1047D0000E94982DBDCF63EF71E080E091E00E94D0
:1047E000F22F8CEFE82E85E0F82ED0E0C0E007EF46
:1047F00011E0F70181917F011F928F931F930F9317
:10480000CE018D5F9E4F9F938F930E94F92F22962A
:104810000F900F900F900F900F900F90C231D10515
:1048200041F796CF1F920F920FB60F9211242F933C
:104830003F938F939F93AF93BF9380918604909102
:104840008704A0918804B09189043091850423E005
:10485000230F2D3758F50196A11DB11D2093850416
:104860008093860490938704A0938804B09389046E
:1048700080918A0490918B04A0918C04B0918D0456
:104880000196A11DB11D80938A0490938B04A0937F
:104890008C04B0938D04BF91AF919F918F913F9104
:1048A0002F910F900FBE0F901F90189526E8230FA1
:1048B0000296A11DB11DD2CF1F920F920FB60F927B
:1048C00011242F933F934F935F936F937F938F9315
:1048D0009F93AF93BF93EF93FF938AE196E00E947B
:1048E000F803FF91EF91BF91AF919F918F917F91CD
:1048F0006F915F914F913F912F910F900FBE0F904D
:104900001F9018951F920F920FB60F9211242F939C
:104910005F936F937F938F939F93AF93BF93EF9327
:10492000FF93E0912A06F0912B068081E0913006FA
:10493000F091310682FD24C020818091330690E001
:10494000019660E670E00E945C2E90913406981704
:1049500041F0E0913306F0E0E65EF94F258F809359
:104960003306FF91EF91BF91AF919F918F917F910E
:104970006F915F912F910F900FBE0F901F90189520
:104980008081EFCF1F920F920FB60F9211242F93B9
:104990003F934F935F936F937F938F939F93AF93C7
:1049A000BF93CF93DF93EF93FF9380913604C09131
:1049B0003504D0E087FF24C0109285001092840057
:1049C000809136048F5F8093360480913604082EE0
:1049D000000C990B8C179D0724F4809136048C30C1
:1049E000C4F18091840090918500049680349C49A4
:1049F00008F47AC08091840090918500049676C076
:104A000080913604082E000C990B8C179D07C4F674
:104A1000E09136048E2FEE0F990BFC01EE0FFF1F75
:104A2000E80FF91FEF5EFB4F808186FFC9CFE09151
:104A300036048E2FEE0F990BFC01EE0FFF1FE80FCF
:104A4000F91FEF5EFB4F808160E08F730E94600270
:104A5000B7CF2091840030918500E09136048E2FED
:104A6000EE0F990BFC01EE0FFF1FE80FF91FEF5E31
:104A7000FB4F81819281820F931F909389008093D5
:104A80008800E09136048E2FEE0F990BFC01EE0F9B
:104A9000FF1FE80FF91FEF5EFB4F808186FF11C0FB
:104AA000E09136048E2FEE0F990BFC01EE0FFF1FE5
:104AB000E80FF91FEF5EFB4F808161E08F730E946A
:104AC0006002FF91EF91DF91CF91BF91AF919F91E4
:104AD0008F917F916F915F914F913F912F910F90A7
:104AE0000FBE0F901F90189580E49CE99093890069
:104AF000809388008FEF80933604E3CF1F920F924C
:104B00000FB60F9211242F933F934F935F936F93A0
:104B10007F938F939F93AF93BF93EF93FF93809176
:104B2000B900887F803609F44AC0F0F5883209F46C
:104B3000A7C018F5803109F49BC0B8F4882309F4A4
:104B4000F9C0883009F494C0FF91EF91BF91AF9103
:104B50009F918F917F916F915F914F913F912F9195
:104B60000F900FBE0F901F901895883109F488C0E0
:104B7000803251F78093B20414C0803409F49DC090
:104B800040F48033B9F38833F9F68093B20485ECAE
:104B9000B0C0803509F485C0883509F496C08834E2
:104BA00099F60E940417D0CF883909F48CC038F5E3
:104BB000883729F050F4883611F0803729F683E0E1
:104BC0008093B4041092100457C0883809F47BC055
:104BD000803919F0803809F0B7CF80911004803205
:104BE00008F071C0E091100481E08E0F80931004F2
:104BF0008091BB00F0E0E051FC4F80833DC0803BE2
:104C000039F0E0F4803A09F479C0883A09F09CCF91
:104C100084E08093B4041092ED031092EC03E091D1
:104C2000EA03F091EB0309958091EC0381110FC029
:104C300081E08093EC031092CA0309C0803C09F420
:104C4000A6CF883C09F4A3CF883B09F07DCFE09143
:104C5000ED0381E08E0F8093ED03F0E0E653FC4F0F
:104C600080818093BB009091ED038091EC0329C07B
:104C700080918F048093BB0085EC8093BC0064CF4F
:104C80009091B1048091B004981758F5E091B10467
:104C900081E08E0F8093B104F0E0E057FB4F8081FC
:104CA000E9CFE091B10481E08E0F8093B10480914F
:104CB000BB00F0E0E057FB4F80839091B1048091FE
:104CC000B0049817C8F285E8D8CFE091B10481E02C
:104CD0008E0F8093B1048091BB00F0E0E057FB4F52
:104CE00080838091B30481115CCF81E080938E0436
:104CF00084EA8093BC001092B40426CF85EC8093A4
:104D0000BC001092B40480911004803230F4E09121
:104D10001004F0E0E051FC4F10826091100470E04C
:104D2000E091EE03F091EF0380EF93E0099510928C
:104D300010040ACF1092B20434CF10921D061092C4
:104D40001C0688EE93E0A0E0B0E080931E069093EE
:104D50001F06A0932006B09321068FEA91E090935E
:104D60001B0680931A0685EC90E0909327068093AB
:104D7000260684EC90E0909329068093280680EC28
:104D800090E090932B0680932A0681EC90E090931C
:104D90002D0680932C0682EC90E090932F06809352
:104DA0002E0686EC90E090933106809330061092A8
:104DB0003306109234061092350610923606ACEF88
:104DC000B5E090E080E041E2FC013E9621E030E079
:104DD0008630910510F430E020E0E20FF31F40939D
:104DE0005700E491ED9301968930910569F710928F
:104DF00008061092070688EE93E0A0E0B0E08093EA
:104E0000090690930A06A0930B06B0930C0681EC5A
:104E100091E09093060680930506109215068FEF99
:104E200080931106809312068093130680931406D4
:104E300010921906109218061092AE071092AD0744
:104E40008AE196E09093A9078093A8071092DF0665
:104E50008CE28093AB078BE38093AA078FE2809369
:104E6000AC0780E68093DA068FE58093DB0610922C
:104E7000D9061092A4071092A3071092A6071092C9
:104E8000A50781E08093A107EFEAF7E085EF97E0BF
:104E9000119211928E179F07D9F71092DE0608958E
:104EA000789484B5826084BD84B5816084BD85B505
:104EB000826085BD85B5816085BD80916E00816011
:104EC00080936E00109281008091810082608093B7
:104ED00081008091810081608093810080918000B9
:104EE0008160809380008091B10084608093B100E4
:104EF0008091B00081608093B00080917A008460DE
:104F000080937A0080917A00826080937A00809109
:104F10007A00816080937A0080917A008068809323
:104F20007A001092C100E0912A06F0912B0682E0EF
:104F30008083E0912606F09127061082E0912806F2
:104F4000F091290680E1808310923206E0912E06CE
:104F5000F0912F0686E08083E0912C06F0912D06DB
:104F6000808180618083E0912C06F0912D06808104
:104F700088608083E0912C06F0912D068081806806
:104F80008083E0912C06F0912D0680818F7D8083B7
:104F900080E094E0909319068093180686E694E1E9
:104FA0009093AE078093AD0786EC9BE19093B0079A
:104FB0008093AF0781ED9AE19093B2078093B10798
:104FC00080EE9BE19093E4078093E30787E691E10D
:104FD0009093B4078093B3078DEC99E19093B60753
:104FE0008093B50784E791E19093DA078093D9071E
:104FF00087E891E19093DC078093DB078EE198E1ED
:105000009093EE078093ED078AED91E19093B807B6
:105010008093B70780E893E29093C2078093C1071B
:1050200085EC95E19093C8078093C7078AE292E2E6
:105030009093C6078093C50785E794E19093CA07CC
:105040008093C9078AE295E19093CC078093CB07C0
:1050500083EC91E29093D0078093CF078DEC92E29E
:105060009093D6078093D50780E793E29093D80773
:105070008093D7078EE690E19093DE078093DD075B
:105080008EEA92E19093E2078093E10787EC91E248
:105090009093E6078093E50781E08093DF060E9406
:1050A000A60F90E080E00E94F71200911806109180
:1050B0001906833299F40033110580F0F6E1EF2EE2
:1050C000F1E0FF2ED0E0C0E02196CE010E94902DAD
:1050D000D7018D937D01CF32D105B1F710923804FD
:1050E000109237048BE390E0EC0121960E94F712B6
:1050F000882309F409C180913704909138040196FE
:105100009093380480933704CE010C171D0760F785
:1051100067EB72E085E00E9442140E943E036093B8
:10512000690470936A0480936B0490936C040E94EA
:105130003E0360936D0470936E0480936F049093AC
:1051400070040E943E036E5F7F4F8F4F9F4F6093AE
:1051500071047093720480937304909374040E949A
:105160003E036C5F7F4F8F4F9F4F6093750470932A
:10517000760480937704909378040E943E036C5FDA
:105180007F4F8F4F9F4F6093790470937A04809381
:105190007B0490937C040E943E036A5F7F4F8F4F95
:1051A0009F4F60937D0470937E0480937F0490935F
:1051B00080040E943E03685F7F4F8F4F9F4F609334
:1051C0008104709382048093830490938404662402
:1051D0006394E0E0AE2EE0E0BE2E55245394772495
:1051E00073948091DE068111C9C08091A8079091C7
:1051F000A907DC01ED91FC910084F185E02D099572
:10520000892B09F4BBC08091A8079091A907DC0104
:10521000ED91FC910084F185E02D099570E6E72E73
:10522000F12C8036910564F48091A8079091A9072C
:10523000DC01ED91FC910084F185E02D09957C0164
:10524000C091A807D091A90760E4862E67E0962E4A
:10525000640110E000E0E016F10609F05AC0D0E069
:10526000C0E0EC16FD0609F4BCCFF40191914F01AA
:105270001092A0073091AC072091DD069093DD06D7
:10528000931304C0921302C01092DD068091D906D8
:10529000E82FF0E04091AA07E952F94F94135CC05F
:1052A000321709F459C01186882321F07092A007A3
:1052B0001092DD061092D9061092A4071092A3074F
:1052C0001092A6071092A5077092A1078091A007DF
:1052D000813009F051C00E9453118093D806833267
:1052E00008F044C02091A207222309F43FC0FC012A
:1052F000FF27EE0FFF1FE155F84F0190F081E02DE1
:105300003097A1F1099538C00E94351C0E94BD1547
:1053100004CF0E943E03688779878A879B87E8814C
:10532000F9810284F385E02DCE01099597FF78C1BC
:105330000E943E03288539854A855B85621B730B75
:10534000840B950B2C813D814E815F816217730721
:105350008407950720F383CF91878F5F8093D906C9
:105360009091DB06891708F0A5CFB0CFE091AD078B
:10537000F091AE07309731F6219673CFC0905E045E
:10538000D0905F04E0906004F0906104809162042A
:1053900081114CC10E943E036C197D098E099F0941
:1053A000613A7B4B8D40910508F450C050926204E5
:1053B000C0E080915D04C81788F4EC2FF0E0EE0F98
:1053C000FF1FE75CFB4F0190F081E02D118270E040
:1053D00060E080810E94BC02CF5FEBCF81E00E9441
:1053E000E21BC0E080916804C81780F5EC2FF0E064
:1053F000EE0FFF1FEC59FB4F0190F081E02D8281F1
:105400009381DC01ED91FC910190F081E02D0995F3
:10541000CF5FE8CF80E00E94E21BC0E0809168048B
:10542000C817A0F4EC2FF0E0EE0FFF1FEC59FB4F74
:105430000190F081E02D82819381DC01ED91FC915E
:105440000280F381E02D0995CF5FE8CF809163045E
:10545000882309F4D9C04AE069E674E082EE9EE050
:105460000E94C40A41E06DE674E084EF9CE00E9473
:10547000C40A912C80916804981608F0A2C0E92D06
:10548000F0E0EE0FFF1FEC59FB4FC081D1810A8184
:105490001B81F80184A195A1A6A1B7A1892B8A2B14
:1054A0008B2BE9F10E9419036B017C01F80180A5A7
:1054B00091A5A2A5B3A5B701A601481B590B6A0B7C
:1054C0007B0B84A195A1A6A1B7A1481759076A072C
:1054D0007B0728F184859585A685B78522812223BF
:1054E00009F46BC00196A11DB11D84879587A6871D
:1054F000B787D8011C964D915D916D917C911F9756
:10550000ED91FC910680F781E02DC8010995F80125
:10551000C0A6D1A6E2A6F3A6C8010E9472098C819A
:105520000E9444029D818917E9F08D8381111AC080
:1055300089818823B9F0EA81FB8114861586168655
:105540001786108A118A128A138A14AA15AA16AA13
:1055500017AA14A215A216A217A2148A158A168ACF
:10556000178A19828A819B814A852C85429FA001D6
:105570001124052E000C660B770B0E811F812885E8
:105580003985400F511F621F731FDC011C960D915E
:105590001D912D913C911F9740175107620773078A
:1055A00051F42B85222339F0ED91FC910190F0818B
:1055B000E02D09956D8693945DCF0197A109B109FE
:1055C00094CF45E061E774E086E29BE00E94C40A64
:1055D00042E369E774E087E69FE00E94C40A4AE07C
:1055E00065E774E083E59FE00E94C40A4AE06DE746
:1055F00074E089E590E10E94C40A4AE061E874E041
:1056000086EA9EE00E94C40AA114B10409F4E9CD1F
:105610000E94E403882309F4E4CD0E940000E1CD58
:10562000F60181936F010F5F1F4F15CE0E943E035D
:105630006C197D098E099F09603A7B4B8D4091055D
:1056400008F004CF10926204C0E080915D04C81796
:1056500008F0E0CEEC2FF0E0EE0FFF1FE75CFB4F11
:105660000190F081E02D618170E080810E94BC0298
:10567000CF5FEBCF8F929F92AF92BF92CF92DF928C
:10568000EF92FF92CF93DF93EC01688179818A8159
:105690009B81611571058105910521F464E279ED25
:1056A0008BE597E02DE133EF41E050E00E94A62D1D
:1056B00049015A019B01AC01A7EAB1E40E94C52D42
:1056C0006B017C01ACEEB4EFA50194010E94D32DD7
:1056D000C60ED71EE81EF91EF7FE06C081E0C81AE6
:1056E000D108E10880E8F80AC882D982EA82FB8200
:1056F000C701B6019F77DF91CF91FF90EF90DF90C8
:10570000CF90BF90AF909F908F9008958F929F926F
:10571000AF92BF92CF92DF92EF92FF9260914601DB
:10572000709147018091480190914901611571057F
:105730008105910521F464E279ED8BE597E02DE197
:1057400033EF41E050E00E94A62D49015A019B0130
:10575000AC01A7EAB1E40E94C52D6B017C01ACEE5F
:10576000B4EFA50194010E94D32DC60ED71EE81EEA
:10577000F91EF7FE06C081E0C81AD108E10880E8EA
:10578000F80AC0924601D0924701E0924801F09297
:105790004901C701B6019F77FF90EF90DF90CF904E
:1057A000BF90AF909F908F90089560934601709343
:1057B000470180934801909349010895FC0188278F
:1057C0009927E89421912032E9F3293010F02E3006
:1057D000C8F32B3241F02D3239F4689404C00E9492
:1057E000642C820F911D219120532A30C0F31EF4A6
:1057F000909581959F4F08951F93FC0199278827C5
:10580000BC01E89411911032E9F3193010F01E3008
:10581000C8F31B3251F01D3249F4689406C00E944F
:105820004F2C610F711D811D911D119110531A3064
:10583000B0F33EF490958095709561957F4F8F4FB2
:105840009F4F1F91089545EF57E00E94282C08951F
:10585000FA01A191B081009719F41097E1F0CD0100
:10586000DC01CD010D90002011F4C00113C0FB013B
:105870002191222319F02015D9F7F3CFFB012191B3
:10588000201519F41E92119606C02223C1F70D901F
:105890000020A1F7D001FA01A193B0830895592FF8
:1058A000482F372F262F660F771F881F991F660FE7
:1058B000771F881F991F620F731F841F951F660F24
:1058C000771F881F991F08957AE0979F902D879FD3
:1058D000802D910D112408950E94AE2C08F481E0D2
:1058E0000895E89409C097FB3EF4909580957095D3
:1058F00061957F4F8F4F9F4F9923A9F0F92F96E91C
:10590000BB279395F695879577956795B795F11190
:10591000F8CFFAF4BB0F11F460FF1BC06F5F7F4F2D
:105920008F4F9F4F16C0882311F096E911C077233F
:1059300021F09EE8872F762F05C0662371F096E848
:10594000862F70E060E02AF09A95660F771F881F17
:10595000DAF7880F9695879597F90895990F0008BB
:10596000550FAA0BE0E8FEEF16161706E807F90731
:10597000C0F012161306E407F50798F0621B730BCC
:10598000840B950B39F40A2661F0232B242B252B4D
:1059900021F408950A2609F4A140A6958FEF811DF0
:1059A000811D08950E94E52C0C94562D0E94482DCF
:1059B00038F00E944F2D20F0952311F00C943F2DCC
:1059C0000C94452D11240C948A2D0E94672D70F3A0
:1059D000959FC1F3950F50E0551F629FF001729F94
:1059E000BB27F00DB11D639FAA27F00DB11DAA1FA3
:1059F000649F6627B00DA11D661F829F2227B00DF0
:105A0000A11D621F739FB00DA11D621F839FA00D7A
:105A1000611D221F749F3327A00D611D231F849FCA
:105A2000600D211D822F762F6A2F11249F57504021
:105A30009AF0F1F088234AF0EE0FFF1FBB1F661F9C
:105A4000771F881F91505040A9F79E3F510580F065
:105A50000C943F2D0C948A2D5F3FE4F3983ED4F3D1
:105A6000869577956795B795F795E7959F5FC1F709
:105A7000FE2B880F911D9695879597F9089597F9B4
:105A80009F6780E870E060E008959FEF80EC0895E4
:105A900000240A941616170618060906089500240D
:105AA0000A9412161306140605060895092E039487
:105AB000000C11F4882352F0BB0F40F4BF2B11F4FB
:105AC00060FF04C06F5F7F4F8F4F9F4F089557FD5A
:105AD0009058440F551F59F05F3F71F04795880F5C
