:100000000C940D020C9435020C9435020C943502BC
:100010000C9435020C9435020C9435020C94350284
:100020000C9435020C9435020C945D260C94CC266D
:100030000C9435020C9435020C9435020C94350264
:100040000C9435020C94FE280C9435020C94350265
:100050000C9435020C9435020C9435020C94132642
:100060000C9435020C9435020C9435020C94350234
:100070000C9435020C9435020C9435020C94350224
:100080000C9435020C9435020C9435020C94350214
:100090000C94BA290C9435020C9435020C94350258
:1000A0000C9435020C9435020C9435026E2F6100CD
:1000B0004F4B004F4B004F4B00427574746F6E20D6
:1000C000646F6573206E6F742066697420696E209A
:1000D0004D656D6F7279004F757470757420646F23
:1000E0006573206E6F742066697420696E204D659B
:1000F0006D6F727900375365676D656E7420646F3C
:100100006573206E6F742066697420696E204D657A
:100110006D6F72792100536572766F20646F65731D
:10012000206E6F742066697420696E204D656D6F56
:10013000727921004C434420646F6573206E6F74A4
:100140002066697420696E204D656D6F727921009B
:10015000416E616C6F67496E20646F6573206E6FCE
:10016000742066697420696E204D656D6F72790028
:100170004F75747075745368696674657220646F26
:100180006573206E6F742066697420696E204D65FA
:100190006D6F727900496E70757453686966746525
:1001A0007220646F6573206E6F74206669742069B5
:1001B0006E204D656D6F727900446967496E4D75AB
:1001C0007820646F6573206E6F742066697420698F
:1001D0006E204D656D6F7279004661696C75726550
:1001E000206F6E2072656164696E6720636F6E6652
:1001F0006967004D6F6269466C69676874204D6974
:1002000063726F00070605040100080A0B0C0D0954
:10021000456E636F6465727320646F6573206E6FE3
:10022000742066697420696E204D656D6F72790067
:100230007E306D79335B5F707F7B771F0D3D4F475D
:1002400000000000000000000000000000000000AE
:100250000000000000000000000000008001802578
:100260007E306D79335B5F707F7B0000000900009A
:1002700000777F4E7E4F475F37307C000E00767EE2
:10028000677E775B463E000000336D4E13780008B2
:10029000007D1F0D3D4F477B373038000600151D90
:1002A0006773055B0F1C000000276D4E007800008F
:1002B0004D465374657070657220646F6573206E6F
:1002C0006F742066697420696E204D656D6F727958
:1002D000005374657070657220646F6573206E6F73
:1002E000742066697420696E204D656D6F72792186
:1002F00000446576696365427566666572204F766F
:100300006572666C6F772100080B00020202000024
:100310000904000001020200000524001001052468
:1003200001010104240206052406000107058103DA
:1003300010004009040100020A0000000705020243
:100340004000000705830240000004030904120175
:100350000002EF0201404F1B06920001010203015F
:10036000537061726B46756E00537061726B4675A7
:100370006E2050726F204D6963726F004C6F616424
:10038000696E6720636F6E666967206661696C6578
:1003900064000000000200090F0000030401000CCB
:1003A000000000000000000000000000000000004D
:1003B00000000000240027002A002D00300000006B
:1003C0000000250028002B002E0031000000000056
:1003D0002300260029002C002F0004040404040339
:1003E00004050202020204030202020206060606D5
:1003F00006060404020202040404080201104080FC
:1004000040102040804080080204018040201002FB
:1004100001108010204040200C2B11241FBECFEF74
:10042000DAE0DEBFCDBF12E0A0E0B1E0E0EEFDE635
:1004300002C005900D92A631B107D9F728E0A6E1D8
:10044000B2E001C01D92A43BB207E1F712E0CDE09B
:10045000D2E004C02197FE010E94C432CC30D10703
:10046000C9F70E94992B0C94EE360C940000AC0155
:10047000109299079091690880916808FA01BF016C
:10048000641B750B20919907308130939907931362
:1004900004C0921302C0109299073081311104C038
:1004A000921721F0CB0108953817D1F33196E7CF99
:1004B0000F931F93CF93DF9380915D08882309F4F6
:1004C00046C0D0E0C0E0813029F482E080935D082E
:1004D000CDE9D7E080915E08882341F1209721F48F
:1004E000C0916208D09163088E01CE010E9437024C
:1004F000892B29F42196F80180818111F5CFF8012B
:100500008081882309F1C8010E943702F801E80FB1
:10051000F91F8081882311F010823196F0936308CF
:10052000E09362081093610800936008809160086E
:1005300090916108892B59F081E080935E08DF91EA
:10054000CF911F910F91089510E000E0EBCF80E074
:10055000F6CF0E945802882351F081E080935E0814
:1005600080935F08809160089091610808951092CF
:100570005F0890E080E00895FC0180911D058823CC
:1005800011F13FB7F89482E08093E9002091F200E6
:10059000822F90E01816190614F481E090E0882369
:1005A00039F0289844E640931C054091F1004083BF
:1005B000222339F02091F200211103C02BE6209371
:1005C000E8003FBF08958FEF9FEF08952FB7F8948D
:1005D00083E08093E9009091E800892F807295FF75
:1005E00004C09091F20080E4891B2FBF0895809190
:1005F000140581110DC082E08093100584E0809382
:100600001105109213051092120581E080931405D4
:1006100080E195E0089590E0FC01E750FC4F2491C3
:10062000FC01E652FC4FE491EE2371F0F0E0EE0F96
:10063000FF1FE453FC4FA591B491EC91E22381E0BC
:1006400090E021F480E0089580E090E0089590E04B
:10065000FC01E750FC4F2491FC01E652FC4FE49171
:10066000EE2389F0F0E0EE0FFF1FE254FC4FA5915E
:10067000B4918FB7F894611107C09C91E22FE09577
:10068000E923EC938FBF0895EC91E22BFACFCF933F
:10069000DF9390E0FC01E750FC4F249186529C4F81
:1006A000FC0184918823C9F090E0880F991FFC0118
:1006B000E055FC4FA591B491FC01E254FC4FC5916B
:1006C000D49161110DC09FB7F8948C91209582232D
:1006D0008C938881282328839FBFDF91CF91089531
:1006E000623051F49FB7F8943C91822F8095832318
:1006F0008C93E8812E2BEFCF8FB7F894EC912E2BB3
:100700002C938FBFEACF1F93CF93DF93182FEB016A
:1007100061E00E944703209739F460E0812FDF9168
:10072000CF911F910C942703CF3FD10511F461E0C5
:10073000F5CFE12FF0E0EE56FC4FE491E150EF30C1
:1007400008F07FC0F0E0E955FC4F0C94C432B603CA
:10075000BE03C303CD03D703210421042104E10315
:10076000EB03F503FF030C042104140484B5806833
:1007700084BDC7BDDF91CF911F91089584B580627C
:1007800084BDC8BDF7CF80918000806880938000D1
:10079000D0938900C0938800EDCF80918000806263
:1007A00080938000D0938B00C0938A00E3CF809128
:1007B0008000886080938000D0938D00C0938C006F
:1007C000D9CF80919000806880939000D093990059
:1007D000C0939800CFCF809190008062809390006A
:1007E000D0939B00C0939A00C5CF80919000886001
:1007F00080939000D0939D00C0939C00BBCF8091CC
:10080000C00080688093C0008091C0008F7B80937F
:10081000C000C093CF00AECF8091C00080628093B3
:10082000C000C093D000A6CF8091C20088608093A2
:10083000C2008091C2008B7F8093C200C093D2001F
:1008400099CFC038D1050CF072CF67CF3FB7F8947D
:1008500080910C0590910D05A0910E05B0910F05AA
:1008600026B5A89B05C02F3F19F00196A11DB11D0B
:100870003FBFBA2FA92F982F8827BC01CD01620F47
:10088000711D811D911D42E0660F771F881F991F02
:100890004A95D1F708958F929F92AF92BF92CF92CF
:1008A000DF92EF92FF924B015C010E9426046B01E4
:1008B0007C010E9426046C197D098E099F09683EFF
:1008C000734081059105A8F321E0821A9108A108DF
:1008D000B10888EEC80E83E0D81EE11CF11C81141B
:1008E0009104A104B10429F7FF90EF90DF90CF901D
:1008F000BF90AF909F908F9008952FB7F89460911C
:1009000008057091090580910A0590910B052FBF8C
:1009100008954091B1045091B2042091AF043091F8
:10092000B00442175307B4F49091E8009570E1F3D6
:100930009091E80092FD19C08093F1008091B1047C
:100940009091B20401968F739927892B19F48EEF39
:100950008093E8008091B1049091B2040196909345
:10096000B2048093B10481E0089580E00895DF929D
:10097000EF92FF920F931F93CF93DF93D82E8A01AC
:10098000EB017B01E40EF51ECE15DF0559F0D7FE15
:1009900012C0FE0184910E94890421968111F4CF36
:1009A0000FEF1FEFC801DF91CF911F910F91FF90C3
:1009B000EF90DF9008958881EECF0F931F93CF9330
:1009C000DF931F92CDB7DEB782E0898342E450E027
:1009D00068E073E080E80E94B7040E94F702DC013F
:1009E00012960D911C910115110589F0D801ED9118
:1009F000FC910280F381E02DBE016F5F7F4FC80143
:100A0000099597FD04C0F80100851185ECCF898117
:100A10000F90DF91CF911F910F910895615030F0A9
:100A20002091F100FC0120830196F8CF289884E6FC
:100A300080931C050895DC01ED91FC910190F081FB
:100A4000E02D0994EF92FF920F931F93CF93DF93C2
:100A50008C017B01D0E0C0E0F701EC0FFD1F649139
:100A6000662361F0D801ED91FC910190F081E02DB9
:100A7000C8010995892B11F02196EECFCE01DF91A7
:100A8000CF911F910F91FF90EF900895AF92BF9279
:100A9000CF92DF92EF92FF920F931F93CF93DF934A
:100AA0006C017B018B01040F151FEB015E01AE1879
:100AB000BF08C017D10759F06991D601ED91FC919B
:100AC0000190F081E02DC6010995892B79F7C501C8
:100AD000DF91CF911F910F91FF90EF90DF90CF901A
:100AE000BF90AF9008958F929F92AF92BF92CF9296
:100AF000DF92EF92FF920F931F93CF93DF936C01DE
:100B00007B018A0180912101882309F45CC08091D6
:100B10001D05882309F457C08091B50480FF05C0E6
:100B20008091E00082608093E000E801B12C8AEFC0
:100B3000A82E93E0892E2AE3922E209711F4BB2051
:100B4000D9F10E94E60281110AC0AA94AA20D9F123
:100B500061E070E080E090E00E944B04EECF8C17E3
:100B60001D0611F00CF08C2F9FB7F8948092E900CD
:100B70002091E80025FD02C09FBFDFCF282F30E085
:100B8000C21BD30BF701815020F041914093F1003B
:100B9000FACFE20EF31EBB2021F09092E800B12CB8
:100BA000EBCF8091E80085FDE7CF9092E800BB2471
:100BB000B394209709F3F3CF5D9884E68093B4044F
:100BC000101611063CF081E090E0F60193838283D9
:100BD00010E000E0C801DF91CF911F910F91FF90CD
:100BE000EF90DF90CF90BF90AF909F908F9008953F
:100BF000CF93DF931F92CDB7DEB76983DC01ED9110
:100C0000FC910280F381E02D41E050E0BE016F5F76
:100C10007F4F09950F90DF91CF91089583E08093E6
:100C2000E9008091F200882319F08AE38093E800BC
:100C300008950E94E60290E00895CF93DF931F92FB
:100C4000CDB7DEB7FC018485958597FD08C02FEFF1
:100C50003FEF358724870F90DF91CF910895CE0124
:100C600001960E94BC02019719F4898190E0F3CFAC
:100C70008FEF9FEFF0CF0F931F93CF93DF931F92D0
:100C8000CDB7DEB78C01FC018485958597FF0BC03D
:100C9000CE0101960E94BC02019771F4898190E017
:100CA000F80195878487F801848595850F90DF91F9
:100CB000CF911F910F9108958FEF9FEFF1CFFC011E
:100CC0008485958597FD0BC09FB7F89482E080934B
:100CD000E9008091F2009FBF90E0019608959FB7D0
:100CE000F89482E08093E9008091F2009FBF90E049
:100CF0000895089520916404260F3327331F21326D
:100D00003105ECF420914405FC0190E080E02430B2
:100D100069F082E00895A09164042191AC014E5BDA
:100D20005B4FA40FB52FB11D2C930196861798F336
:100D300080916404680F6093640480E0089581E00A
:100D400008951092440581E08093430510921E059A
:100D500061E082E00E94270361E083E00E942703B4
:100D6000E9EBF0E080818E7F808380818D7F8083BE
:100D700088E48093B80085E48093BC000895CF9305
:100D8000DF9391E0909341048823B9F0C091B800BB
:100D9000D091BA008091BC008A7B8093BC0060E057
:100DA00082E00E94270360E083E00E9427030E9404
:100DB000A106D093BA00C093B800DF91CF910895F7
:100DC0008F929F92AF92BF92CF92DF92EF92FF925B
:100DD0000F931F93CF93DF93D0916D05D13208F01D
:100DE000D7C0182FC0916C050E9426046B017C01AE
:100DF0008091440581116BC082E08093440510937B
:100E000043058FEF8093420510924105D093400532
:100E1000ACE4B5E0E0E2F5E080E0D81391C01092D8
:100E20001F0580911F05CC0FC82BC0931F05809113
:100E30001E05813009F088C010921E050E9426040C
:100E40006B017C0180911F058093BB00809146055A
:100E500090914705A0914805B0914905892B8A2BAF
:100E60008B2BA1F00E9426040091460510914705A6
:100E700020914805309149056C197D098E099F091B
:100E8000061717072807390708F442C08091BC00ED
:100E900083FDD8CF85EC8093BC000E9426046B01B3
:100EA0007C0180914405823009F450C08091420554
:100EB0008F3F09F46FC080914205803209F46CC005
:100EC00080914205803309F469C084E026C0809196
:100ED000460590914705A0914805B0914905892B99
:100EE0008A2B8B2B09F484CF0E9426048090460520
:100EF00090904705A0904805B09049056C197D0970
:100F00008E099F0986169706A806B90608F070CFC5
:100F1000809145050E94BF0685E010924B05109216
:100F20006D0510924A05DF91CF911F910F91FF90AF
:100F3000EF90DF90CF90BF90AF909F908F900895EB
:100F40009D9191938F5F69CF85EEA5CF80914605E6
:100F500090914705A0914805B0914905892B8A2BAE
:100F60008B2B09F49ECF0E94260400914605109118
:100F7000470520914805309149056C197D098E0976
:100F80009F09061717072807390708F08ACFC0CF2F
:100F900081E0C3CF80E0C1CF82E0BFCF83E0BDCF8F
:100FA00081E00C94E006089508950895E0914004CE
:100FB00080913F04E81730F4F0E0E15EFB4F808160
:100FC00090E008958FEF9FEF0895909140048091F5
:100FD0003F042FEF3FEF981748F4E92FF0E0E15E70
:100FE000FB4F208130E09F5F90934004C90108953A
:100FF00080913F0490914004891B990B0895CF92F2
:10100000DF92EF92FF920F931F93CF93DF937C01B8
:10101000CB018A0120914A05222389F0EB016B0163
:10102000C40ED51ECC15DD0569F06991D701ED918F
:10103000FC910190F081E02DC7010995F3CF642F59
:101040000E947A06C801DF91CF911F910F91FF9006
:10105000EF90DF90CF900895CF93DF931F92CDB79D
:10106000DEB7698320914A052223F9F020916D05AE
:10107000203258F021E030E0FC013383228390E0FD
:1010800080E00F90DF91CF91089580914B05E82F7C
:10109000F0E0E45BFA4F998190838F5F80934B057A
:1010A00080936D0581E090E0ECCF61E0CE01019688
:1010B0000E947A06F7CFCF93C82F682F64608FE223
:1010C00097E00E942C086C2F70E06B7F8FE297E016
:1010D000CF910C942C080F931F93CF93DF938C0127
:1010E000C62FD42FFC01848191E090934A05809310
:1010F0006C0510924B0510926D05862F807F842B16
:101100009585892B0E945B08F0E1CF9FC0011124D7
:10111000F8019585892B8D2B0E945B08DF91CF917B
:101120001F910F910C94D007CF93DF93CDB7DEB70B
:1011300028970FB6F894DEBF0FBECDBF28E0E6E5D6
:10114000F1E0DE01119601900D922A95E1F7FC0184
:101150002385241710F44FEF420F50E0440F551F22
:1011600021E030E02C0F3D1F420F531FFA01208178
:10117000620F606840E028960FB6F894DEBF0FBE9D
:10118000CDBFDF91CF910C946B08CF93DF93EC012F
:1011900040E061E00E946B088BE39FE10197F1F76B
:1011A0008985882339F040E060E0CE01DF91CF915E
:1011B0000C949408DF91CF91089541E00E946B0850
:1011C00081E090E00895FC01248131E030934A05EC
:1011D00020936C0510924B0510926D05607F8585FC
:1011E000862B0E945B080C94D007AF92BF92CF92DF
:1011F000DF92EF92FF920F931F93CF93DF936C01D7
:10120000FC01848191E090934A0580936C051092D3
:101210004B0510926D05EB01042F10E05B01A00E51
:10122000B11EF12CEE24E394CA15DB0541F189913E
:10123000F60195859160807F892B0E945B08FE01F5
:1012400031972081F0E12F0290011124F60185856C
:101250008160822B0E945B08F394F7E0FF1520F772
:1012600080E00E94E006F6018481E0924A058093C6
:101270006C0510924B0510926D05F12CD5CF0E9494
:10128000D007C8010197DF91CF911F910F91FF9077
:10129000EF90DF90CF90BF90AF90089590E080E006
:1012A0000895CF93DF93FC012381222359F1EC01B0
:1012B00061E084810E94470361E08D810E944703C1
:1012C0008B81843011F08830B1F461E08E810E940E
:1012D000470361E08F810E9447038FA58F3F91F004
:1012E00061E00E9447036EA581E068278FA5DF912A
:1012F000CF910C942703833011F0863071F761E0B1
:101300008E81E9CFDF91CF910895CF93DF93FC01D8
:1013100023812223A9F0EC010190F081E02D0480CB
:10132000F581E02D60E009958FA58F3F49F061E0E0
:101330000E9447036EA58FA5DF91CF910C942703E0
:10134000DF91CF910895DC01ED91FC9124813581ED
:101350004770552766277727415051096109710960
:10136000473051056105710560F4FA01E654F64F06
:101370000C94C432C409C609C809CA09CC09CE09EB
:10138000D00961E0F901099465E0FCCF64E0FACF8F
:1013900066E0F8CF62E0F6CF6AE0F4CF68E0F2CF23
:1013A00069E0F0CFCF93DF93EC01CB01BA0126E0E7
:1013B00030E040E050E00E940E326230710581055D
:1013C000910589F16CF46115710581059105D1F0E4
:1013D0006130710581059105F9F0DF91CF91089594
:1013E000643071058105910561F124F16530710565
:1013F0008105910591F7E881F9810480F581E02D5F
:1014000066E006C0E881F9810480F581E02D64E0A2
:10141000CE01DF91CF910994E881F9810480F581B3
:10142000E02D65E0F5CFE881F9810480F581E02DBC
:1014300061E0EECFE881F9810480F581E02D63E081
:10144000E7CFE881F9810480F581E02D62E0E0CF0B
:10145000DC01ED91FC910480F581E02D437055276E
:1014600066277727423051056105710571F04330D9
:1014700051056105710559F041305105610571054E
:1014800011F065E0099466E0FDCF6AE0FBCF69E00A
:10149000F9CFCF93DF93EC01CB01BA0123E030E029
:1014A00040E050E00E940E326130710581059105E7
:1014B00099F06230710581059105A9F0672B682BC1
:1014C000692BC1F4E881F9810480F581E02D64E0A5
:1014D000CE01DF91CF910994E881F9810480F581F3
:1014E000E02D61E0F5CFE881F9810480F581E02D00
:1014F00062E0EECFDF91CF910895DC01ED91FC9198
:101500000480F581E02D4370552766277727423008
:1015100051056105710571F0433051056105710593
:1015200059F0413051056105710511F062E00994EF
:1015300063E0FDCF61E0FBCF60E0F9CFCF93DF93B5
:10154000EC01E881F9810480F581E02D8A8160E079
:10155000811162E0CE010995E881F9810480F5816D
:10156000E02D8A8161E0811163E0CE0109958CA5AF
:101570009DA58230910538F0880F991F880F991F1B
:1015800005970197F1F7E881F9810480F581E02D55
:101590008A8160E0811162E0CE01DF91CF910994F0
:1015A000CF93DF93EC0120E030E0A9016C897D89C5
:1015B0008E899F890E94DF3318162CF4E8A9F9A9B7
:1015C000DF91CF910994EAA9FBA9FACFCF92DF92DC
:1015D000EF92FF920F931F93CF93DF93DC0113964B
:1015E000CC91C43039F0C83059F1C33019F0C6304D
:1015F00049F1C2E08C010C5F1F4FF12CE12CC62E8B
:10160000D12CD1E0F8016481C6010E2C02C0959561
:1016100087950A94E2F780FD6D270F5F1F4F808149
:101620000E942703BFEFEB1AFB0AEC1658F3DF9179
:10163000CF911F910F91FF90EF90DF90CF90089581
:10164000C4E0D8CFC3E0D6CFDC011396EC9113975A
:10165000E93008F038C0F0E0E05DF44F0C94C4329B
:10166000390B3F0B450B4B0B510B630B570B630BAC
:101670005D0BED91FC910084F185E02D0994ED91D5
:10168000FC910284F385E02DF9CFED91FC91048467
:10169000F585E02DF3CFED91FC910684F785E02DE3
:1016A000EDCFED91FC910088F189E02DE7CFED9130
:1016B000FC910288F389E02DE1CFED91FC91048843
:1016C000F589E02DDBCF08954F925F926F927F9264
:1016D0008F929F92AF92BF92CF92DF92EF92FF9242
:1016E0000F931F93CF93DF93EC01C888D988EA88C2
:1016F000FB888C859D85AE85BF85C81AD90AEA0A04
:10170000FB0A6C897D898E899F899B01AC010E94AF
:101710003A314B015C016C8D7D8D8E8D9F8D9B01CF
:10172000AC010E94CB329B01AC01C501B4010E9407
:1017300037330E94A933C114D104E104F10409F044
:10174000B1C062307105810591050CF0CBC01CA2BF
:101750001DA21EA21FA21C8A1D8A1E8A1F8A1CAAE5
:101760001DAA1EAA1FAADF91CF911F910F91FF9072
:10177000EF90DF90CF90BF90AF909F908F907F9031
:101780006F905F904F900895101611061206130681
:10179000B4F46C157D058E059F051CF42A8121117A
:1017A000A1C09B01AC0188279927DC01821B930B08
:1017B000A40BB50B8CAB9DABAEABBFAB93C001150F
:1017C00011052105310509F48DC06C157D058E05C7
:1017D0009F050CF087C08A81882309F483C0309567
:1017E0002095109501951F4F2F4F3F4F0CAB1DAB10
:1017F0002EAB3FAB77C0011511052105310509F46A
:1018000071C08824992454018C189D08AE08BF0823
:10181000681579058A059B050CF064C08A818111E1
:1018200061C0DDCFCCACDDACEEACFFACA701960166
:10183000C701B6010E94CB322B013C01C501B401A6
:101840000E94DB3020E030E040E850E40E943A3172
:1018500020E030E040E85FE30E94CB329B01AC0126
:10186000C301B2010E9437339B01AC01C701B6012D
:101870000E94CA323B016C01FE01E05CFF4FE08038
:10188000F180028113819701A8010E94DF331816AD
:1018900014F473018601C701D8018CAF9DAFAEAFC0
:1018A000BFAF3AC00CA91DA92EA93FA91C141D0445
:1018B0001E041F040CF468CF10161106120613063E
:1018C0000CF099CF0027112798010C191D092E093A
:1018D0003F0960177107820793070CF062CF2A81D6
:1018E00021115FCF8CA89DA8AEA8BFA88114910438
:1018F000A104B10409F096CF88AD99ADAAADBBADF6
:101900008CAF9DAFAEAFBFAF81E01C141D041E04B1
:101910001F040CF080E08A833FEF831A930AA30A26
:10192000B30A8CAA9DAAAEAABFAACCACDDACEEAC21
:10193000FFACC701B6010E94B0336CA37DA38EA398
:101940009FA3A701960160E074E284E799E40E94F6
:1019500037336C8B7D8B8E8B9F8B2A81211103CF2C
:1019600090586C8B7D8B8E8B9F8BFDCE8F929F9230
:10197000AF92BF92EF92FF920F931F93CF937C0190
:101980008B01C42F0E947D04F80180809180A28089
:10199000B380DC01CB0188199909AA09BB094C2F36
:1019A00050E070E060E084179507A607B70748F09D
:1019B000F70109950E947D04F80160837183828399
:1019C0009383CF911F910F91FF90EF90BF90AF90B5
:1019D0009F908F90089520911D0430911E04280F30
:1019E000311D81E02139314008F080E00895FC018B
:1019F00084818823E1F08181811119C081E0818394
:101A000082819381FC0140895189628973894036C2
:101A100059476E4F7F4F59F040E659E76EEF7FEF21
:101A2000FC01408B518B628B738B0C94640B08957B
:101A30004F925F926F927F928F929F92AF92BF92DE
:101A4000DF92EF92FF920F931F93CF93DF93D12CEE
:101A500008E810E0B8E5EB2EB2E0FB2EC4EB4C2E0C
:101A6000512C612C712C80918C02D81608F096C0F4
:101A7000ED2DF0E0EE0FFF1FEA57FD4FC081D18141
:101A800089899A89AB89BC894D855E856F857889FE
:101A900084179507A607B70709F47AC048175907AE
:101AA0006A077B070CF076C00197A109B109898B01
:101AB0009A8BAB8BBC8BA989BA89A03282E0B8071C
:101AC000ACF52B854801821A910827FD9394880C68
:101AD000991C880C991C092C000CAA08BB082C85A1
:101AE000C701821B910927FD93959C01220F331F8B
:101AF000220F331F032E000C440B550B28193909F4
:101B00004A095B09A53BB10514F0A4EBB0E0B7FFAF
:101B100002C0B0E0A0E00E943832A30192010E940E
:101B20000E32820E931EA41EB51ED401EA85EC303F
:101B300078F52B85C801821B910927FD93959C019F
:101B4000220F331F220F331FA217B3077CF02C85FF
:101B5000C701821B910927FD93959C01220F331F1A
:101B6000220F331FA217B3070CF49D012250310935
:101B7000220F331F4FB7F8948E2F90E0FC01EE0F29
:101B8000FF1FE80FF91FE757FB4F328321834FBF39
:101B9000D39469CF0196A11DB11D89CFDF91CF915B
:101BA0001F910F91FF90EF90DF90BF90AF909F90AB
:101BB0008F907F906F905F904F9008958BE891E0A9
:101BC0000197F1F70895EF92FF920F931F93CF9330
:101BD000DF93EC01162FE42EFF24F394442311F03D
:101BE00080E8F82E08E061E089810E9447030E94A6
:101BF000DE0D61E08F2D812309F060E088810E9475
:101C000047030E94DE0D60E089810E9447030E9425
:101C1000DE0DEE2081F1110F015029F761E089817D
:101C20000E94470360E088810E9447030E94DE0D06
:101C300060E089810E9447030E94DE0D88810E9436
:101C40000B03182F811104C061E088810E944703B3
:101C50000E94DE0D61E089810E9447030E94DE0D33
:101C600081E0111101C080E0DF91CF911F910F91B0
:101C7000FF90EF9008951695CFCFCF93DF93EC01AF
:101C800061E088810E9447030E94DE0D60E0898147
:101C90000E9447030E94DE0D60E088810E94470396
:101CA000DF91CF910C94DE0D61E0FC0180810E94F8
:101CB00047030C94DE0DAF92BF92CF92DF92EF926A
:101CC000FF920F931F93CF93DF93EC01162F042FF6
:101CD000AB880E94540E40E060E4CE010E94E30D08
:101CE000CE010E943D0E10958B89180FC02ED12C6D
:101CF000E12EF12C84E0B12EA81631F0F601EE0DA4
:101D0000FF1DEA56FE4FB080CE010E94540E60ECDB
:101D10006B0D40E0CE010E94E30D8B89CE0CDF1CE1
:101D20008C151D0414F4082F011B10E0DD24DA9437
:101D3000D00EEC0EFD1E011781F084E0ED2DE11BAD
:101D4000A81201C0E12FEE0DFF2DF11D41E06381CE
:101D5000CE010E94E30D1F5FEECFCE01DF91CF9148
:101D60001F910F91FF90EF90DF90CF90BF90AF90B9
:101D70000C943D0EEF92FF921F93CF93DF93EC01F3
:101D8000162F8C8180FF10C0603170F46D837E014E
:101D900084E0E80EF11C612F617089910E94270395
:101DA0001695EC16FD06B9F7DF91CF911F91FF90C4
:101DB000EF900895DC01842FE0917902F0917A028E
:101DC000309719F04D915C91099408954F925F926C
:101DD0006F927F928F929F92AF92BF92CF92DF923B
:101DE000FF920F931F93CF93DF93F12C8091730297
:101DF000F81608F0EEC0EF2DF0E0EE0FFF1FEF59E0
:101E0000FD4FC081D1818A81882309F4B3C08881C4
:101E10000E940B038C0189810E940B036C010E94BC
:101E20007D044B015C0181E090E0CD2811F090E051
:101E300080E0880F991F21E0012B09F020E0922F0C
:101E4000982B4B8D5C8D6D8D7E8D95018401041BCF
:101E5000150B260B370BB901A80145365105610555
:101E6000710508F489C08885823008F485C08B8E9E
:101E70009C8EAD8EBE8E81508887EE859E1709F4AC
:101E800045C0888503E310E0873010F401E010E0DE
:101E90006D8524E0E202F0011124492F092E000C87
:101EA000550BE42BF52BE957FE4F70817003900121
:101EB000719F300D1124062E02C0220F331F0A9489
:101EC000E2F7EF85F8892E0F3F1F388B2F874C0FD5
:101ED0005D1FFA0141854423C1F04B885C886D8801
:101EE0007E884F8A588E698E7A8E8B8A9C8AAD8ABC
:101EF000BE8A02C0359527956A95E2F73A8B298B01
:101F00008C3008F08BE08F5F88879E8709891A895B
:101F10008D819E810817190769F19801281B390BDB
:101F2000C901E0915F02F09160026901CC0CDD1CF7
:101F3000309709F44BC04B815C812F5C3F4F2336B7
:101F40003105E0F597FD30C0688180E00995C00E4D
:101F5000D11E31E4C3163FE1D30654F08F85988932
:101F600083709927988B8F871A8A198A10E000E06E
:101F70001E830D83F3943ACF4F89588D698D7A8DE6
:101F800095018401041B150B260B370BB901A80121
:101F9000453F51406105710508F46FCF8B8E9C8ED3
:101FA000AD8EBE8E188669CF698182E00995C80121
:101FB0008C199D09803C904E8CF2DACF97FD03C0BE
:101FC000688181E0C3CF698183E0F0CF37FDEFCF37
:101FD000BECFDF91CF911F910F91FF90DF90CF90F7
:101FE000BF90AF909F908F907F906F905F904F9039
:101FF0000895CF92DF92EF92FF920F931F93CF93AA
:10200000DF936C017A0180915D0290915E02892BD1
:1020100031F1D60113968C9100E181FD08E0EB01CE
:10202000CE25DF2510E0C0FF13C080915D029091A6
:102030005E02892B69F0E0915B02F0915C023097BF
:1020400039F0D6014D915C91612F8E2D81700995EB
:10205000D695C795F694E7941F5F0113E4CFDF91FF
:10206000CF911F910F91FF90EF90DF90CF90089547
:10207000AF92BF92CF92DF92EF92FF920F931F9396
:10208000CF93DF931F92CDB7DEB7C0905D02D090A3
:102090005E02C114D10409F43FC0FC01238130E188
:1020A000B32E21FF02C028E0B22EA62E8C01F6012D
:1020B00085818683F12CE12CBA946B2DC6010E9498
:1020C000BA0EF80182810E940B038983F801828194
:1020D0000E940B038983EE0CFF1C298181E090E0B4
:1020E000211102C090E080E0E82AF92AB110E4CF83
:1020F000F6016681C6010E94BA0EF80164817581FD
:102100006E157F0549F0AA2021F0A701C8010E94A1
:10211000F90FF801F582E4820F90DF91CF911F91C2
:102120000F91FF90EF90DF90CF90BF90AF90089508
:10213000CF93C0E080915A02C81768F4EC2FF0E00A
:10214000EE0FFF1FEC5AFD4F61E0808191810E94EC
:102150003810CF5FEFCFCF910895DC01E0915202AC
:10216000F0915302309761F013968C911397882366
:1021700039F04D915C91119712966C9181E0099420
:102180000895DC01E0915202F0915302309759F02A
:1021900013968C911397811106C04D915C91119704
:1021A00012966C91099408951F93CF93DF9310E0DA
:1021B000809151021817F0F4E12FF0E0EE0FFF1FAD
:1021C000E35DFD4FC081D1818A810E940B039B8119
:1021D000891751F091E0811101C090E09B8381113A
:1021E00005C0CE010E94C1101F5FE2CFCE010E9448
:1021F000AD10FACFDF91CF911F910895DC01589671
:10220000EC915897F0E03396EE0FFF1FE80FF91F9F
:1022100056968D919C91579720813181821B930B0B
:1022200057969C938E9356971296EC911297E231A3
:1022300008F0E251F0E0EC5FFD4FE49190917B00FB
:102240008E2F880F880F80729F7D892B80937B0053
:10225000E770E064E0937C0080917A008064809372
:102260007A0080917A0086FDFCCF90917800809171
:1022700079005896EC915897F0E03396EE0FFF1FD7
:10228000EA0FFB1F89279827892791838083589617
:10229000EC915897F0E03396EE0FFF1FEA0FFB1F0B
:1022A00056968D919C91579720813181820F931F73
:1022B00057969C938E93569758968C9158978F5F0C
:1022C00058968C93589758968C9158978770589633
:1022D0008C930895CF93C0E080912C02C81760F4CE
:1022E000EC2FF0E0EE0FFF1FE65EFD4F8081918145
:1022F0000E94FE10CF5FF0CFCF910895CF93C0E042
:1023000080912C02C817B8F5EC2FF0E0EE0FFF1FFC
:10231000E65EFD4FA081B18156968D919C915797B5
:1023200023E0969587952A95E1F713962D913C9198
:102330001497AC01421B530B9A0157FF03C0319510
:102340002195310915964C9115974217130609F0FE
:1023500084F414969C938E931397E0911802F09155
:102360001902309731F04D915C91119712966C9152
:102370000995CF5FC5CFCF9108950E947D046093EA
:10238000DE047093DF048093E0049093E1040895E9
:10239000BF92CF92DF92EF92FF920F931F93CF9352
:1023A000DF93EC0160E088810E942703FB800F2D02
:1023B00010E00C5F1F4F0C0F1D1FFF20E1F0F80114
:1023C000D2908F01C980BA8088E0E82E6D2D661FFB
:1023D0006627661F8B2D0E942703DD0C61E08C2D84
:1023E0000E94270360E08C2D0E942703EA94E110ED
:1023F000EDCFFA94E2CF61E08881DF91CF911F9118
:102400000F91FF90EF90DF90CF90BF900C94270337
:102410009F92AF92BF92CF92DF92EF92FF920F9373
:102420001F93CF93DF93EC01C62E61E08B810E9456
:10243000270361E08A810E94270310E08D8118172D
:1024400008F03FC0DB80BC8087E0E82EF12C00E084
:1024500061E08D2D0E9427038B2D0E940B030E2C13
:1024600001C0880F0A94EAF7082B60E08D2D0E94C6
:10247000270381E0E81AF10858F75E01A10EB11CAC
:10248000F501D780D016D9F0CC20B9F0912E990C57
:10249000990C990CE02EF12C8D2D8E2580FF07C014
:1024A0004E2D4170692D6F0DCE010E94DA0ED6942B
:1024B000E694F394F8E0FF12EFCFF50107831F5F76
:1024C000BDCF60E08A81DF91CF911F910F91FF9086
:1024D000EF90DF90CF90BF90AF909F900C94270328
:1024E000CF93C0E080917802C81768F4EC2FF0E039
:1024F000EE0FFF1FEC58FD4F61E0808191810E943B
:102500000812CF5FEFCFCF9108957F928F929F9265
:10251000AF92BF92CF92DF92EF92FF920F931F93F1
:10252000CF93DF93C0E080915102C81760F4EC2F85
:10253000F0E0EE0FFF1FE35DFD4F808191810E946F
:10254000AD10CF5FF0CFC0E080915102C81760F4AA
:10255000EC2FF0E0EE0FFF1FE35DFD4F80819181D6
:102560000E94C110CF5FF0CF10E080917802181761
:1025700008F057C0E12FF0E0EE0FFF1FEC58FD4FC1
:10258000C081D18160E0CE010E9408126E0187E017
:10259000C80ED11C4601712CF12CE12C8D818E15B9
:1025A0001F04D9F0D4F0F40181914F0100E0A82E6E
:1025B000B12C80FF06C041E0672D600FCE010E9464
:1025C000DA0EB594A7948A2D0F5F083081F7FFEFDC
:1025D000EF1AFF0A88E0780EE1CFF12C912C812CC4
:1025E0008D8188151904D9F0D4F0F60181916F011D
:1025F00000E0A82EB12C80FD06C040E06F2D600FDA
:10260000CE010E94DA0EB594A7948A2D0F5F083090
:1026100081F7FFEF8F1A9F0A88E0F80EE1CF1F5F66
:10262000A4CF0E94BD1110E080915A021817E0F467
:10263000E12FF0E0EE0FFF1FEC5AFD4FC081D1817A
:1026400060E0CE010E9438104C815D8170E060E056
:10265000CE010E94F90F4C815D816FEF7FEFCE01BB
:102660000E94F90F1F5FE0CFC0E080912C02C817D5
:1026700018F5EC2FF0E0EE0FFF1FE65EFD4FA08196
:10268000B18156968D919C91579723E096958795A9
:102690002A95E1F714969C938E931397E091180274
:1026A000F0911902309731F04D915C91119712968B
:1026B0006C910995CF5FD9CFDF91CF911F910F9189
:1026C000FF90EF90DF90CF90BF90AF909F908F9052
:1026D0007F9008950E945802882359F081E08093EA
:1026E0005E0880935F0880916008909161080C9467
:1026F000463010925F0890E080E00895CF930E94EA
:102700006A13C82F0E946A13BC018C2F0E94830396
:10271000CF910C94BD110E946A132091EA04821794
:1027200060F4FC01FF27EE0FFF1FEC51FB4F80818F
:1027300091810E94F70C0C94BD1108950F931F9383
:102740000E946A132091EA04821708F047C0FC0136
:10275000FF27EE0FFF1FEC51FB4FA081B1811296B6
:10276000ED91FC9113971486158616861786108AAC
:10277000118A128A138A14AA15AA16AA17AA14A2D1
:1027800015A216A217A2148A158A168A178A1C96F1
:102790008C911C978823F1F012968D919C91139740
:1027A0001A964C9150E0519541955109052E000C17
:1027B000660B770BFC010089118922893389401748
:1027C00051076207730731F0408B518B628B738B1B
:1027D0000E94640B1F910F910C94BD111F910F91DA
:1027E00008958F929F92AF92BF92CF92DF92EF9215
:1027F000FF921F93CF93DF930E946A13EC010E9414
:102800006A13BC0180918C028C171D0609F00CF430
:10281000B0C0CC0FDD1FCA57DD4F0990D881C02D45
:10282000CD80DE800D2C000CEE08FF0889809A8098
:10283000092C000CAA08BB082F813885032E000C38
:10284000440B550B2C193D094E095F09072E000C4E
:10285000880B990B681979098A099B090E94A8328B
:102860002B813C81032E000C440B550B2819390990
:102870004A095B090E940E32BA01A9014C0D5D1D87
:102880006E1D7F1D052E000C660B770B8D859E85BA
:10289000AF85B88984179507A607B70709F45CC008
:1028A0004D875E876F87788B8985811155C08A85B2
:1028B0008C3008F04FC0188161E0812F0E944703DF
:1028C0008A85282F30E0F901EE0FFF1FE20FF31F7A
:1028D000E757FB4F1F739081907C912B90831B8651
:1028E0001C862CE0622F0E94B832829FB001112416
:1028F00030E020E0AB01420F531FFA01EE0FFF1F43
:10290000E40FF51FE757FB4F908196FD16C02F5F30
:102910003F4F2C30310571F781110FC010928000AC
:1029200082E0809381001092850010928400B19A19
:1029300080916F00826080936F00EA858E2F90E017
:10294000FC01EE0FFF1FE80FF91FE757FB4F8081D7
:102950008064808381E08987DF91CF911F91FF9010
:10296000EF90DF90CF90BF90AF909F908F900C949E
:10297000BD11DF91CF911F91FF90EF90DF90CF902D
:10298000BF90AF909F908F900895EF92FF920F931A
:102990001F93CF93DF930E946A138C010E94A902B8
:1029A0007C01EC01FC01DE018081882349F09091DB
:1029B0006908891301C03196808189933196F3CFDC
:1029C000AE17BF0710F41D92FBCF000F111FF801C7
:1029D000E558FD4F00811181F80186858823B1F00B
:1029E000C0E0F80181898C1789F04C2F60E0C801A4
:1029F0000E949408F8014089B701C49F600D711DC1
:102A00001124C8010E94F508CF5FEBCFDF91CF9171
:102A10001F910F91FF90EF900C94BD1120914207F0
:102A2000309143078217930710F40C94F83180E03B
:102A300008950F931F93CF93DF938C01EB01F8015F
:102A4000808191819C012F5F3F4F318320830E94C1
:102A50000E1528813981A9014F5F5F4F5983488343
:102A600022593A4FF9018083288139812E35F1E0CE
:102A70003F0760F48A3319F723593A4FF90110825E
:102A800081E0DF91CF911F910F91089580E0F9CF00
:102A9000EF92FF920F931F93CF93DF93EC01E0909F
:102AA0004207F0904307888199818C010F5F1F4F87
:102AB000198308830E940E15E016F10650F08A3340
:102AC00091F781E0DF91CF911F910F91FF90EF90EF
:102AD000089580E0F7CFAF92BF92CF92DF92EF924E
:102AE000FF920F931F93CF93DF9300D000D0CDB709
:102AF000DEB75C0119821A821B821C82CE0101960C
:102B00007C0110E000E06C01F501808191819C0165
:102B10002F5F3F4F318320830E940E15F701808382
:102B2000F8018E3241F00F5F1F4F8FEFE81AF80A5D
:102B30000430110549F7EC0DFD1D1082C6010E94FD
:102B400046300F900F900F900F90DF91CF911F9113
:102B50000F91FF90EF90DF90CF90BF90AF900895CE
:102B6000FB0101900020E9F73197AF01461B570B9D
:102B7000DC01ED91FC910280F381E02D09948091BC
:102B800094078823A1F0609167088091650890916F
:102B900066080E941B0580919C07882341F062EE25
:102BA00071E080916508909166080E94B0151092BE
:102BB0009B071092940780E008958F929F92AF92A6
:102BC000BF92EF92FF920F931F93CF93DF93CDB7F6
:102BD000DEB7A1970FB6F894DEBF0FBECDBF7C0164
:102BE000FA01CB0119A2223008F42AE08E010F5D10
:102BF0001F4F822E912CB12CA12CBF01A501940155
:102C00000E947732F901CA016A300CF5605DD80183
:102C10006E938D01232B242B252B79F790E080E0F8
:102C2000109721F0BD01C7010E94B015A1960FB603
:102C3000F894DEBF0FBECDBFDF91CF911F910F91F2
:102C4000FF90EF90BF90AF909F908F900895695C38
:102C5000DECFCF93909194079923A9F0C82F60916C
:102C6000680880916508909166080E941B054C2FAA
:102C700050E070E060E02AE080916508909166087D
:102C8000CF910C94DD15CF910895909194079111F7
:102C900010C091E09093940790939B07482F50E0C9
:102CA00070E060E02AE080916508909166080C94DD
:102CB000DD150895CF93DF939091940791111AC079
:102CC000EB010E94451680919407882379F060916A
:102CD000680880916508909166080E941B05BE01F6
:102CE00080916508909166080E942205DF91CF913E
:102CF0000C94BF1580E0DF91CF9108950E947D0470
:102D00006093DE047093DF048093E0049093E10409
:102D10006CEA70E085E00C945A161F93CF93DF9312
:102D200010925102109273021092DD04809183027E
:102D3000882329F0E0918402F0918502158A10928F
:102D4000830230918C02C6E8D2E020E03217D1F045
:102D5000A991B99119968C911997882389F01A969F
:102D6000EC911A978E2F90E0FC01EE0FFF1FE80FF9
:102D7000F91FE757FB4F80818F7B808319961C9248
:102D80002F5FE4CF10928C029091EA04E4EEF4E01D
:102D900080E0981729F0A191B1911C928F5FF9CF33
:102DA0001092EA0490911602EBE7F2E080E09817A7
:102DB00059F0A191B1911E962C911E97222311F0EA
:102DC0001E961C928F5FF3CF1092160210922C0267
:102DD00090911702EFE7F2E080E0981759F0A19187
:102DE000B19118962C911897222311F018961C92E5
:102DF0008F5FF3CF1092170280917802882361F0E1
:102E0000E0917402F09175021682823028F0E09110
:102E10007602F091770216821092780210E0E0912B
:102E20005A021E1798F4F0E0EE0FFF1FEC5AFD4F08
:102E3000C081D1818B8180FF07C062E08A810E94BE
:102E400047038B818E7F8B831F5FE9CF10925A02DD
:102E50001092B8041092B7041092E30410921E046A
:102E600010921D0460EB70E085E0DF91CF911F911F
:102E70000C945A1663EB70E08FE00C945A16209174
:102E80001D0430911E04820F932F911D90931E04F8
:102E900080931D048039914040F061EF72E085E03D
:102EA0000E945A1690E080E00895C90183579D4F13
:102EB0000895CF92DF92EF92FF920F931F93CF93DB
:102EC000DF9390917302993009F45EC07901142F59
:102ED000C62ED82E8FE10E94EB0C81110DC060E14F
:102EE00072E085E0DF91CF911F910F91FF90EF90FD
:102EF000DF90CF900C945A168FE10E943F17EC019F
:102F0000892B09F01A8200917302E02FF0E0EE0F96
:102F1000FF1FEF59FD4FD183C0831E821D82FC82AB
:102F2000EB82D882C98285E0819FF0011124E259A9
:102F3000FE4FDE01199601900D928A95E1F762E04D
:102F40008D2D0E94470362E089810E9447031E86FF
:102F5000188A1F861A8A198A18861F8A188E198E4F
:102F60001A8E84EF91E0A0E0B0E08B8B9C8BAD8B50
:102F7000BE8B81E08A838EE498E190936002809317
:102F80005F020F5F00937302DF91CF911F910F914A
:102F9000FF90EF90DF90CF90089581E08093E3045D
:102FA00066EB70E081E10C945A16CF93DF930E9498
:102FB000BD118AE00E9445168091B7049091B80433
:102FC000892B91F18BE390E00E940E15C82F809120
:102FD0009407882379F06091680880916508909142
:102FE00066080E941B056C2F809165089091660809
:102FF0000E941B05C1E0D0E08091B7049091B80415
:10300000C817D90788F4CE01CB960E940E1590916F
:103010009407992339F0682F80916508909166088C
:103020000E941B052196E8CFDF91CF910C94BF152C
:10303000CF93DF93209194072223A1F0EC016091BC
:10304000680880916508909166080E941B0520978A
:1030500049F0BE018091650890916608DF91CF919B
:103060000C94B015DF91CF9108950F931F93CF93D8
:10307000DF93C82FD62F8A018DE10E944516C80123
:103080000E9418188D2F0E9429168C2F0E94291635
:10309000DF91CF911F910F910C94BF150F931F9348
:1030A000CF93C82F8A0186E00E944516C8010E946E
:1030B00018188C2F0E942916CF911F910F910C94F4
:1030C000BF150F931F93CF93DF93C82FD62F8A017D
:1030D0008EE10E944516C8010E9418188D2F0E948B
:1030E00029168C2F0E942916DF91CF911F910F91E5
:1030F0000C94BF150F931F93CF93C82F8A0187E0BD
:103100000E944516C8010E9418188C2F0E9429168B
:10311000CF911F910F910C94BF15CF92DF92EF9238
:10312000FF92CF93DF936C01EA018CE10E94451678
:10313000CE010E94181880919407882321F1609194
:10314000680880916508909166080E941B05C091EF
:103150006508D09166080D2C000CEE08FF082AE0E7
:10316000B701A601F7FE0CC06DE2CE010E941B055F
:1031700044275527BA014C195D096E097F092AE0D9
:10318000CE010E94DD15DF91CF91FF90EF90DF908F
:10319000CF900C94BF15FB0101900020E9F7319707
:1031A000AF01461B570BDC01ED91FC910284F385C6
:1031B000E02D0994CF92DF92EF92FF920F931F932D
:1031C000CF93DF938C01EB01FC01D0886D2D70E073
:1031D000FE0101900020E9F7CF0101978C1B9D0BA8
:1031E00086179707B0F4681B790B76956795D82EEC
:1031F000C8010E949408CC2EEC2EFD2E8E2D8C1929
:103200008D1548F4F70161917F01C8010E94DD0826
:10321000F5CF60E0EDCFDF91CF911F910F91FF903F
:10322000EF90DF90CF90089585ED8093BC00809162
:10323000460590914705A0914805B091490507962C
:10324000A11DB11D23E0B695A795979587952A9561
:10325000D1F72091BC0024FD03C0109244050895CD
:103260004091460550914705609148057091490588
:10327000452B462B472B69F30097A105B10541F07B
:1032800025E32A95F1F700000197A109B109E1CFE3
:10329000809145050C94BF064F925F926F927F928A
:1032A0008F929F92AF92BF92CF92DF92EF92FF9256
:1032B000CF93DF93EC016A017B0120E030E0A901AC
:1032C000CB01B6010E94D43087FF04C0F7FAF09416
:1032D000F7F8F0948C8C9D8CAE8CBF8CA701960176
:1032E000C501B4010E94D430882309F449C06CA9F7
:1032F0007DA98EA99FA90E94DB302B013C01A7016B
:103300009601C501B4010E9437339B01AC01C30192
:10331000B2010E943A310E94A9336CAB7DAB8EABF7
:103320009FABA701960160E070E080E090E40E940E
:1033300037330E94EA3326E53EE04DE25FE30E9428
:103340003A3120E034E244E759E40E943A3168AF70
:1033500079AF8AAF9BAFCC8EDD8EEE8EFF8ECE0125
:10336000DF91CF91FF90EF90DF90CF90BF90AF9023
:103370009F908F907F906F905F904F900C94640B14
:10338000DF91CF91FF90EF90DF90CF90BF90AF9003
:103390009F908F907F906F905F904F900895EF92E5
:1033A0000F93CF93DF93EC0188EA91E099838883B0
:1033B0006B831C861D861E861F86188A198A1A8AA8
:1033C0001B8A1C8A1D8A1E8A1F8A80E090E0A0E862
:1033D000BFE3888F998FAA8FBB8F1C8E1D8E1E8E88
:1033E0001F8E88A399A3AAA3BBA31CA21DA21EA2E1
:1033F0001FA261E070E07DA76CA73FEF3FA718A672
:1034000019A61AA61BA64C832D830E83EF821EA637
:103410001CAA1DAA1EAA1FAA18AE19AE1AAE1BAE70
:103420001CAE1DAE1EAE1FAEFE01E05CFF4F8083E2
:103430009183A283B3831A82188619861A861B8603
:10344000CE010E94510940E050E060E87FE3CE01E8
:10345000DF91CF910F91EF900C944C198F929F9226
:10346000AF92BF92CF92DF92EF92FF920F931F9392
:10347000CF93DF930E946A13EC010E946A138C01C0
:103480000E946A137C018091EA04C81708F078C092
:10349000DD27CC0FDD1FCC51DB4FC880D980F60172
:1034A000C281D381B80190E080E00E94D9304B0105
:1034B0005C01288D398D4A8D5B8D0E94D430882324
:1034C000F1F1888E998EAA8EBB8E8E01005C1F4F03
:1034D000A501940160E074E284E799E40E94373327
:1034E000F80160837183828393838CA99DA9AEA91F
:1034F000BFA9181619061A061B060CF56C897D89DA
:103500008E899F899B01AC010E943A314B015C017D
:103510006C8D7D8D8E8D9F8D9B01AC010E94CB3279
:103520009B01AC01C501B4010E9437330E94A9334D
:103530006CAB7DAB8EAB9FABCE010E94640BB70131
:1035400090E080E00E94D9304B015C0120E030E047
:10355000A9010E94D430882399F0B501A401F60195
:1035600082819381DF91CF911F910F91FF90EF9016
:10357000DF90CF90BF90AF909F908F900C944C199C
:10358000DF91CF911F910F91FF90EF90DF90CF903F
:10359000BF90AF909F908F9008954F925F926F92DF
:1035A0007F928F929F92AF92BF92CF92DF92EF92D3
:1035B000FF920F931F93CF93DF93D02E9091EA0445
:1035C000933009F44AC00E2DB22EE42E162FF82E99
:1035D0008EE00E94EB0C811115C061ED72E085E078
:1035E000DF91CF911F910F91FF90EF90DF90CF90DF
:1035F000BF90AF909F908F907F906F905F904F9013
:103600000C945A168EE00E943F17EC01892B09F0AA
:103610001882E091EA04F0E0EE0FFF1FEC51FB4F3F
:10362000D183C08384E40E94EB0C811127C060EB3E
:1036300072E085E00E945A16C091EA04DD2051F044
:10364000EC2FF0E0EE0FFF1FEC51FB4F80819181DA
:103650000E94F70CCF5FC093EA04DF91CF911F91D6
:103660000F91FF90EF90DF90CF90BF90AF909F9021
:103670008F907F906F905F904F900895013009F484
:103680008EC028F0023009F496C01882D5CF84E4A9
:10369000FE100EC01B110CC00E943F174C01892B5D
:1036A00099F095E0E92E04E0212F4F2D61E009C04B
:1036B0000E943F174C01892B39F00F2D212F4B2DE4
:1036C00064E0C4010E94CF199B828A82EA80FB8059
:1036D00020E030E048EC53E4F701608D718D828D7D
:1036E000938D0E94D430882309F440C080E090E09C
:1036F000A8ECB3E4F701808F918FA28FB38F80E0A5
:1037000090E4ACE1B5E4E05CFF4F80839183A28359
:10371000B383F70184A995A9A6A9B7A91816190614
:103720001A061B061CF564897589868997899B0191
:10373000AC010E943A312B013C01F701648D758D7B
:10374000868D978D9B01AC010E94CB329B01AC0111
:10375000C301B2010E9437330E94A933F70164AB61
:1037600075AB86AB97ABC7010E94640B40E050E09D
:1037700068E474E48A819B810E944C19DC8281E0B8
:103780008D83DD2021F062E08D2D0E944703CA86E3
:10379000AB8681E0888319828D878C874DCF84E446
:1037A0000E943F174C01892B09F48ECF0F2D212F3A
:1037B0004B2D68E086CF84E46FCF8F929F92AF92BB
:1037C000BF92CF92DF92EF92FF92CF93DF930E944E
:1037D0006A13EC01B82E0E945802882309F48FC0A6
:1037E00081E080935E0880935F08809160089091EB
:1037F00061080E9464306B017C018091EA04B81674
:1038000008F083C0DD27CC0FDD1FCC51DB4F0990C2
:10381000D881C02D19828E819F81A885B985C8164F
:10382000D906EA06FB0609F45EC08A819B81DC01A9
:103830001C968D909D90AD90BC901F972B85222358
:1038400051F02D85222339F0ED91FC910280F38116
:10385000E02D09951D868C85882379F0C814D9043C
:10386000EA04FB0454F48E819F81A885B985C816AB
:10387000D906EA06FB060CF41C868C85811110C063
:103880008C149D04AE04BF045CF48E819F81A885D6
:10389000B9858C159D05AE05BF0514F481E08C87B4
:1038A0008A819B814A852C85429FA0011124052E87
:1038B000000C660B770B4C0D5D1D6E1D7F1DFC0112
:1038C00080889188A288B388481559056A057B05C8
:1038D00031F0408B518B628B738B0E94640BCE82D4
:1038E000DF82E886F986DF91CF91FF90EF90DF903D
:1038F000CF90BF90AF909F908F900C94BD1110927D
:103900005F08C12CD12C760178CFDF91CF91FF9049
:10391000EF90DF90CF90BF90AF909F908F900895E1
:10392000BF92CF92DF92EF92FF920F931F93CF93AC
:10393000DF93EC01E62EC42ED22EFB88FF0C0F2D58
:1039400010E0A80170E060E003960E943F34EE2D85
:10395000EE0FEC0FFD2FF11DC482D38260E08A814F
:103960000E9427030D5F1F4F0C0F1D1FFF20E1F06A
:10397000F801B2908F0188E0C82ED12C90E8E92E92
:103980006B2D6E2188810E94270361E089810E944E
:10399000270360E089810E942703E694F1E0CF1AB3
:1039A000D10871F7FA94E2CF61E08A81DF91CF917B
:1039B0001F910F91FF90EF90DF90CF90BF900C94EC
:1039C00027038F929F92AF92BF92CF92DF92EF9296
:1039D000FF920F931F93CF93DF930E946A13EC0122
:1039E0000E946A13882E0E94A9025C010E946A1339
:1039F0006C010E946A13CC0FDD1FCC57DD4F08818C
:103A00001981F8012589222309F43CC0C7E0D0E0E0
:103A1000912C7C01FF24DD246C2F4C2F4F5FC701BC
:103A20000C2E02C0959587950A94E2F780FF28C076
:103A3000F801A3898A1618F5F501E90DF11D8081B9
:103A400087FD80E296010C2E02C0359527950A94D9
:103A5000E2F720FD8068F80192819D3F10F06A171F
:103A600070F4E82FEF77F0E0E05DFD4F24919D3F8B
:103A7000B8F487FD2068682DC8010E94901C9394BB
:103A8000219750F6DF91CF911F910F91FF90EF900A
:103A9000DF90CF90BF90AF909F908F900C94BD110E
:103AA000220F87FD2160A150BB0BAC1BBD0BA00FEB
:103AB000B11F13962C9341E0C8010E945B0EDFCF2B
:103AC0001F93CF93DF93DC0112962C9112972D3F19
:103AD00060F453962C91621700F521E024274CE006
:103AE000DF91CF911F910C94901C5496EC91F0E0D3
:103AF000F595E7951E2F411101C01860EC010E9459
:103B0000540E60E8610F40E0CE010E94E30DCE014B
:103B1000DF91CF911F910C943D0EDF91CF911F91BA
:103B200008950F931F93CF93DF93FC0125892223E0
:103B3000C1F16217B0F5442391F12FEF240F20312A
:103B400008F02FE0D62F8C01FC01248B82818D3F61
:103B500080F48389681720F44AE0C8010E94901C11
:103B600040E06D2FC801DF91CF911F910F910C9410
:103B7000601DC0E0413031F02695423009F421E06B
:103B8000C22FC860C8010E94540E60E86C0F40E06C
:103B9000C8010E94E30DC8010E943D0EE1CF41E043
:103BA000E2CFDF91CF911F910F9108951F93CF9393
:103BB000DF930E946A13EC010E946A13182F0E947F
:103BC0006A13CC0FDD1FCC57DD4F482F612F888142
:103BD00099810E94911DDF91CF911F910C94BD118D
:103BE0000C94D61DFF920F931F93CF93DF93F82E63
:103BF000C0E080918302C817B0F4EC2FF0E0EE0F24
:103C0000FF1FEC57FD4F00811181D0E0F80185893D
:103C10008D1739F04F2D6D2FC8010E94601DDF5F99
:103C2000F5CFCF5FE6CFDF91CF911F910F91FF903E
:103C300008950F931F93CF93DF93EC01062F4B89C9
:103C40008A818D3F88F4641750F410E01F5F20E0F4
:103C5000412F602FCE010E94901C1830B9F7DF91E0
:103C6000CF911F910F91089550E070E060E0CE0178
:103C700003960E943F344B896FEF640FCE01DF91B2
:103C8000CF911F910F910C945B0E2F923F924F9208
:103C90005F926F927F928F929F92AF92BF92CF92DC
:103CA000DF92EF92FF920F931F93CF93DF9300D099
:103CB00000D01F92CDB7DEB78091B7049091B804C1
:103CC000892B09F449C58BE390E09A8389831C8290
:103CD0001B82CE0101960E946B15882309F43CC516
:103CE0003FE3232E37E0332E4BE4842E46E4942E1C
:103CF00052E6452E51E0552E64EB662E712CEFEF07
:103D0000E80FCE010196EF3008F0A4C00E2E000C93
:103D1000FF0BE357F14E0C94C4329C1EB220F71EE9
:103D20002D1FFB1F6220D620C3201C203A22DD213C
:103D3000AB222A1F172337200E946B15D82E8091A3
:103D400051028231D9F184E00E94EB0C69EB70E002
:103D5000882309F4B2C4EB80FC8084E00E943F1702
:103D60008C010097C1F0DC011296DC921297C7011A
:103D700082599A4F8D939C9362E08D2D0E94470348
:103D8000F80182810E940B0321E0892B09F420E0D5
:103D9000D80113962C9380915102E82FF0E0EE0F9A
:103DA000FF1FE35DFD4F118300832AE738E1309365
:103DB0005302209352028F5F80935102BE016D5FC8
:103DC0007F4FCE0101960E941915182FCE01019642
:103DD0000E946B15882309F4BCC4111190CF109276
:103DE000CB0669ED71E085E00E945A16B5C40E94C9
:103DF0006B15F82E8091DD04823151F182E00E9432
:103E0000EB0C67ED70E0882309F452C382E00E9456
:103E10003F178C01009779F0FC01F082118261E07C
:103E20008F2D0E944703D80111966C91119770E075
:103E30008C910E9483038091DD04E82FF0E0EE0F67
:103E4000FF1FE754FB4F118300838F5F8093DD04D6
:103E5000CE0101960E944815B8CF0E946B15B82E6E
:103E6000CE0101960E946B15D82ECE0101960E94BC
:103E70006B15C82ECE0101960E946B15A82ECE019F
:103E800001960E946B15E82E80918302813001F328
:103E900086E10E94EB0C65EF70E0882309F408C30B
:103EA00086E10E943F178C01009729F0FC01138ADC
:103EB0008FE0848B158AF0908302EF2DF0E0EE0FF7
:103EC000FF1FEC57FD4F11830083D801BC92119660
:103ED000CC9211971296DC92BCEFBD1508F447C046
:103EE0008E2DE8E0EE1508F488E0D80153968C9307
:103EF00061E08B2D0E94470361E0F80181810E94FF
:103F0000470361E0D80112968C910E94470361E05B
:103F1000F80182810E942703D12CD80153968C91FD
:103F2000D81608F04CC020E04FE06D2DC8010E946B
:103F3000901CF80182818D3F48F48389D81630F4B3
:103F400027E04BE06D2DC8010E94901C20E049E065
:103F50006D2DC8010E94901C6D2DC8010E94191E74
:103F600041E06D2DC8010E94601DD394D6CFFDEFB6
:103F700084E0DF1286E0D80153968C9362E08C2DAA
:103F80000E94470362E0F80180810E94470360E0DD
:103F9000D80111968C910E94270360E0F80180817E
:103FA0000E94270360E0C8010E94191E8FE0D8011B
:103FB00054968C9341E060E0C8010E94601DF801B6
:103FC000E58AE12CD80155968C91E81680F44A2DAB
:103FD0006E2DC8010E94911D40E06E2DC8010E9407
:103FE000601D6E2DC8010E94191EE394EBCFF3945F
:103FF000F09283022DCF0E946B15182FCE010196EF
:104000000E946B15F82ECE0101960E946B15D82EDA
:10401000CE0101960E946B15B82ECE0101960E942A
:104020006B15A12CC12CE12C00E02B2D4D2D6F2DFB
:10403000812F0E94CD1A0CCF0E946B15182FCE0134
:1040400001960E946B15F82ECE0101960E946B1509
:10405000D82ECE0101960E946B15B82ECE01019686
:104060000E946B15A12CC12CE12C082FDECF0E94E1
:104070006B15182FCE0101960E946B15F82ECE01FC
:1040800001960E946B15D82ECE0101960E946B15E9
:10409000B82ECE0101960E946B15082FCE01019615
:1040A0000E946B15E82ECE0101960E946B15C82E5A
:1040B000CE0101960E946B15AA24A3948111B5CF5D
:1040C000A12CB3CF0E946B15182F80918C028330E6
:1040D00009F4BECE87E10E94EB0C66E171E0882313
:1040E00009F4E6C187E10E943F17FC01892BB9F072
:1040F0008091AD048C3098F591E0980F9093AD04C9
:10410000828790E0DC01AA0FBB1FA80FB91FA75739
:10411000BB4F88EB9BE012969C938E9311978091F6
:104120008C02A82FB0E0AA0FBB1FAA57BD4FED937A
:10413000FC931186158616861786108A118A128AB4
:10414000138A148A12821182748263821682158203
:104150007086678210838F5F80938C0279CE8FEF99
:104160008287DDCF0E946B15182FCE0101960E9429
:104170006B152B813C8122593A4F40E0682F812FEB
:104180000E9459171BCE0E946B15182FCE01019665
:104190000E946B15082FCE0101960E946B152B8192
:1041A0003C8122593A4F482F602FE9CF0E946B156E
:1041B000D82ECE0101960E946B15E82ECE010196F5
:1041C0000E946B15F82E80911602823009F440CEC1
:1041D00082E10E94EB0C64E371E0882309F468C17A
:1041E00082E10E943F178C01009731F0FC0113829D
:1041F0001282518240821186E0911602F0E0EE0FA9
:10420000FF1FE558FD4F11830083D8011F96DC92F4
:104210001F975096EC9250975196FC92519781E0DF
:104220001E968C931E971496DC9214971A96EC9215
:104230001A971B96FC921B971C961C921C971D9616
:104240001C921092400410923F0410924B05109261
:104250006D050E94A106E3EDF7E0F0936304E0939F
:10426000620424ED37E03093670420936604D8019C
:1042700015961C9215971B968C911B97823018F0FF
:1042800098E015969C93F8019485992329F0813044
:1042900019F485818460858362E370E080E090E0BA
:1042A0000E944B04D8011D966C91C8010E94E3083E
:1042B00060E3C8010E94E308C4010197F1F760E3DD
:1042C000C8010E94E308C4010197F1F760E3C80147
:1042D0000E94E30883E592E00197F1F760E2C801EC
:1042E0000E94E308F8016581606240E0C8010E9415
:1042F0006B0884E0D80116968C9340E06CE0C8010E
:104300000E946B08C8010E94C50882E0F8018783FB
:1043100040E066E0C8010E946B0840E062E0C8012E
:104320000E946B088BE39FE10197F1F788E0D801C9
:104330001D968C931D9714968C9191E090934A054D
:1043400080936C0510924B0510926D0568E08FE22A
:1043500097E00E942C080E94D0078CE08093B80060
:10436000F8018685882319F1C8010E94C508D80183
:1043700051964C91F12C433020F04695FF24FA944D
:10438000F40E4F2D65EE71E0C8010E94DA18F801B5
:104390008189823038F041E04F0D60EF71E0C80153
:1043A0000E94DA1840E060E0C8010E949408809101
:1043B00016028F5F809316024BCD0E946B15D82E8C
:1043C000CE0101960E946B15C82E80912C02893077
:1043D00009F4F4CC8DE10E94EB0C60E571E08823D8
:1043E00009F46BC1EB80FC808DE10E943F178C01CA
:1043F000892B61F180E1F8013696DF011D928A95E3
:10440000E9F7F801178A168A108EC582D282C70191
:1044100082599A4F9183808362E08D2D0E944703D9
:1044200058E0F52EC8010E94FE10FA94F110FACF60
:10443000D80156968D919C91579743E09695879514
:104440004A95E1F714969C938E93139780912C02D2
:10445000E82FF0E0EE0FFF1FE65EFD4F11830083B3
:10446000EDE8F8E1F0931902E09318028F5F809372
:104470002C02A4CC0E946B15C82ECE0101960E947E
:104480006B158D83CE0101960E946B15A82ECE016F
:1044900001960E946B15B82E80911702823009F4A4
:1044A000D7CC89E00E94EB0C811106C060E771E077
:1044B00085E00E945A16CCCC89E00E943F178C01FF
:1044C000D0901702ED2CF12CEE0CFF1CF701E158F7
:1044D000FD4F9183808381E0D80118968C931897C3
:1044E000CC92ED811196EC9311971296AC921297A3
:1044F0001396BC9261E08C2D0E94470361E0D801C5
:1045000011968C910E94470361E0F80182810E941C
:104510004703D80113969C91F801349680E09817D0
:1045200019F011928F5FFBCFC8010E94C811F701EB
:10453000E158FD4F80819181FC013381349620E068
:10454000321719F011922F5FFBCF0E94C811D3943C
:10455000D09217027DCC0E946B15D82ECE01019609
:104560000E946B15A82ECE0101960E946B15B82EE5
:10457000CE0101960E946B15C82E80917802823080
:1045800009F41CCC8BE00E94EB0C65E971E08823F8
:1045900009F493C0EB80FC808BE00E943F178C01F4
:1045A000009741F0DC0116961C92FC0117821086E0
:1045B00011861286E0917802F0E0EE0FFF1FEC58B2
:1045C000FD4F11830083D8011296DC921297139647
:1045D000AC9213971496BC921497C70182599A4FC4
:1045E00011969C938E931596CC9261E08D2D0E942E
:1045F000470361E0F80183810E94470360E0D8012E
:1046000014968C910E94470381E0F801868360E054
:10461000C8010E94081225E338E130937A02209302
:104620007902809178028F5F80937802C7CB0E94D5
:104630006B15D82ECE0101960E946B15F82ECE0177
:1046400001960E946B15082FCE0101960E946B15F2
:10465000182FCE0101960E946B15F0923B07009334
:104660003C0710933D0780933E0710923F070BE3F2
:1046700017E061E0D8018D918D010E94470320165B
:104680003106B9F780913F07816080933F0760E072
:104690008BE397E00E94BA0ECE0101960E946B1543
:1046A000C82E80915A02833009F488CB86E00E949C
:1046B000EB0C811106C069EB71E085E00E945A168F
:1046C0007DCBEB80FC8086E00E943F178C01009739
:1046D00059F0EBE3F7E0F0935E02E0935D02DC015A
:1046E00015961C921E921497E0915A02F0E0EE0F7C
:1046F000FF1FEC5AFD4F11830083F801D282C701DE
:1047000082599A4F91838083F1E0CF16F1F0D8015E
:1047100013961C9262E08D2D0E944703D8011396D8
:104720008C911397816013968C9360E0C8010E946E
:104730003810E1E6F8E1F0935C02E0935B028091CF
:104740005A028F5F80935A0239CB82E0F80183834B
:10475000E1CF112309F443CB0F900F900F900F90EE
:104760000F90DF91CF911F910F91FF90EF90DF900D
:10477000CF90BF90AF909F908F907F906F905F9001
:104780004F903F902F9008950E94451E0C94CD1796
:10479000FF920F931F93CF93DF930E946A13EC0154
:1047A0000E94A9028C010E946A13F82ECC0FDD1F13
:1047B000C158DD4F0990D881C02D8885882369F1C3
:1047C00067EF71E0C8010E948B3001E010E00097B4
:1047D00009F10E9446309885992391F0982F97709F
:1047E000980101C0220F9A95EAF7869586958695DD
:1047F000FE01E80FF11D8481FF2049F0282B24835E
:1048000067EF71E090E080E00E948B30E0CF209570
:104810002823F5CFCE010E94C811DF91CF911F91BF
:104820000F91FF900C94BD11FF920F931F93CF93A4
:10483000DF938C01EB01F8800E94F831F81621F02B
:104840006F2DC8010E940032CE01DF91CF911F91E0
:104850000F91FF900895AF92BF92CF92DF92EF92A7
:10486000FF920F931F93CF93DF930E94BD110E947D
:10487000A9026C01EC0109900020E9F72197C81BFF
:10488000D90BDD27E090B704F090B804C70101967A
:104890008C0F9D1F883B914008F053C05E018FEF45
:1048A000A81AB80A2BE3E20EF11C95012E0D3F1D4C
:1048B00080914207909143078217930778F010E0A8
:1048C00000E0B601600F711FC701800F911F0E94A9
:1048D00014240F5F1F4F0A151B0598F34091B7046E
:1048E0005091B804C40FD51FD093B804C093B70437
:1048F00080919407811147C085E00E944516809100
:104900009407882391F060916808809165089091E0
:1049100066080E941B05AE0170E060E02AE080910D
:104920006508909166080E94DD15DF91CF911F9177
:104930000F91FF90EF90DF90CF90BF90AF900C94CD
:10494000BF158091940781111EC085E00E94451615
:1049500080919407882349F36091680880916508E5
:10496000909166080E941B05C0916508D091660869
:104970006DE2CE010E941B052AE041E050E060E0BC
:1049800070E0CE01D0CFDF91CF911F910F91FF90BA
:10499000EF90DF90CF90BF90AF900895CF93DF93CB
:1049A0000E94A902FC0190E3A2E2B1E001900D9205
:1049B0009A95E1F78091420790914307892B29F05E
:1049C00063E290E080E00E94003280914207909183
:1049D0004307C09760F0D0E0C0E0BE016E5D7E4F3F
:1049E0002196CE010E941424CF32D105B1F78091D7
:1049F000940781110BC085E00E94451682E291E088
:104A00000E941818DF91CF910C94BF15DF91CF91C0
:104A100008954F925F926F927F928F929F92AF9282
:104A2000BF92CF92DF92EF92FF92CF93DF930E94DB
:104A30007D04611571058105910511F00E943D30DD
:104A40000E94EE2F2B013C010E94EE2F4B015C01D6
:104A5000CC24CA948FE0D82EE12CF12CC301B201F2
:104A6000A70196010E940E327F936F93C501B40196
:104A7000A70196010E940E327F936F9389EF91E018
:104A80009F938F9380E091E09F938F930E944D348A
:104A90008DB79EB708960FB6F8949EBF0FBE8DBF18
:104AA0008091420790914307CB9760F0C0E3D0E03C
:104AB000BE0160537F4FCE010E9414242196CB3358
:104AC000D105B1F7DF91CF91FF90EF90DF90CF90BC
:104AD000BF90AF909F908F907F906F905F904F901E
:104AE00008950E94092580919407811109C08AE0E8
:104AF0000E94451680E091E00E9418180C94BF15A2
:104B00000895EF92FF920F931F93CF93DF9380E36B
:104B100090E00E940E15833509F048C081E390E0D3
:104B20000E940E158E3409F049C080914207909181
:104B30004307CB9770F000E011E0C0E3D0E0CE0176
:104B40000E94F831F80181938F012196CB33D10572
:104B5000B1F70E94BD118AE00E944516809194072A
:104B6000882381F0609168088091650890916608BB
:104B70000E941B0563EF71E08091650890916608C3
:104B80000E94220582E291E00E94181880E091E0E4
:104B90000E9418188FE092E00E941818DF91CF91C0
:104BA0001F910F91FF90EF900C94BF15893431F451
:104BB00081E390E00E940E15843471F00E94092573
:104BC0008091420790914307CC9718F260E08BE305
:104BD00090E00E940032BDCF66E072E080E091E09C
:104BE0000E94463486E2E82E87E0F82ED0E0C0E04E
:104BF0000AE012E0F70181917F011F928F931F93CA
:104C00000F93CE018D5F9E4F9F938F930E944D34E3
:104C100022960F900F900F900F900F900F90C2312F
:104C2000D10541F796CF1F920F920FB60F92112424
:104C30002F933F938F939F93AF93BF9380910805DA
:104C400090910905A0910A05B0910B0530910705D7
:104C500023E0230F2D3758F50196A11DB11D209398
:104C600007058093080590930905A0930A05B09362
:104C70000B0580910C0590910D05A0910E05B0914A
:104C80000F050196A11DB11D80930C0590930D0594
:104C9000A0930E05B0930F05BF91AF919F918F9197
:104CA0003F912F910F900FBE0F901F90189526E8FF
:104CB000230F0296A11DB11DD2CF1F920F920FB6E6
:104CC0000F9211248F939F938091E1009091E100C6
:104CD000937F9093E10083FF0FC01092E90091E071
:104CE0009093EB001092EC0092E39093ED00109201
:104CF0001D0598E09093F00082FF22C093E090930E
:104D0000E9009091F200992319F09AE39093E8005A
:104D10009091B404992341F09091B40491509093F0
:104D2000B404911101C05D9A90911C05992341F042
:104D300090911C05915090931C05911101C0289AE7
:104D400084FF18C08091E2008E7E81608093E20033
:104D50008091E1008F7E8093E1008091B5048E7E8A
:104D600080618093B5049F918F910F900FBE0F903B
:104D70001F90189580FFF7CF8091E2008E7E8061B2
:104D80008093E2008091E1008E7E8093E10080912B
:104D9000B5048E7E8160E5CF1F920F920FB60F9201
:104DA0001124CF92DF92EF92FF920F931F932F93D4
:104DB0003F934F935F936F937F938F939F93AF93A3
:104DC000BF93EF93FF93CF93DF93CDB7DEB76C978D
:104DD000DEBFCDBF1092E9008091E80083FF25C0BF
:104DE00068E0CE0145960E940E0582EF8093E800B0
:104DF0008D8987FF39C09091E80090FFFCCF982FF4
:104E0000907609F034C19E894F89588D2F89F88C8E
:104E1000911131C0803861F58091B6048093F10022
:104E20001092F1008EEF8093E8006C960FB6F89424
:104E3000DEBF0FBECDBFDF91CF91FF91EF91BF914C
:104E4000AF919F918F917F916F915F914F913F9122
:104E50002F911F910F91FF90EF90DF90CF900F90C7
:104E60000FBE0F901F9018959EEF9093E800C7CF4C
:104E70001092F100D5CF913059F48111D3CF413048
:104E8000510581F68091B6048D7F8093B604CACF18
:104E9000933049F48111C6CF4130510519F6809104
:104EA000B6048260F2CF953041F48091E80080FF33
:104EB000FCCF20682093E300B5CF963009F0A9C05D
:104EC0000B8D1C8D22E01092E9001092B20410921A
:104ED000B104F2122EC01092B0041092AF040E94DE
:104EE000DD041F8299E09983FA8291E09E8390EA23
:104EF00098879AEF99872091B1043091B204275F87
:104F00003F4F3C832B838D831092E9001092B204B3
:104F10001092B1041093B0040093AF0449E050E044
:104F2000BE016F5F7F4F80E00E94B7040E94DD04E6
:104F300079CF1093B0040093AF040E94F702DC0114
:104F400012960D911C910115110509F451C1D8015A
:104F5000ED91FC910480F581E02DBE016B5E7F4FE9
:104F6000C8010995009709F03EC1F8010085118537
:104F7000EACFF3E0FF120EC08F89882309F440C006
:104F8000823061F440E862E189E693E00E94D92A28
:104F9000811148CF81E28093EB0047CF813029F423
:104FA00040E868E080E693E0F1CF833099F70E9413
:104FB000F702DC011296ED90FC908E010F5F1F4FFF
:104FC0006801E114F10479F0D701ED91FC910680BC
:104FD000F781E02DB801C7010995080F111DF701F0
:104FE000E084F184EECFD8011C92F60101900020FC
:104FF000E9F73197BF016C197D0940E0C601C6CFC2
:105000006AE473E0FB01449150E080E80E94B70439
:1050100009CF973009F4BECF983021F481E0809316
:10502000F10000CF993009F0FDCE837009F0B2CFC6
:10503000EEE9F1E081E031E096E32191222371F085
:105040008093E9003093EB00DF0111972C912093BE
:10505000EC009093ED008F5F873079F78EE78093B7
:10506000EA001092EA008F8980931D05DBCE8B8DBC
:105070009C8D1092E9001092B2041092B1049093AA
:10508000B0048093AF04898D811192C08E899D896F
:10509000913A49F4813209F07DCF47E050E06AE16E
:1050A00071E080E0B3CF913209F074CF833269F4BC
:1050B0008F89988DB0E0A0E080931601909317013E
:1050C000A0931801B0931901ADCE803269F480919C
:1050D000E80082FFFCCF67E08AE191E00E940E05C4
:1050E0008BEF8093E8009ECE823209F09BCE8F89B1
:1050F00080932101EEEFFFE7859194918B3F9C4DCA
:1051000051F1E0E0F8E080911A0190911B01A0912B
:105110001C01B0911D01803B9440A105B105F1F443
:105120008091210180FD1AC0EE3F8AE0F80789F5E1
:1051300087E797E791838083809160008093B30431
:1051400088E19BE00FB6F894A895809360000FBEAD
:105150009093600067CEEEEFFAE0D5CF8081918129
:105160008737974709F05ECEA895809160008861E7
:10517000809360008091B30480936000EE3F2AE04A
:10518000F20789F08091FE0A9091FF0A9183808353
:1051900049CE808191818737980751F29093FF0A19
:1051A0008093FE0AC5CF1092FF0A1092FE0A3ACEF3
:1051B0000E94F702DC0112960D911C910115110558
:1051C00009F4E8CED801ED91FC910190F081E02D39
:1051D000BE016B5E7F4FC8010995811123CEF80196
:1051E00000851185EBCF181619060CF41BCED2CE14
:1051F000F1E0FF12BECE6EE473E004CF1F920F9277
:105200000FB60F9211242F933F934F935F936F9399
:105210007F938F939F93AF93BF93CF93DF93EF933E
:10522000FF938091AE04C091AD04D0E087FF24C00D
:1052300010928500109284008091AE048F5F80935D
:10524000AE048091AE04082E000C990B8C179D07BC
:1052500024F48091AE048C30C4F18091840090914C
:105260008500049680349C4908F47AC080918400BB
:1052700090918500049676C08091AE04082E000CB3
:10528000990B8C179D07C4F6E091AE048E2FEE0F9C
:10529000990BFC01EE0FFF1FE80FF91FE757FB4FBB
:1052A000808186FFC9CFE091AE048E2FEE0F990B5F
:1052B000FC01EE0FFF1FE80FF91FE757FB4F80813E
:1052C00060E08F730E942703B7CF20918400309154
:1052D0008500E091AE048E2FEE0F990BFC01EE0FCE
:1052E000FF1FE80FF91FE757FB4F81819281820F63
:1052F000931F9093890080938800E091AE048E2FD5
:10530000EE0F990BFC01EE0FFF1FE80FF91FE75797
:10531000FB4F808186FF11C0E091AE048E2FEE0F0F
:10532000990BFC01EE0FFF1FE80FF91FE757FB4F2A
:10533000808161E08F730E942703FF91EF91DF91DD
:10534000CF91BF91AF919F918F917F916F915F911D
:105350004F913F912F910F900FBE0F901F90189576
:1053600080E49CE990938900809388008FEF80937C
:10537000AE04E3CF1F920F920FB60F9211242F931A
:105380003F934F935F936F937F938F939F93AF93CD
:10539000BF93EF93FF938091B900887F803609F423
:1053A0004AC0F0F5883209F4A7C018F5803109F435
:1053B0009BC0B8F4882309F4F9C0883009F494C07C
:1053C000FF91EF91BF91AF919F918F917F916F91DD
:1053D0005F914F913F912F910F900FBE0F901F90B3
:1053E0001895883109F488C0803251F780934205BE
:1053F00014C0803409F49DC040F48033B9F388337D
:10540000F9F68093420585ECB0C0803509F485C07B
:10541000883509F496C0883499F60E941419D0CFC3
:10542000883909F48CC038F5883729F050F488366B
:1054300011F0803729F683E08093440510928804A8
:1054400057C0883809F47BC0803919F0803809F0DA
:10545000B7CF80918804803208F071C0E091880451
:1054600081E08E0F809388048091BB00F0E0E859C2
:10547000FB4F80833DC0803B39F0E0F4803A09F473
:1054800079C0883A09F09CCF84E08093440510925B
:10549000650410926404E0916204F091630409953C
:1054A0008091640481110FC081E0809364041092A4
:1054B000420409C0803C09F4A6CF883C09F4A3CF7C
:1054C000883B09F07DCFE091650481E08E0F8093E9
:1054D0006504F0E0EE5BFB4F80818093BB00909110
:1054E00065048091640429C080911F058093BB00EE
:1054F00085EC8093BC0064CF90914105809140057C
:10550000981758F5E091410581E08E0F8093410591
:10551000F0E0E05EFA4F8081E9CFE091410581E063
:105520008E0F809341058091BB00F0E0E05EFA4F62
:10553000808390914105809140059817C8F285E8D5
:10554000D8CFE091410581E08E0F80934105809195
:10555000BB00F0E0E05EFA4F80838091430581114B
:105560005CCF81E080931E0584EA8093BC0010929A
:10557000440526CF85EC8093BC00109244058091B1
:105580008804803230F4E0918804F0E0E859FB4F61
:1055900010826091880470E0E0916604F0916704E5
:1055A00088E694E00995109288040ACF109242058B
:1055B00034CFEF92FF920F931F93CF93DF93F82E88
:1055C000192FE62E042F81E0860F880F0E94890490
:1055D00083E00E948904CF2DD12FEC0EFD2EF11C0B
:1055E000CE15DF05B9F007FF13C0FE0184910E94BC
:1055F0008904182F80E00E9489048123219681115B
:10560000EFCFDF91CF911F910F91FF90EF90089511
:105610008881EDCF81E0F5CF1092470710924607C1
:1056200088EE93E0A0E0B0E08093480790934907AC
:10563000A0934A07B0934B0782EC91E09093450703
:10564000809344078FEF9FEF90935107809350070B
:10565000A6E2B7E090E080E041E2FC013E9621E066
:1056600030E08630910510F430E020E0E20FF31FC7
:1056700040935700E491ED9301968930910569F7C5
:10568000109232071092310788EE93E0A0E0B0E06C
:105690008093330790933407A0933507B093360770
:1056A00084ED91E09093300780932F0710923F078D
:1056B0008FEF80933B0780933C0780933D07809357
:1056C0003E07109243071092420710926B08109207
:1056D0006A0884E497E090936608809365081092C6
:1056E0009C078CE2809368088BE3809367088FE2C5
:1056F0008093690880E6809397078FE580939807E9
:105700001092960710926108109260081092630838
:105710001092620881E080935E08ECE6F8E082EB8C
:1057200098E0119211928E179F07D9F710929B075C
:105730000895789484B5826084BD84B5816084BD09
:1057400085B5826085BD85B5816085BD80916E001F
:10575000816080936E001092810080918100826050
:10576000809381008091810081608093810080918D
:10577000800081608093800080919100826080939E
:1057800091008091910081608093910080919000C0
:105790008160809390008091C10084608093C100FB
:1057A0008091C10082608093C1008091C1008160BE
:1057B0008093C1008091C30081608093C300809179
:1057C000C00082608093C0008091C200816080939D
:1057D000C20080917A00846080937A0080917A0080
:1057E000826080937A0080917A00816080937A0051
:1057F00080917A00806880937A0010921D05109243
:10580000B6041092B5048091D70081608093D700D0
:1058100080EA8093D80089B5806189BD89B58260AE
:1058200089BD09B400FEFDCF61E070E080E090E04A
:105830000E944B048091D8008F7C80618093D800B7
:105840008091E000807F8093E0008091E1008E7E77
:105850008093E1008DE08093E200559A209A8FEFCB
:105860009FEF909351078093500780E094E09093CE
:105870004307809342078EE796E190936B088093ED
:105880006A0886ED9DE190936D0880936C0881EE27
:105890009CE190936F0880936E0880EF9DE1909358
:1058A000A1088093A0088EE793E1909371088093FC
:1058B00070088DED9BE190937308809372088BE8DC
:1058C00093E190939708809396088EE993E19093E3
:1058D0009908809398088EE29AE19093AB088093A0
:1058E000AA0881EF93E1909375088093740881E88A
:1058F00095E290937F0880937E0885ED97E19093E1
:105900008508809384088BE294E2909383088093C7
:1059100082088DE896E190938708809386088AE351
:1059200097E1909389088093880884EC93E29093A0
:105930008D0880938C088EEC94E29093930880936A
:10594000920881E795E2909395088093940885E802
:1059500092E190939B0880939A0885EC94E1909350
:105960009F0880939E0888EC93E29093A30880930D
:10597000A20881E080939C070E94BD1190E080E026
:105980000E940E150091420710914307833299F44B
:105990000033110580F0F2E2EF2EF1E0FF2ED0E0AF
:1059A000C0E02196CE010E94F831D7018D937D0190
:1059B000CF32D105B1F71092B8041092B7048BE33F
:1059C00090E0EC0121960E940E15882309F409C18C
:1059D0008091B7049091B80401969093B804809395
:1059E000B704CE010C171D0760F76CE773E085E084
:1059F0000E945A160E947D046093EB047093EC049D
:105A00008093ED049093EE040E947D046093EF0474
:105A10007093F0048093F1049093F2040E947D044B
:105A20006E5F7F4F8F4F9F4F6093F3047093F4042A
:105A30008093F5049093F6040E947D046C5F7F4F81
:105A40008F4F9F4F6093F7047093F8048093F9048D
:105A50009093FA040E947D046C5F7F4F8F4F9F4F9D
:105A60006093FB047093FC048093FD049093FE0408
:105A70000E947D046A5F7F4F8F4F9F4F6093FF04AA
:105A80007093000580930105909302050E947D04A8
:105A9000685F7F4F8F4F9F4F60930305709304059E
:105AA00080930505909306056624639455245394CA
:105AB000E0E0AE2EE0E0BE2E7724739480919B0749
:105AC0008111C9C08091650890916608DC01ED9153
:105AD000FC910084F185E02D0995892B09F4BBC068
