:100000000C9494010C94BC010C94BC010C94BC01A4
:100010000C94BC010C94BC010C94BC010C94BC016C
:100020000C94BC010C94BC010C94BC010C94C22433
:100030000C94BC010C94BC010C94BC010C94BC014C
:100040000C9412240C94BC010C9482240C945C2417
:100050000C94BC010C94BC010C94BC010C94BC012C
:100060000C947E250C94BC016E2F61004F4B004F09
:100070004B004F4B00427574746F6E20646F657354
:10008000206E6F742066697420696E204D656D6FF7
:100090007279004F757470757420646F6573206E8B
:1000A0006F742066697420696E204D656D6F72797A
:1000B00000375365676D656E7420646F6573206EDD
:1000C0006F742066697420696E204D656D6F72795A
:1000D0002100536572766F20646F6573206E6F74B4
:1000E0002066697420696E204D656D6F72792100FC
:1000F0004C434420646F6573206E6F74206669748E
:1001000020696E204D656D6F72792100416E616CC2
:100110006F67496E20646F6573206E6F7420666927
:100120007420696E204D656D6F7279004F75747023
:1001300075745368696674657220646F6573206EA8
:100140006F742066697420696E204D656D6F7279D9
:1001500000496E7075745368696674657220646FC7
:100160006573206E6F742066697420696E204D651A
:100170006D6F727900446967496E4D757820646FC0
:100180006573206E6F742066697420696E204D65FA
:100190006D6F7279004661696C757265206F6E20B3
:1001A00072656164696E6720636F6E666967004D92
:1001B0006F6269466C6967687420556E6F00456EA2
:1001C000636F6465727320646F6573206E6F742053
:1001D00066697420696E204D656D6F7279007E309E
:1001E0006D79335B5F707F7B771F0D3D4F4700005C
:1001F00000000000000000000000000000000000FF
:1002000000000000000000000000800180257E301A
:100210006D79335B5F707F7B000000090000007721
:100220007F4E7E4F475F37307C000E00767E677EC4
:10023000775B463E000000336D4E13780008007D6A
:100240001F0D3D4F477B373038000600151D677383
:10025000055B0F1C000000276D4E007800004D4626
:100260005374657070657220646F6573206E6F746F
:100270002066697420696E204D656D6F7279005338
:1002800074657070657220646F6573206E6F742082
:1002900066697420696E204D656D6F727921004426
:1002A0006576696365427566666572204F7665722C
:1002B000666C6F7721004C6F6164696E6720636FB5
:1002C0006E666967206661696C65640000000008FD
:1002D000000201000003040700000000000000000D
:1002E00000000000240027002A0000000000250074
:1002F00028002B0000000000230026002900040431
:1003000004040404040402020202020203030303BD
:100310000303010204081020408001020408102099
:100320000102040810209D2611241FBECFEFD8E043
:10033000DEBFCDBF12E0A0E0B1E0E8E3F5E602C029
:1003400005900D92A230B107D9F727E0A2E0B2E004
:1003500001C01D92AF3EB207E1F711E0C4E9D1E060
:1003600004C02197FE010E94702EC339D107C9F73E
:100370000E9450270C949A320C940000AC01109209
:10038000D4069091A4078091A307FA01BF01641BD2
:10039000750B2091D40630813093D406931304C09A
:1003A000921302C01092D4063081311104C092170A
:1003B00021F0CB0108953817D1F33196E7CF0F9391
:1003C0001F93CF93DF9380919807882309F446C049
:1003D000D0E0C0E0813029F482E080939807C8ED36
:1003E000D6E080919907882341F1209721F4C091AC
:1003F0009D07D0919E078E01CE010E94BE01892BE0
:1004000029F42196F80180818111F5CFF8018081CE
:10041000882309F1C8010E94BE01F801E80FF91F05
:100420008081882311F010823196F0939E07E0932B
:100430009D0710939C0700939B0780919B079091C9
:100440009C07892B59F081E080939907DF91CF9128
:100450001F910F91089510E000E0EBCF80E0F6CF00
:100460000E94DF01882351F081E0809399078093F7
:100470009A0780919B0790919C07089510929A0784
:1004800090E080E0089590E0FC01EE5EFC4F249146
:10049000FC01E250FD4FE491EE2371F0F0E0EE0F2D
:1004A000FF1FEC50FD4FA591B491EC91E22381E048
:1004B00090E021F480E0089580E090E0089590E0DD
:1004C000FC01EE5EFC4F2491FC01E250FD4FE491F3
:1004D000EE2389F0F0E0EE0FFF1FE651FD4FA591EE
:1004E000B4918FB7F894611107C09C91E22FE09509
:1004F000E923EC938FBF0895EC91E22BFACFCF93D1
:10050000DF9390E0FC01EE5EFC4F249182509D4F02
:10051000FC0184918823C9F090E0880F991FFC01A9
:10052000E052FD4FA591B491FC01E651FD4FC591FC
:10053000D49161110DC09FB7F8948C9120958223BE
:100540008C938881282328839FBFDF91CF910895C2
:10055000623051F49FB7F8943C91822F80958323A9
:100560008C93E8812E2BEFCF8FB7F894EC912E2B44
:100570002C938FBFEACF1F93CF93DF93182FEB01FC
:1005800061E00E947F02209739F460E0812FDF91C3
:10059000CF911F910C945F02CF3FD10511F461E020
:1005A000F5CFE12FF0E0E453FD4FE491E33031F17A
:1005B00040F4E130B1F0E230E1F0C038D1057CF731
:1005C000E4CFE73029F1E83059F1E430B1F7809118
:1005D0008000806280938000D0938B00C0938A005B
:1005E00004C084B5806884BDC7BDDF91CF911F91E1
:1005F000089584B5806284BDC8BDF7CF8091800026
:10060000806880938000D0938900C0938800EDCFEC
:100610008091B00080688093B000C093B300E5CFB4
:100620008091B00080628093B000C093B400DDCFB1
:100630003FB7F8948091820490918304A091840440
:10064000B091850426B5A89B05C02F3F19F00196EF
:10065000A11DB11D3FBFBA2FA92F982F8827BC011C
:10066000CD01620F711D811D911D42E0660F771F44
:10067000881F991F4A95D1F708952FB7F894609174
:100680007E0470917F0480918004909181042FBF3B
:100690000895DC01ED91FC910190F081E02D099429
:1006A000EF92FF920F931F93CF93DF938C017B0107
:1006B000D0E0C0E0F701EC0FFD1F6491662361F00C
:1006C000D801ED91FC910190F081E02DC8010995D0
:1006D000892B11F02196EECFCE01DF91CF911F91A2
:1006E0000F91FF90EF900895AF92BF92CF92DF925B
:1006F000EF92FF920F931F93CF93DF936C017B01D7
:100700008B01040F151FEB015E01AE18BF08C01767
:10071000D10759F06991D601ED91FC910190F081DA
:10072000E02DC6010995892B79F7C501DF91CF919D
:100730001F910F91FF90EF90DF90CF90BF90AF90FF
:100740000895FC01538D448D252F30E0842F90E0D7
:10075000821B930B541710F0CF96089501970895BC
:10076000FC01918D828D981779F0A28DAE0FBF2F6D
:10077000B11D5D962C91828D8F5F60E60E94502E98
:10078000928F822F90E008958FEF9FEF0895FC01E4
:10079000918D828D981731F0828DE80FF11D858D36
:1007A00090E008958FEF9FEF0895FC01918D228DC9
:1007B000892F90E0805A9F4F821B910960E670E07C
:1007C0000E945C2E089582E196E00E94D50321E00C
:1007D000892B09F420E0822F089580E090E0892B96
:1007E00029F00E94E30381110C9400000895FC019C
:1007F000A48DA80FB92FB11DA358BF4F2C91848D84
:1008000090E001968F739927848FA689B7892C93DE
:10081000A089B1898C91837080648C93938D848D31
:10082000981306C00288F389E02D80818F7D808334
:100830000895EF92FF920F931F93CF93DF93EC01F4
:1008400081E0888F9B8D8C8D98131AC0E889F98977
:10085000808185FF15C09FB7F894EE89FF8960837A
:10086000E889F98980818370806480839FBF81E0FB
:1008700090E0DF91CF911F910F91FF90EF9008953D
:10088000F62E0B8D10E00F5F1F4F0F731127E02E18
:100890008C8D8E110CC00FB607FCFACFE889F98950
:1008A000808185FFF5CFCE010E94F703F1CFEB8D5C
:1008B000EC0FFD2FF11DE358FF4FF0829FB7F89426
:1008C0000B8FEA89FB8980818062CFCFCF93DF9342
:1008D000EC01888D8823B9F0AA89BB89E889F98958
:1008E0008C9185FD03C0808186FD0DC00FB607FC8D
:1008F000F7CF8C9185FFF2CF808185FFEDCFCE01C0
:100900000E94F703E9CFDF91CF91089508952091D8
:10091000E403260F3327331F21323105ECF42091F5
:10092000AC04FC0190E080E0243069F082E008959E
:10093000A091E4032191AC014E535C4FA40FB52F5D
:10094000B11D2C930196861798F38091E403680FEC
:100950006093E40380E0089581E008951092AC0470
:1009600081E08093AB041092860461E082E10E94F2
:100970005F0261E083E10E945F02E9EBF0E08081C9
:100980008E7F808380818D7F808388E48093B80010
:1009900085E48093BC000895CF93DF9391E090931A
:1009A000C1038823B9F0C091B800D091BA008091FA
:1009B000BC008A7B8093BC0060E082E10E945F0201
:1009C00060E083E10E945F020E94AE04D093BA000F
:1009D000C093B800DF91CF9108958F929F92AF920C
:1009E000BF92CF92DF92EF92FF920F931F93CF931C
:1009F000DF93D091D504D13208F0D7C0182FC09121
:100A0000D4040E9418036B017C018091AC04811115
:100A10006BC082E08093AC041093AB048FEF8093A3
:100A2000AA041092A904D093A804A4EBB4E0E8E8C7
:100A3000F4E080E0D81391C010928704809187047D
:100A4000CC0FC82BC093870480918604813009F0B5
:100A500088C0109286040E9418036B017C0180916B
:100A600087048093BB008091AE049091AF04A09165
:100A7000B004B091B104892B8A2B8B2BA1F00E947A
:100A800018030091AE041091AF042091B00430918E
:100A9000B1046C197D098E099F09061717072807ED
:100AA000390708F442C08091BC0083FDD8CF85ECA3
:100AB0008093BC000E9418036B017C018091AC0400
:100AC000823009F450C08091AA048F3F09F46FC0AE
:100AD0008091AA04803209F46CC08091AA0480330A
:100AE00009F469C084E026C08091AE049091AF04FF
:100AF000A091B004B091B104892B8A2B8B2B09F4FF
:100B000084CF0E9418038090AE049090AF04A09010
:100B1000B004B090B1046C197D098E099F09861646
:100B20009706A806B90608F070CF8091AD040E9420
:100B3000CC0485E01092B3041092D5041092B20454
:100B4000DF91CF911F910F91FF90EF90DF90CF90A9
:100B5000BF90AF909F908F9008959D9191938F5FDC
:100B600069CF85EEA5CF8091AE049091AF04A0919E
:100B7000B004B091B104892B8A2B8B2B09F49ECF42
:100B80000E9418030091AE041091AF042091B004AC
:100B90003091B1046C197D098E099F09061717075A
:100BA0002807390708F08ACFC0CF81E0C3CF80E0A3
:100BB000C1CF82E0BFCF83E0BDCF81E00C94ED04D4
:100BC000089508950895E091C0038091BF03E81748
:100BD00030F4F0E0E156FC4F808190E008958FEF13
:100BE0009FEF08959091C0038091BF032FEF3FEFD7
:100BF000981748F4E92FF0E0E156FC4F208130E0EF
:100C00009F5F9093C003C90108958091BF039091A5
:100C1000C003891B990B0895CF92DF92EF92FF9248
:100C20000F931F93CF93DF937C01CB018A01209117
:100C3000B204222389F0EB016B01C40ED51ECC1542
:100C4000DD0569F06991D701ED91FC910190F0818A
:100C5000E02DC7010995F3CF642F0E948704C801D6
:100C6000DF91CF911F910F91FF90EF90DF90CF9088
:100C70000895CF93DF931F92CDB7DEB7698320919C
:100C8000B2042223F9F02091D504203258F021E05B
:100C900030E0FC013383228390E080E00F90DF910D
:100CA000CF9108958091B304E82FF0E0EC54FB4F0E
:100CB000998190838F5F8093B3048093D50481E002
:100CC00090E0ECCF61E0CE0101960E948704F7CF5F
:100CD000CF93C82F682F64608DEF95E00E9439068E
:100CE0006C2F70E06B7F8DEF95E0CF910C943906FF
:100CF0000F931F93CF93DF938C01C62FD42FFC014A
:100D0000848191E09093B2048093D4041092B30450
:100D10001092D504862F807F842B9585892B0E9485
:100D20006806F0E1CF9FC0011124F8019585892B59
:100D30008D2B0E946806DF91CF911F910F910C942B
:100D4000DD05CF93DF93CDB7DEB728970FB6F894C4
:100D5000DEBF0FBECDBF28E0EAE4F1E0DE01119670
:100D600001900D922A95E1F7FC012385241710F4D8
:100D70004FEF420F50E0440F551F21E030E02C0FA1
:100D80003D1F420F531FFA012081620F606840E04F
:100D900028960FB6F894DEBF0FBECDBFDF91CF917E
:100DA0000C947806CF93DF93EC0140E061E00E9461
:100DB00078068BE39FE10197F1F78985882339F065
:100DC00040E060E0CE01DF91CF910C94A106DF916D
:100DD000CF91089541E00E94780681E090E0089567
:100DE000FC01248131E03093B2042093D4041092AA
:100DF000B3041092D504607F8585862B0E94680617
:100E00000C94DD05AF92BF92CF92DF92EF92FF92EA
:100E10000F931F93CF93DF936C01FC01848191E0CA
:100E20009093B2048093D4041092B3041092D5042A
:100E3000EB01042F10E05B01A00EB11EF12CEE249B
:100E4000E394CA15DB0541F18991F601958591601E
:100E5000807F892B0E946806FE0131972081F0E196
:100E60002F0290011124F60185858160822B0E945A
:100E70006806F394F7E0FF1520F780E00E94ED0488
:100E8000F6018481E092B2048093D4041092B304FA
:100E90001092D504F12CD5CF0E94DD05C801019731
:100EA000DF91CF911F910F91FF90EF90DF90CF9046
:100EB000BF90AF90089590E080E00895CF93DF93C6
:100EC000FC012381222359F1EC0161E084810E941D
:100ED0007F0261E08D810E947F028B81843011F05E
:100EE0008830B1F461E08E810E947F0261E08F81E1
:100EF0000E947F028FA58F3F91F061E00E947F02E8
:100F00006EA581E068278FA5DF91CF910C945F02D9
:100F1000833011F0863071F761E08E81E9CFDF9187
:100F2000CF910895CF93DF93FC0123812223A9F071
:100F3000EC010190F081E02D0480F581E02D60E06E
:100F400009958FA58F3F49F061E00E947F026EA551
:100F50008FA5DF91CF910C945F02DF91CF9108951F
:100F6000DC01ED91FC91248135814770552766277E
:100F700077274150510961097109473051056105D1
:100F8000710560F4FA01E953F84F0C94702ED10703
:100F9000D307D507D707D907DB07DD0761E0F901DC
:100FA000099465E0FCCF64E0FACF66E0F8CF62E038
:100FB000F6CF6AE0F4CF68E0F2CF69E0F0CFCF93EC
:100FC000DF93EC01CB01BA0126E030E040E050E0D5
:100FD0000E94A62D623071058105910589F16CF49E
:100FE0006115710581059105D1F0613071058105AB
:100FF0009105F9F0DF91CF91089564307105810575
:10100000910561F124F1653071058105910591F734
:10101000E881F9810480F581E02D66E006C0E88171
:10102000F9810480F581E02D64E0CE01DF91CF915C
:101030000994E881F9810480F581E02D65E0F5CF20
:10104000E881F9810480F581E02D61E0EECFE8814F
:10105000F9810480F581E02D63E0E7CFE881F98133
:101060000480F581E02D62E0E0CFDC01ED91FC91A0
:101070000480F581E02D437055276627772742309D
:1010800051056105710571F0433051056105710528
:1010900059F0413051056105710511F065E0099481
:1010A00066E0FDCF6AE0FBCF69E0F9CFCF93DF9335
:1010B000EC01CB01BA0123E030E040E050E00E94B7
:1010C000A62D613071058105910599F06230710599
:1010D00081059105A9F0672B682B692BC1F4E88184
:1010E000F9810480F581E02D64E0CE01DF91CF919C
:1010F0000994E881F9810480F581E02D61E0F5CF64
:10110000E881F9810480F581E02D62E0EECFDF9186
:10111000CF910895DC01ED91FC910480F581E02DE3
:1011200043705527662777274230510561057105C1
:1011300071F0433051056105710559F04130510599
:101140006105710511F062E0099463E0FDCF61E093
:10115000FBCF60E0F9CFCF93DF93EC01E881F98119
:101160000480F581E02D8A8160E0811162E0CE018A
:101170000995E881F9810480F581E02D8A8161E09B
:10118000811163E0CE0109958CA59DA58230910562
:1011900038F0880F991F880F991F05970197F1F76D
:1011A000E881F9810480F581E02D8A8160E0811178
:1011B00062E0CE01DF91CF910994CF93DF93EC01F0
:1011C00020E030E0A9016C897D898E899F890E9489
:1011D0008B2F18162CF4E8A9F9A9DF91CF91099467
:1011E000EAA9FBA9FACFCF92DF92EF92FF920F9379
:1011F0001F93CF93DF93DC011396CC91C43039F069
:10120000C83059F1C33019F0C63049F1C2E08C0141
:101210000C5F1F4FF12CE12CC62ED12CD1E0F80130
:101220006481C6010E2C02C0959587950A94E2F759
:1012300080FD6D270F5F1F4F80810E945F02BFEF0F
:10124000EB1AFB0AEC1658F3DF91CF911F910F9127
:10125000FF90EF90DF90CF900895C4E0D8CFC3E027
:10126000D6CFDC011396EC911397E93008F038C023
:10127000F0E0E35CF64F0C94702E46094C095209DD
:1012800058095E097009640970096A09ED91FC91B9
:101290000084F185E02D0994ED91FC910284F385A1
:1012A000E02DF9CFED91FC910484F585E02DF3CF8D
:1012B000ED91FC910684F785E02DEDCFED91FC9149
:1012C0000088F189E02DE7CFED91FC910288F38948
:1012D000E02DE1CFED91FC910488F589E02DDBCF85
:1012E00008954F925F926F927F928F929F92AF92EA
:1012F000BF92CF92DF92EF92FF920F931F93CF9303
:10130000DF93EC01C888D988EA88FB888C859D85A5
:10131000AE85BF85C81AD90AEA0AFB0A6C897D899D
:101320008E899F899B01AC010E94D22C4B015C01EC
:101330006C8D7D8D8E8D9F8D9B01AC010E94772ED3
:101340009B01AC01C501B4010E94E32E0E94552F00
:10135000C114D104E104F10409F0B1C06230710597
:10136000810591050CF0CBC01CA21DA21EA21FA2DC
:101370001C8A1D8A1E8A1F8A1CAA1DAA1EAA1FAAB1
:10138000DF91CF911F910F91FF90EF90DF90CF9061
:10139000BF90AF909F908F907F906F905F904F9095
:1013A00008951016110612061306B4F46C157D0587
:1013B0008E059F051CF42A812111A1C09B01AC015F
:1013C00088279927DC01821B930BA40BB50B8CABF0
:1013D0009DABAEABBFAB93C0011511052105310527
:1013E00009F48DC06C157D058E059F050CF087C036
:1013F0008A81882309F483C0309520951095019542
:101400001F4F2F4F3F4F0CAB1DAB2EAB3FAB77C0E9
:10141000011511052105310509F471C088249924AD
:1014200054018C189D08AE08BF08681579058A0517
:101430009B050CF064C08A81811161C0DDCFCCAC0A
:10144000DDACEEACFFACA7019601C701B6010E946E
:10145000772E2B013C01C501B4010E94732C20E0C2
:1014600030E040E850E40E94D22C20E030E040E838
:101470005FE30E94772E9B01AC01C301B2010E9481
:10148000E32E9B01AC01C701B6010E94762E3B0101
:101490006C01FE01E05CFF4FE080F180028113816E
:1014A0009701A8010E948B2F181614F4730186016E
:1014B000C701D8018CAF9DAFAEAFBFAF3AC00CA98A
:1014C0001DA92EA93FA91C141D041E041F040CF401
:1014D00068CF10161106120613060CF099CF0027DC
:1014E000112798010C191D092E093F096017710772
:1014F000820793070CF062CF2A8121115FCF8CA85D
:101500009DA8AEA8BFA881149104A104B10409F05C
:1015100096CF88AD99ADAAADBBAD8CAF9DAFAEAF48
:10152000BFAF81E01C141D041E041F040CF080E0FA
:101530008A833FEF831A930AA30AB30A8CAA9DAA4F
:10154000AEAABFAACCACDDACEEACFFACC701B60115
:101550000E945C2F6CA37DA38EA39FA3A70196017D
:1015600060E074E284E799E40E94E32E6C8B7D8B4B
:101570008E8B9F8B2A81211103CF90586C8B7D8B92
:101580008E8B9F8BFDCE8F929F92AF92BF92EF92E8
:10159000FF920F931F93CF937C018B01C42F0E9466
:1015A0003D03F80180809180A280B380DC01CB01F3
:1015B00088199909AA09BB094C2F50E070E060E036
:1015C00084179507A607B70748F0F70109950E9409
:1015D0003D03F8016083718382839383CF911F91D0
:1015E0000F91FF90EF90BF90AF909F908F900895D4
:1015F00020919D0330919E03280F311D81E02D32F3
:10160000314008F080E00895FC0184818823E1F0F6
:101610008181811119C081E0818382819381FC01E4
:101620004089518962897389403659476E4F7F4F8F
:1016300059F040E659E76EEF7FEFFC01408B518B8C
:10164000628B738B0C94710908954F925F926F9225
:101650007F928F929F92AF92BF92DF92EF92FF9212
:101660000F931F93CF93DF93D12C08E810E0B8E5D8
:10167000EB2EB2E0FB2EC4EB4C2E512C612C712CC6
:1016800080917002D81608F096C0ED2DF0E0EE0FB4
:10169000FF1FE459FD4FC081D18189899A89AB89A7
:1016A000BC894D855E856F85788984179507A60767
:1016B000B70709F47AC0481759076A077B070CF087
:1016C00076C00197A109B109898B9A8BAB8BBC8B32
:1016D000A989BA89A03282E0B807ACF52B85480108
:1016E000821A910827FD9394880C991C880C991CE8
:1016F000092C000CAA08BB082C85C701821B910984
:1017000027FD93959C01220F331F220F331F032EB9
:10171000000C440B550B281939094A095B09A53BF4
:10172000B10514F0A4EBB0E0B7FF02C0B0E0A0E058
:101730000E94D02DA30192010E94A62D820E931E1D
:10174000A41EB51ED401EA85EC3078F52B85C801BE
:10175000821B910927FD93959C01220F331F220FB5
:10176000331FA217B3077CF02C85C701821B910998
:1017700027FD93959C01220F331F220F331FA217C1
:10178000B3070CF49D0122503109220F331F4FB7CC
:10179000F8948E2F90E0FC01EE0FFF1FE80FF91F69
:1017A000E75FFB4F328321834FBFD39469CF01960C
:1017B000A11DB11D89CFDF91CF911F910F91FF9096
:1017C000EF90DF90BF90AF909F908F907F906F9041
:1017D0005F904F9008958BE891E00197F1F708959D
:1017E000EF92FF920F931F93CF93DF93EC01162F8D
:1017F000E42EFF24F394442311F080E8F82E08E04F
:1018000061E089810E947F020E94EB0B61E08F2DD5
:10181000812309F060E088810E947F020E94EB0B27
:1018200060E089810E947F020E94EB0BEE2081F133
:10183000110F015029F761E089810E947F0260E069
:1018400088810E947F020E94EB0B60E089810E94E8
:101850007F020E94EB0B88810E944302182F8111A6
:1018600004C061E088810E947F020E94EB0B61E06E
:1018700089810E947F020E94EB0B81E0111101C05F
:1018800080E0DF91CF911F910F91FF90EF9008952D
:101890001695CFCFCF93DF93EC0161E088810E9452
:1018A0007F020E94EB0B60E089810E947F020E9410
:1018B000EB0B60E088810E947F02DF91CF910C9456
:1018C000EB0B61E0FC0180810E947F020C94EB0B2A
:1018D000AF92BF92CF92DF92EF92FF920F931F933E
:1018E000CF93DF93EC01162F042FAC880E94610C7C
:1018F00040E060E4CE010E94F00BCE010E944A0C51
:1019000010958C89180FC02ED12CE12EF12C84E07B
:10191000B12EA81631F0F601EE0DFF1DE657FE4F71
:10192000B080CE010E94610C60EC6B0D40E0CE01F6
:101930000E94F00B8C89CE0CDF1C8C151D0414F456
:10194000082F011B10E0DD24DA94D00EEC0EFD1EF2
:10195000011781F084E0ED2DE11BA81201C0E12FF9
:10196000EE0DFF2DF11D41E06381CE010E94F00BD1
:101970001F5FEECFCE01DF91CF911F910F91FF90AE
:10198000EF90DF90CF90BF90AF900C944A0CEF9205
:10199000FF921F93CF93DF93EC01162F8C8180FF72
:1019A00010C0603170F46D837E0184E0E80EF11C9C
:1019B000612F617089910E945F021695EC16FD06F9
:1019C000B9F7DF91CF911F91FF90EF900895DC015F
:1019D000842FE0915F02F0916002309719F04D91F1
:1019E0005C91099408954F925F926F927F928F92CB
:1019F0009F92AF92BF92CF92DF92FF920F931F936D
:101A0000CF93DF93F12C80915902F81608F0EEC0C5
:101A1000EF2DF0E0EE0FFF1FE95BFD4FC081D1819C
:101A20008A81882309F4B3C088810E9443028C0113
:101A300089810E9443026C010E943D034B015C01BD
:101A400081E090E0CD2811F090E080E0880F991FB0
:101A500021E0012B09F020E0922F982B4B8D5C8D1B
:101A60006D8D7E8D95018401041B150B260B370BA4
:101A7000B901A801453651056105710508F489C011
:101A80008885823008F485C08B8E9C8EAD8EBE8E8C
:101A900081508887EE859E1709F445C0888503E349
:101AA00010E0873010F401E010E06D8524E0E202E0
:101AB000F0011124492F092E000C550BE42BF52BB6
:101AC000E558FE4F708170039001719F300D112415
:101AD000062E02C0220F331F0A94E2F7EF85F88921
:101AE0002E0F3F1F388B2F874C0F5D1FFA0141854A
:101AF0004423C1F04B885C886D887E884F8A588E5D
:101B0000698E7A8E8B8A9C8AAD8ABE8A02C0359590
:101B100027956A95E2F73A8B298B8C3008F08BE099
:101B20008F5F88879E8709891A898D819E81081712
:101B3000190769F19801281B390BC901E091450289
:101B4000F09146026901CC0CDD1C309709F44BC0C2
:101B50004B815C812F5C3F4F23363105E0F597FDCB
:101B600030C0688180E00995C00ED11E31E4C316F3
:101B70003FE1D30654F08F85988983709927988B1D
:101B80008F871A8A198A10E000E01E830D83F39470
:101B90003ACF4F89588D698D7A8D95018401041B48
:101BA000150B260B370BB901A801453F51406105C4
:101BB000710508F46FCF8B8E9C8EAD8EBE8E18860D
:101BC00069CF698182E00995C8018C199D09803C23
:101BD000904E8CF2DACF97FD03C0688181E0C3CFCD
:101BE000698183E0F0CF37FDEFCFBECFDF91CF919A
:101BF0001F910F91FF90DF90CF90BF90AF909F907B
:101C00008F907F906F905F904F900895CF92DF926A
:101C1000EF92FF920F931F93CF93DF936C017A01A2
:101C20008091430290914402892B31F1D6011396A1
:101C30008C9100E181FD08E0EB01CE25DF2510E06D
:101C4000C0FF13C08091430290914402892B69F038
:101C5000E0914102F0914202309739F0D6014D9166
:101C60005C91612F8E2D81700995D695C795F6945C
:101C7000E7941F5F0113E4CFDF91CF911F910F9184
:101C8000FF90EF90DF90CF900895AF92BF92CF92E8
:101C9000DF92EF92FF920F931F93CF93DF931F92E8
:101CA000CDB7DEB7C0904302D0904402C114D10436
:101CB00009F43FC0FC01238130E1B32E21FF02C0B3
:101CC00028E0B22EA62E8C01F60185818683F12CA8
:101CD000E12CBA946B2DC6010E94C70CF8018281D9
:101CE0000E9443028983F80182810E944302898312
:101CF000EE0CFF1C298181E090E0211102C090E0F0
:101D000080E0E82AF92AB110E4CFF6016681C60125
:101D10000E94C70CF801648175816E157F0549F03A
:101D2000AA2021F0A701C8010E94060EF801F58241
:101D3000E4820F90DF91CF911F910F91FF90EF9070
:101D4000DF90CF90BF90AF900895CF93C0E0809187
:101D50004002C81768F4EC2FF0E0EE0FFF1FE65CBE
:101D6000FD4F61E0808191810E94450ECF5FEFCFF2
:101D7000CF910895DC01E0913802F091390230975B
:101D800061F013968C911397882339F04D915C91F3
:101D9000119712966C9181E009940895DC01E0910D
:101DA0003802F0913902309759F013968C911397BD
:101DB000811106C04D915C91119712966C91099416
:101DC00008951F93CF93DF9310E080913702181787
:101DD000F0F4E12FF0E0EE0FFF1FED5EFD4FC0814C
:101DE000D1818A810E9443029B81891751F091E041
:101DF000811101C090E09B83811105C0CE010E943A
:101E0000CE0E1F5FE2CFCE010E94BA0EFACFDF9155
:101E1000CF911F910895FC01A08DB0E01396AA0FF9
:101E2000BB1FA80FB91F868997892D913C91821BF2
:101E3000930B978B868B82818E3008F08E50877043
:101E4000806480937C0080917A00806480937A0023
:101E500080917A0086FDFCCF909178008091790086
:101E6000A08DB0E01396AA0FBB1FAE0FBF1F89272E
:101E7000982789278D939C93A08DB0E01396AA0F85
:101E8000BB1FAE0FBF1F868997892D913C91820F92
:101E9000931F978B868B808D8F5F808F808D87704F
:101EA000808F0895CF93C0E080911202C81760F42C
:101EB000EC2FF0E0EE0FFF1FEA5FFD4F8081918174
:101EC0000E940B0FCF5FF0CFCF910895CF93C0E06A
:101ED00080911202C817B8F5EC2FF0E0EE0FFF1F4B
:101EE000EA5FFD4FA081B18156968D919C915797E5
:101EF00023E0969587952A95E1F713962D913C91CD
:101F00001497AC01421B530B9A0157FF03C0319544
:101F10002195310915964C9115974217130609F032
:101F200084F414969C938E931397E0910402F0919D
:101F30000502309731F04D915C91119712966C919A
:101F40000995CF5FC5CFCF9108950E943D0360935F
:101F5000560470935704809358049093590408953D
:101F6000BF92CF92DF92EF92FF920F931F93CF9386
:101F7000DF93EC0160E088810E945F02FB800F2DFF
:101F800010E00C5F1F4F0C0F1D1FFF20E1F0F80148
:101F9000D2908F01C980BA8088E0E82E6D2D661F2F
:101FA0006627661F8B2D0E945F02DD0C61E08C2D81
:101FB0000E945F0260E08C2D0E945F02EA94E110B3
:101FC000EDCFFA94E2CF61E08881DF91CF911F914C
:101FD0000F91FF90EF90DF90CF90BF900C945F0235
:101FE0009F92AF92BF92CF92DF92EF92FF920F93A8
:101FF0001F93CF93DF93EC01C62E61E08B810E948B
:102000005F0261E08A810E945F0210E08D811817F3
:1020100008F03FC0DB80BC8087E0E82EF12C00E0B8
:1020200061E08D2D0E945F028B2D0E9443020E2CD9
:1020300001C0880F0A94EAF7082B60E08D2D0E94FA
:102040005F0281E0E81AF10858F75E01A10EB11CA9
:10205000F501D780D016D9F0CC20B9F0912E990C8B
:10206000990C990CE02EF12C8D2D8E2580FF07C048
:102070004E2D4170692D6F0DCE010E94E70CD69454
:10208000E694F394F8E0FF12EFCFF50107831F5FAA
:10209000BDCF60E08A81DF91CF911F910F91FF90BA
:1020A000EF90DF90CF90BF90AF909F900C945F0225
:1020B000CF93C0E080915E02C81768F4EC2FF0E087
:1020C000EE0FFF1FE65AFD4F61E0808191810E9473
:1020D000F00FCF5FEFCFCF9108957F928F929F92B5
:1020E000AF92BF92CF92DF92EF92FF920F931F9326
:1020F000CF93DF93C0E080913702C81760F4EC2FD4
:10210000F0E0EE0FFF1FED5EFD4F808191810E9498
:10211000BA0ECF5FF0CFC0E080913702C81760F4ED
:10212000EC2FF0E0EE0FFF1FED5EFD4F80819181FF
:102130000E94CE0ECF5FF0CF10E080915E021817A4
:1021400008F057C0E12FF0E0EE0FFF1FE65AFD4FF9
:10215000C081D18160E0CE010E94F00F6E0187E066
:10216000C80ED11C4601712CF12CE12C8D818E15ED
:102170001F04D9F0D4F0F40181914F0100E0A82EA2
:10218000B12C80FF06C041E0672D600FCE010E9498
:10219000E70CB594A7948A2D0F5F083081F7FFEF05
:1021A000EF1AFF0A88E0780EE1CFF12C912C812CF8
:1021B0008D8188151904D9F0D4F0F60181916F0151
:1021C00000E0A82EB12C80FD06C040E06F2D600F0E
:1021D000CE010E94E70CB594A7948A2D0F5F0830BA
:1021E00081F7FFEF8F1A9F0A88E0F80EE1CF1F5F9B
:1021F000A4CF0E94A50F10E0809140021817E0F4D0
:10220000E12FF0E0EE0FFF1FE65CFD4FC081D181B2
:1022100060E0CE010E94450E4C815D8170E060E07F
:10222000CE010E94060E4C815D816FEF7FEFCE01E3
:102230000E94060E1F5FE0CFC0E080911202C81717
:1022400018F5EC2FF0E0EE0FFF1FEA5FFD4FA081C5
:10225000B18156968D919C91579723E096958795DD
:102260002A95E1F714969C938E931397E0910402BC
:10227000F0910502309731F04D915C9111971296D3
:102280006C910995CF5FD9CFDF91CF911F910F91BD
:10229000FF90EF90DF90CF90BF90AF909F908F9086
:1022A0007F9008950E94DF01882359F081E0809398
:1022B000990780939A0780919B0790919C070C94B3
:1022C000DE2B10929A0790E080E00895CF930E9451
:1022D0005211C82F0E945211BC018C2F0E94BB02C8
:1022E000CF910C94A50F0E94521120916004821787
:1022F00060F4FC01FF27EE0FFF1FE45AFB4F8081C3
:1023000091810E94040B0C94A50F08950F931F93C5
:102310000E94521120916004821708F047C0FC010E
:10232000FF27EE0FFF1FE45AFB4FA081B1811296E9
:10233000ED91FC9113971486158616861786108AE0
:10234000118A128A138A14AA15AA16AA17AA14A205
:1023500015A216A217A2148A158A168A178A1C9625
:102360008C911C978823F1F012968D919C91139774
:102370001A964C9150E0519541955109052E000C4B
:10238000660B770BFC01008911892289338940177C
:1023900051076207730731F0408B518B628B738B4F
:1023A0000E9471091F910F910C94A50F1F910F911D
:1023B00008958F929F92AF92BF92CF92DF92EF9249
:1023C000FF921F93CF93DF930E945211EC010E9462
:1023D0005211BC01809170028C171D0609F00CF49B
:1023E000B0C0CC0FDD1FC459DD4F0990D881C02D7E
:1023F000CD80DE800D2C000CEE08FF0889809A80CD
:10240000092C000CAA08BB082F813885032E000C6C
:10241000440B550B2C193D094E095F09072E000C82
:10242000880B990B681979098A099B090E94402E2B
:102430002B813C81032E000C440B550B28193909C4
:102440004A095B090E94A62DBA01A9014C0D5D1D28
:102450006E1D7F1D052E000C660B770B8D859E85EE
:10246000AF85B88984179507A607B70709F45CC03C
:102470004D875E876F87788B8985811155C08A85E6
:102480008C3008F04FC0188161E0812F0E947F02DC
:102490008A85282F30E0F901EE0FFF1FE20FF31FAE
:1024A000E75FFB4F1F739081907C912B90831B867D
:1024B0001C862CE0622F0E94502E829FB0011124B6
:1024C00030E020E0AB01420F531FFA01EE0FFF1F77
:1024D000E40FF51FE75FFB4F908196FD16C02F5F5D
:1024E0003F4F2C30310571F781110FC010928000E1
:1024F00082E0809381001092850010928400B19A4E
:1025000080916F00826080936F00EA858E2F90E04B
:10251000FC01EE0FFF1FE80FF91FE75FFB4F808103
:102520008064808381E08987DF91CF911F91FF9044
:10253000EF90DF90CF90BF90AF909F908F900C94D2
:10254000A50FDF91CF911F91FF90EF90DF90CF907B
:10255000BF90AF909F908F900895EF92FF920F934E
:102560001F93CF93DF930E9452118C010E9430027F
:102570007C01EC01FC01DE018081882349F090910F
:10258000A407891301C03196808189933196F3CFD6
:10259000AE17BF0710F41D92FBCF000F111FF801FB
:1025A000EF59FD4F00811181F80186858823B1F034
:1025B000C0E0F80181898C1789F04C2F60E0C801D8
:1025C0000E94A106F8014089B701C49F600D711DEA
:1025D0001124C8010E940207CF5FEBCFDF91CF919A
:1025E0001F910F91FF90EF900C94A50F2091100672
:1025F000309111068217930710F40C94902D80E00F
:1026000008950F931F93CF93DF938C01EB01F80193
:10261000808191819C012F5F3F4F318320830E94F5
:10262000F61228813981A9014F5F5F4F5983488392
:102630002A523B4FF9018083288139812C3D310595
:1026400060F48A3321F72B523B4FF901108281E06D
:10265000DF91CF911F910F91089580E0F9CFEF9214
:10266000FF920F931F93CF93DF93EC01E09010063E
:10267000F0901106888199818C010F5F1F4F19839B
:1026800008830E94F612E016F10650F08A3391F7A3
:1026900081E0DF91CF911F910F91FF90EF9008950E
:1026A00080E0F7CFAF92BF92CF92DF92EF92FF928E
:1026B0000F931F93CF93DF9300D000D0CDB7DEB739
:1026C0005C0119821A821B821C82CE0101967C0158
:1026D00010E000E06C01F501808191819C012F5F89
:1026E0003F4F318320830E94F612F7018083F80167
:1026F0008E3241F00F5F1F4F8FEFE81AF80A043057
:10270000110549F7EC0DFD1D1082C6010E94DE2B5C
:102710000F900F900F900F90DF91CF911F910F911D
:10272000FF90EF90DF90CF90BF90AF900895FB01A6
:1027300001900020E9F73197AF01461B570BDC01F0
:10274000ED91FC910280F381E02D09948091CF06F8
:102750008823A1F06091A2078091A0079091A10722
:102760000E9449038091D706882341F06FEC71E005
:102770008091A0079091A1070E9497131092D6060E
:102780001092CF0680E008958F929F92AF92BF92F1
:10279000EF92FF920F931F93CF93DF93CDB7DEB7E6
:1027A000A1970FB6F894DEBF0FBECDBF7C01FA0132
:1027B000CB0119A2223008F42AE08E010F5D1F4FD1
:1027C000822E912CB12CA12CBF01A50194010E9455
:1027D0000F2EF901CA016A300CF5605DD8016E93C5
:1027E0008D01232B242B252B79F790E080E0109787
:1027F00021F0BD01C7010E949713A1960FB6F8946E
:10280000DEBF0FBECDBFDF91CF911F910F91FF9023
:10281000EF90BF90AF909F908F900895695CDECF4E
:10282000CF939091CF069923A9F0C82F6091A30769
:102830008091A0079091A1070E9449034C2F50E07E
:1028400070E060E02AE08091A0079091A107CF910D
:102850000C94C413CF9108959091CF06911110C09C
:1028600091E09093CF069093D606482F50E070E009
:1028700060E02AE08091A0079091A1070C94C41316
:102880000895CF93DF939091CF0691111AC0EB0179
:102890000E942C148091CF06882379F06091A307C1
:1028A0008091A0079091A1070E944903BE018091E9
:1028B000A0079091A1070E945003DF91CF910C9443
:1028C000A61380E0DF91CF9108950E943D036093AD
:1028D000560470935704809358049093590468E603
:1028E00070E085E00C9441141F93CF93DF93109216
:1028F0003702109259021092550480916902882380
:1029000029F0E0916A02F0916B02168A1092690236
:1029100030917002CCE6D2E020E03217D1F0A991DC
:10292000B99119968C911997882389F01A96EC9190
:102930001A978E2F90E0FC01EE0FFF1FE80FF91F92
:10294000E75FFB4F80818F7B808319961C922F5FFE
:10295000E4CF1092700280916004882361F0E091CE
:102960005C04F0915D041082823028F0E0915E04F6
:10297000F0915F0410821092600490910202E1E6EF
:10298000F2E080E0981759F0A191B1911E962C9138
:102990001E97222311F01E961C928F5FF3CF109288
:1029A00002021092120290910302E5E6F2E080E04A
:1029B000981759F0A191B19118962C91189722234C
:1029C00011F018961C928F5FF3CF10920302809142
:1029D0005E02882361F0E0915A02F0915B02168258
:1029E000823028F0E0915C02F0915D021682109234
:1029F0005E0210E0E09140021E1798F4F0E0EE0F46
:102A0000FF1FE65CFD4FC081D1818B8180FF07C035
:102A100062E08A810E947F028B818E7F8B831F5FA1
:102A2000E9CF109240021092300410922F041092BD
:102A30005B0410929E0310929D036CE670E085E0AB
:102A4000DF91CF911F910C9441146FE670E08FE0FD
:102A50000C94411420919D0330919E03820F932F7B
:102A6000911D90939E0380939D038C32914040F082
:102A70006FE972E085E00E94411490E080E00895E3
:102A8000C9018F589D4F0895CF92DF92EF92FF9228
:102A90000F931F93CF93DF9390915902993009F4CC
:102AA0005EC07901142FC62ED82E8FE10E94F80A3D
:102AB00081110DC06EEB71E085E0DF91CF911F9128
:102AC0000F91FF90EF90DF90CF900C9441148FE125
:102AD0000E942A15EC01892B09F01A8200915902F3
:102AE000E02FF0E0EE0FFF1FE95BFD4FD183C083C5
:102AF0001E821D82FC82EB82D882C98285E0819F82
:102B0000F0011124EE59FE4FDE01199601900D924D
:102B10008A95E1F762E08D2D0E947F0262E0898153
:102B20000E947F021E86188A1F861A8A198A1886B2
:102B30001F8A188E198E1A8E84EF91E0A0E0B0E003
:102B40008B8B9C8BAD8BBE8B81E08A8389E396E176
:102B500090934602809345020F5F00935902DF91E4
:102B6000CF911F910F91FF90EF90DF90CF9008953C
:102B700081E080935B0462E770E081E10C94411492
:102B8000CF93DF930E94A50F8AE00E942C148091BE
:102B90002F0490913004892B91F18BE390E00E94F7
:102BA000F612C82F8091CF06882379F06091A30791
:102BB0008091A0079091A1070E9449036C2F8091FA
:102BC000A0079091A1070E944903C1E0D0E0809145
:102BD0002F0490913004C817D90788F4CE01CB9602
:102BE0000E94F6129091CF06992339F0682F8091B8
:102BF000A0079091A1070E9449032196E8CFDF9199
:102C0000CF910C94A613CF93DF932091CF0622236C
:102C1000A1F0EC016091A3078091A0079091A1071A
:102C20000E944903209749F0BE018091A00790912E
:102C3000A107DF91CF910C949713DF91CF91089565
:102C40000F931F93CF93DF93C82FD62F8A018DE167
:102C50000E942C14C8010E9403168D2F0E9410148C
:102C60008C2F0E941014DF91CF911F910F910C9423
:102C7000A6130F931F93CF93C82F8A0186E00E945B
:102C80002C14C8010E9403168C2F0E941014CF919F
:102C90001F910F910C94A6130F931F93CF93DF9363
:102CA000C82FD62F8A018EE10E942C14C8010E94E1
:102CB00003168D2F0E9410148C2F0E941014DF9188
:102CC000CF911F910F910C94A6130F931F93CF9345
:102CD000C82F8A0187E00E942C14C8010E940316A5
:102CE0008C2F0E941014CF911F910F910C94A6135A
:102CF000CF92DF92EF92FF92CF93DF936C01EA01C4
:102D00008CE10E942C14CE010E9403168091CF0604
:102D1000882321F16091A3078091A0079091A107DA
:102D20000E944903C091A007D091A1070D2C000C6F
:102D3000EE08FF082AE0B701A601F7FE0CC06DE21D
:102D4000CE010E94490344275527BA014C195D0959
:102D50006E097F092AE0CE010E94C413DF91CF9152
:102D6000FF90EF90DF90CF900C94A613FB010190A1
:102D70000020E9F73197AF01461B570BDC01ED91BD
:102D8000FC910284F385E02D0994CF92DF92EF92BB
:102D9000FF920F931F93CF93DF938C01EB01FC0104
:102DA000D0886D2D70E0FE0101900020E9F7CF0181
:102DB00001978C1B9D0B86179707B0F4681B790B46
:102DC00076956795D82EC8010E94A106CC2EEC2ED0
:102DD000FD2E8E2D8C198D1548F4F70161917F0120
:102DE000C8010E94EA06F5CF60E0EDCFDF91CF91F8
:102DF0001F910F91FF90EF90DF90CF90089585ED98
:102E00008093BC008091AE049091AF04A091B00477
:102E1000B091B1040796A11DB11D23E0B695A79509
:102E2000979587952A95D1F72091BC0024FD03C082
:102E30001092AC0408954091AE045091AF0460919B
:102E4000B0047091B104452B462B472B69F30097D2
:102E5000A105B10541F025E32A95F1F7000001979E
:102E6000A109B109E1CF8091AD040C94CC044F923B
:102E70005F926F927F928F929F92AF92BF92CF920A
:102E8000DF92EF92FF92CF93DF93EC016A017B0117
:102E900020E030E0A901CB01B6010E946C2C87FF35
:102EA00004C0F7FAF094F7F8F0948C8C9D8CAE8CFB
:102EB000BF8CA7019601C501B4010E946C2C882328
:102EC00009F449C06CA97DA98EA99FA90E94732C01
:102ED0002B013C01A7019601C501B4010E94E32E1C
:102EE0009B01AC01C301B2010E94D22C0E94552F5C
:102EF0006CAB7DAB8EAB9FABA701960160E070E041
:102F000080E090E40E94E32E0E94962F26E53EE0AA
:102F10004DE25FE30E94D22C20E034E244E759E422
:102F20000E94D22C68AF79AF8AAF9BAFCC8EDD8E7A
:102F3000EE8EFF8ECE01DF91CF91FF90EF90DF906C
:102F4000CF90BF90AF909F908F907F906F905F9049
:102F50004F900C947109DF91CF91FF90EF90DF902B
:102F6000CF90BF90AF909F908F907F906F905F9029
:102F70004F900895EF920F93CF93DF93EC0185E983
:102F800091E0998388836B831C861D861E861F862D
:102F9000188A198A1A8A1B8A1C8A1D8A1E8A1F8A05
:102FA00080E090E0A0E8BFE3888F998FAA8FBB8F65
:102FB0001C8E1D8E1E8E1F8E88A399A3AAA3BBA351
:102FC0001CA21DA21EA21FA261E070E07DA76CA73B
:102FD0003FEF3FA718A619A61AA61BA64C832D8360
:102FE0000E83EF821EA61CAA1DAA1EAA1FAA18AE37
:102FF00019AE1AAE1BAE1CAE1DAE1EAE1FAEFE014C
:10300000E05CFF4F80839183A283B3831A8218868A
:1030100019861A861B86CE010E945E0740E050E0AA
:1030200060E87FE3CE01DF91CF910F91EF900C9498
:1030300037178F929F92AF92BF92CF92DF92EF920B
:10304000FF920F931F93CF93DF930E945211EC01D5
:103050000E9452118C010E9452117C0180916004E7
:10306000C81708F078C0DD27CC0FDD1FC45ADB4F2E
:10307000C880D980F601C281D381B80190E080E098
:103080000E94712C4B015C01288D398D4A8D5B8D1E
:103090000E946C2C8823F1F1888E998EAA8EBB8EAB
:1030A0008E01005C1F4FA501940160E074E284E78B
:1030B00099E40E94E32EF8016083718382839383F5
:1030C0008CA99DA9AEA9BFA9181619061A061B0638
:1030D0000CF56C897D898E899F899B01AC010E94CA
:1030E000D22C4B015C016C8D7D8D8E8D9F8D9B0153
:1030F000AC010E94772E9B01AC01C501B4010E9476
:10310000E32E0E94552F6CAB7DAB8EAB9FABCE01F7
:103110000E947109B70190E080E00E94712C4B0180
:103120005C0120E030E0A9010E946C2C882399F01A
:10313000B501A401F60182819381DF91CF911F91A6
:103140000F91FF90EF90DF90CF90BF90AF909F9046
:103150008F900C943717DF91CF911F910F91FF90B3
:10316000EF90DF90CF90BF90AF909F908F90089599
:103170004F925F926F927F928F929F92AF92BF9287
:10318000CF92DF92EF92FF920F931F93CF93DF9333
:10319000D02E90916004923009F44AC00E2DB22EC8
:1031A000E42E162FF82E8EE00E94F80A811115C029
:1031B0006FE772E085E0DF91CF911F910F91FF9053
:1031C000EF90DF90CF90BF90AF909F908F907F90C7
:1031D0006F905F904F900C9441148EE00E942A15DE
:1031E000EC01892B09F01882E0916004F0E0EE0F09
:1031F000FF1FE45AFB4FD183C08384E40E94F80A86
:10320000811127C06EE572E085E00E944114C091F3
:103210006004DD2051F0EC2FF0E0EE0FFF1FE45AC8
:10322000FB4F808191810E94040BCF5FC0936004AB
:10323000DF91CF911F910F91FF90EF90DF90CF9092
:10324000BF90AF909F908F907F906F905F904F90C6
:103250000895013009F48EC028F0023009F496C0B8
:103260001882D5CF84E4FE100EC01B110CC00E9442
:103270002A154C01892B99F095E0E92E04E0212FC5
:103280004F2D61E009C00E942A154C01892B39F0AD
:103290000F2D212F4B2D64E0C4010E94BA179B8291
:1032A0008A82EA80FB8020E030E048EC53E4F701BA
:1032B000608D718D828D938D0E946C2C882309F412
:1032C00040C080E090E0A8ECB3E4F701808F918FDC
:1032D000A28FB38F80E090E4ACE1B5E4E05CFF4FF7
:1032E00080839183A283B383F70184A995A9A6A9BA
:1032F000B7A9181619061A061B061CF564897589E4
:10330000868997899B01AC010E94D22C2B013C013C
:10331000F701648D758D868D978D9B01AC010E94A0
:10332000772E9B01AC01C301B2010E94E32E0E94E3
:10333000552FF70164AB75AB86AB97ABC7010E9405
:10334000710940E050E068E474E48A819B810E9446
:103350003717DC8281E08D83DD2021F062E08D2D46
:103360000E947F02CA86AB8681E0888319828D879E
:103370008C874DCF84E40E942A154C01892B09F4D7
:103380008ECF0F2D212F4B2D68E086CF84E46FCF99
:103390008F929F92AF92BF92CF92DF92EF92FF9265
:1033A000CF93DF930E945211EC01B82E0E94DF01EF
:1033B000882309F48FC081E08093990780939A074E
:1033C00080919B0790919C070E94FC2B6B017C01D4
:1033D00080916004B81608F083C0DD27CC0FDD1F94
:1033E000C45ADB4F0990D881C02D19828E819F81EC
:1033F000A885B985C816D906EA06FB0609F45EC099
:103400008A819B81DC011C968D909D90AD90BC9033
:103410001F972B85222351F02D85222339F0ED9122
:10342000FC910280F381E02D09951D868C8588230F
:1034300079F0C814D904EA04FB0454F48E819F8106
:10344000A885B985C816D906EA06FB060CF41C86C1
:103450008C85811110C08C149D04AE04BF045CF4F3
:103460008E819F81A885B9858C159D05AE05BF0508
:1034700014F481E08C878A819B814A852C85429F48
:10348000A0011124052E000C660B770B4C0D5D1D61
:103490006E1D7F1DFC0180889188A288B388481525
:1034A00059056A057B0531F0408B518B628B738B1C
:1034B0000E947109CE82DF82E886F986DF91CF9182
:1034C000FF90EF90DF90CF90BF90AF909F908F9044
:1034D0000C94A50F10929A07C12CD12C760178CFAD
:1034E000DF91CF91FF90EF90DF90CF90BF90AF90A2
:1034F0009F908F900895BF92CF92DF92EF92FF92AC
:103500000F931F93CF93DF93EC01E62EC42ED22EA0
:10351000FB88FF0C0F2D10E0A80170E060E003961F
:103520000E94EB2FEE2DEE0FEC0FFD2FF11DC4824C
:10353000D38260E08A810E945F020D5F1F4F0C0FF3
:103540001D1FFF20E1F0F801B2908F0188E0C82E26
:10355000D12C90E8E92E6B2D6E2188810E945F02AC
:1035600061E089810E945F0260E089810E945F02C0
:10357000E694F1E0CF1AD10871F7FA94E2CF61E056
:103580008A81DF91CF911F910F91FF90EF90DF9093
:10359000CF90BF900C945F028F929F92AF92BF9298
:1035A000CF92DF92EF92FF920F931F93CF93DF930F
:1035B0000E945211EC010E945211882E0E9430028A
:1035C0005C010E9452116C010E945211CC0FDD1F50
:1035D000C659DD4F08811981D80156962C912223B6
:1035E00009F440C0C7E0D0E0912C7C01FF24DD2429
:1035F0006C2F4C2F4F5FC7010C2E02C095958795FD
:103600000A94E2F780FF2CC096010C2E02C035957B
:1036100027950A94E2F721703327F501E90DF11D92
:10362000D80153969C919D3F10F48916C0F4808177
:1036300087FD80E2232B09F08068F801A4896A17CE
:1036400070F4E82FEF77F0E0E252FE4F24919D3FB7
:10365000B8F487FD2068682DC8010E947B1A9394F6
:10366000219730F6DF91CF911F910F91FF90EF904E
:10367000DF90CF90BF90AF909F908F900C94A50F4C
:10368000220F87FD2160A150BB0BAC1BBD0BA00F0F
:10369000B11F13962C9341E0C8010E94680CDFCF44
:1036A0001F93CF93DF93DC0153962C9153972D3FBB
:1036B00050F4621700F521E024274CE0DF91CF9110
:1036C0001F910C947B1A5596EC91F0E0F595E795D7
:1036D0001E2F411101C01860EC010E94610C60E8CE
:1036E000610F40E0CE010E94F00BCE01DF91CF913F
:1036F0001F910C944A0CDF91CF911F9108950F9365
:103700001F93CF93DF93FC0126892223B9F162171F
:10371000A8F5442389F12FEF240F203108F02FE082
:10372000D62F8C01FC01258B83898D3F78F4681797
:1037300020F44AE0C8010E947B1A40E06D2FC801C6
:10374000DF91CF911F910F910C94501BC0E041303D
:1037500031F02695423009F421E0C22FC860C8013B
:103760000E94610C60E86C0F40E0C8010E94F00B01
:10377000C8010E944A0CE1CF41E0E2CFDF91CF9136
:103780001F910F9108951F93CF93DF930E945211C1
:10379000EC010E945211182F0E945211CC0FDD1F14
:1037A000C659DD4F482F612F888199810E947F1B68
:1037B000DF91CF911F910C94A50F0C94C31BFF9226
:1037C0000F931F93CF93DF93F82EC0E0809169028F
:1037D000C817B0F4EC2FF0E0EE0FFF1FE659FD4FD5
:1037E00000811181D0E0F80186898D1739F04F2DC5
:1037F0006D2FC8010E94501BDF5FF5CFCF5FE6CF72
:10380000DF91CF911F910F91FF9008950F931F9318
:10381000CF93DF93EC01062F8B898D3F88F46817D7
:1038200050F410E01F5F20E0412F602FCE010E9476
:103830007B1A1830B9F7DF91CF911F910F9108953E
:103840004C8950E070E060E0CE0103960E94EB2FBF
:103850004C896FEF640FCE01DF91CF911F910F91D3
:103860000C94680C2F923F924F925F926F927F92CE
:103870008F929F92AF92CF92DF92EF92FF920F932F
:103880001F93CF93DF9300D000D0CDB7DEB78091E8
:103890002F0490913004892B09F45FC58BE390E0ED
:1038A0009A8389831C821B82CE0101960E94521347
:1038B000882309F452C56BE4862E66E4962E74EBD9
:1038C000672E712CEFEFE80FCE010196EF3008F074
:1038D000A4C00E2E000CFF0BE059F34E0C94702E7A
:1038E0007F1C971EDA1C101DE01D471EBB1EA81E64
:1038F000011E4320E61FB3200D1D16211C1E0E9431
:103900005213D82E809137028231D9F184E00E947F
:10391000F80A65E770E0882309F4D0C4EB80FC80E6
:1039200084E00E942A158C010097C1F0DC011296F8
:10393000DC921297C7018A529B4F8D939C9362E051
:103940008D2D0E947F02F80182810E94430221E0B6
:10395000892B09F420E0D80113962C93809137022B
:10396000E82FF0E0EE0FFF1FED5EFD4F11830083A7
:1039700025E636E130933902209338028F5F809339
:103980003702BE016D5F7F4FCE0101960E94011389
:10399000182FCE0101960E945213882309F4DAC42D
:1039A000111190CF1092B10565E971E085E00E9498
:1039B0004114D3C40E945213F82E809155048231D1
:1039C00051F182E00E94F80A63E970E0882309F46B
:1039D00078C382E00E942A158C01009779F0FC01DF
:1039E000F082118261E08F2D0E947F02D801119632
:1039F0006C91119770E08C910E94BB0280915504EC
:103A0000E82FF0E0EE0FFF1FEF5CFB4F1183008308
:103A10008F5F80935504CE0101960E942F13B8CF7B
:103A20000E945213C82ECE0101960E945213482EB6
:103A3000CE0101960E945213D82ECE0101960E940B
:103A40005213582ECE0101960E945213F82E8091E7
:103A50006902813001F387E10E94F80A61EB70E0AE
:103A6000882309F42EC387E10E942A158C01009750
:103A700029F0FC01148A8FE0858B168AE090690298
:103A8000EE2DF0E0EE0FFF1FE659FD4F118300838E
:103A9000D801CC921196DC92119712964C92129703
:103AA0005396FC92BCEFBF1508F449C0E8E0EF154F
:103AB00020F488E0D80153968C9388E0F801848B39
:103AC00061E08C2D0E947F0261E0D80111968C91FB
:103AD0000E947F0261E0F80182810E947F0261E022
:103AE000D80112968C910E945F02D12CF801838933
:103AF000D81608F049C020E04FE06D2DC8010E94A3
:103B00007B1AD80153968C918D3F40F4D81630F42F
:103B100027E04BE06D2DC8010E947B1A20E049E0B0
:103B20006D2DC8010E947B1A6D2DC8010E94061CD4
:103B300041E06D2DC8010E94501BD394D7CFBDEF3B
:103B400084E0FB1286E0F801848B62E08D2D0E94F8
:103B50007F0262E0D8018C910E947F0260E0F80150
:103B600081810E945F0260E0D8018C910E945F0217
:103B700060E0C8010E94061C8FE0F801858B41E0DF
:103B800060E0C8010E94501BD8015696FC92F12CAF
:103B9000F8018689F81680F4452D6F2DC8010E9422
:103BA0007F1B40E06F2DC8010E94501B6F2DC80184
:103BB0000E94061CF394ECCFE394E09269022BCFB1
:103BC0000E945213182FCE0101960E945213F82E14
:103BD000CE0101960E945213D82ECE0101960E946A
:103BE0005213582ECE0101960E945213A12CC12CC3
:103BF000E12C00E0252D4D2D6F2D812F0E94B8184E
:103C00000ACF0E945213182FCE0101960E94521320
:103C1000F82ECE0101960E945213D82ECE010196A5
:103C20000E945213582ECE0101960E945213A12CCD
:103C3000C12CE12C082FDECF0E945213182FCE0189
:103C400001960E945213F82ECE0101960E94521343
:103C5000D82ECE0101960E945213582ECE01019605
:103C60000E945213082FCE0101960E945213E82E93
:103C7000CE0101960E945213C82ECE0101960E94D9
:103C80005213AA24A3948111B5CFA12CB3CF0E94C3
:103C90005213182F80917002823009F4BCCE87E154
:103CA0000E94F80A62ED70E0882309F40AC287E1F5
:103CB0000E942A15FC01892BB9F080912D048C30CB
:103CC00098F591E0980F90932D04828790E0DC01A5
:103CD000AA0FBB1FA80FB91FA75FBB4F88EB9BE0C4
:103CE00012969C938E93119780917002A82FB0E04A
:103CF000AA0FBB1FA459BD4FED93FC9311861586E7
:103D000016861786108A118A128A138A148A1282DA
:103D10001182748263821682158270866782108394
:103D20008F5F8093700277CE8FEF8287DDCF0E9406
:103D30005213182FCE0101960E9452132B813C8101
:103D40002A523B4F40E0682F812F0E94441519CE24
:103D50000E945213182FCE0101960E945213082F71
:103D6000CE0101960E9452132B813C812A523B4F77
:103D7000482F602FE9CF0E945213D82ECE01019612
:103D80000E945213E82ECE0101960E945213F82E83
:103D900080910202823009F43ECE82E10E94F80A4C
:103DA00060EF70E0882309F48CC182E10E942A153B
:103DB0008C01009761F0DC0113961C921E92129701
:103DC000E6E5F1E01196FC93EE9319961C92E091D2
:103DD0000202F0E0EE0FFF1FEF59FD4F1183008349
:103DE000D8011F96DC921F975096EC9250975196EF
:103DF000FC92519781E01E968C931E971496DC924C
:103E000014971A96EC921A971B96FC921B971C9685
:103E10001C921C971D961C921092C0031092BF0317
:103E20001092B3041092D5040E94AE04E0EEF5E0C7
:103E3000F093E303E093E20321EE35E03093E703F0
:103E40002093E603D80115961C9215971B968C912A
:103E50001B97823018F098E015969C93F801948592
:103E6000992329F0813019F48581846085830E942B
:103E700018031B012C0162E3C62ED12CE12CF12C7E
:103E80000E9418036219730984099509683E7340FA
:103E900081059105A8F3F1E0CF1AD108E108F108F6
:103EA00028EE220E23E0321E411C511CC114D10405
:103EB000E104F10429F7D8011D966C91C8010E9414
:103EC000F00660E3C8010E94F006C4010197F1F713
:103ED00060E3C8010E94F006C4010197F1F760E3B6
:103EE000C8010E94F00683E592E00197F1F760E2D5
:103EF000C8010E94F006F8016581606240E0C801D7
:103F00000E94780684E0D80116968C9340E06CE01D
:103F1000C8010E947806C8010E94D20682E0F8011A
:103F2000878340E066E0C8010E94780640E062E0D6
:103F3000C8010E9478068BE39FE10197F1F788E0C2
:103F4000D8011D968C931D9714968C9191E09093B7
:103F5000B2048093D4041092B3041092D50468E0A4
:103F60008DEF95E00E9439060E94DD058CE080937C
:103F7000B800F8018685882319F1C8010E94D2068D
:103F8000D80151964C91F12C433020F04695FF24F6
:103F9000FA94F40E4F2D62ED71E0C8010E94C5162F
:103FA000F8018189823038F041E04F0D6DED71E00C
:103FB000C8010E94C51640E060E0C8010E94A10649
:103FC000809102028F5F8093020225CD0E945213DE
:103FD000D82ECE0101960E945213C82E8091120253
:103FE000863009F4CECC8DE10E94F80A6CE071E0D5
:103FF000882309F463C1EB80FC808DE10E942A15BF
:104000008C01892B61F180E1F8013696DF011D9268
:104010008A95E9F7F801178A168A108EC582D2822E
:10402000C7018A529B4F9183808362E08D2D0E944D
:104030007F0258E0F52EC8010E940B0FFA94F11090
:10404000FACFD80156968D919C91579743E096955B
:1040500087954A95E1F714969C938E9313978091D8
:104060001202E82FF0E0EE0FFF1FEA5FFD4F118311
:104070000083E8E7F6E1F0930502E09304028F5F26
:10408000809312027ECC0E945213C82ECE0101965C
:104090000E945213382ECE0101960E945213482ED0
:1040A000CE0101960E945213582E80910302823055
:1040B00009F4B1CC89E00E94F80A811106C06CE2D3
:1040C00071E085E00E944114A6CC89E00E942A1587
:1040D0008C01D0900302ED2CF12CEE0CFF1CF701AB
:1040E000EB59FD4F9183808381E0D80118968C9322
:1040F0001897CC9211963C92119712964C92129767
:1041000013965C9261E08C2D0E947F0261E0F801C1
:1041100081810E947F0261E0D80112968C910E94F9
:104120007F02F8019381349680E0981719F011927C
:104130008F5FFBCFC8010E94B00FF701EB59FD4F15
:1041400080819181DC0113963C91FC01349620E042
:10415000321719F011922F5FFBCF0E94B00FD3944A
:10416000D092030258CC0E945213D82ECE01019651
:104170000E945213482ECE0101960E945213582ECF
:10418000CE0101960E945213C82E80915E028230A9
:1041900009F4F7CB8BE00E94F80A61E571E088230F
:1041A00009F48CC0EB80FC808BE00E942A158C0106
:1041B000009731F0FC011682178210861186128654
:1041C000E0915E02F0E0EE0FFF1FE65AFD4F118313
:1041D0000083F801D28243825482C7018A529B4FE6
:1041E00091838083C58261E08D2D0E947F0261E012
:1041F000D80113968C910E947F0260E0F8018481BF
:104200000E947F0281E0D80116968C9360E0C8017D
:104210000E94F00FE0E2F6E1F0936002E0935F02AB
:1042200080915E028F5F80935E02ABCB0E9452133F
:10423000D82ECE0101960E945213F82ECE0101967F
:104240000E945213082FCE0101960E945213182F7C
:10425000CE0101960E945213F092090600930A06BD
:1042600010930B0680930C0610920D0609E016E0E1
:1042700061E0D8018D918D010E947F02EDE0F6E0B2
:10428000E017F107A9F780910D06816080930D0674
:1042900060E089E096E00E94C70CCE0101960E9482
:1042A0005213C82E80914002833009F46ACB86E015
:1042B0000E94F80A811106C065E771E085E00E945E
:1042C00041145FCBEB80FC8086E00E942A158C01B4
:1042D000009759F029E036E03093440220934302DE
:1042E000DC0115961C921E921497E0914002F0E0BA
:1042F000EE0FFF1FE65CFD4F11830083F801D282B1
:10430000C7018A529B4F91838083F1E0CF16F1F071
:10431000D80113961C9262E08D2D0E947F02D80175
:1043200013968C911397816013968C9360E0C8016B
:104330000E94450EECE4F6E1F0934202E093410264
:10434000809140028F5F809340021BCB82E0F80196
:104350008383E1CF112309F425CB0F900F900F90A9
:104360000F90DF91CF911F910F91FF90EF90DF9011
:10437000CF90AF909F908F907F906F905F904F9075
:104380003F902F9008950E94321C0C94B815FF9214
:104390000F931F93CF93DF930E945211EC010E9461
:1043A00030028C010E945211F82ECC0FDD1FCB5928
:1043B000DD4F0990D881C02D8885882369F164EE8E
:1043C00071E0C8010E94232C01E010E0009709F180
:1043D0000E94DE2B9885992391F0982F9770980171
:1043E00001C0220F9A95EAF7869586958695FE017B
:1043F000E80FF11D8481FF2049F0282B248364EE0F
:1044000071E090E080E00E94232CE0CF20952823EB
:10441000F5CFCE010E94B00FDF91CF911F910F9188
:10442000FF900C94A50FFF920F931F93CF93DF93F0
:104430008C01EB01F8800E94902DF81621F06F2D71
:10444000C8010E94982DCE01DF91CF911F910F914D
:10445000FF900895AF92BF92CF92DF92EF92FF92BA
:104460000F931F93CF93DF930E94A50F0E943002FA
:104470006C01EC0109900020E9F72197C81BD90BCA
:10448000DD27E0902F04F0903004C70101968C0FD7
:104490009D1F8E31914008F053C05E018FEFA81A26
:1044A000B80A2BE3E20EF11C95012E0D3F1D809101
:1044B0001006909111068217930778F010E000E043
:1044C000B601600F711FC701800F911F0E94132258
:1044D0000F5F1F4F0A151B0598F340912F04509151
:1044E0003004C40FD51FD0933004C0932F048091A3
:1044F000CF06811147C085E00E942C148091CF0621
:10450000882391F06091A3078091A0079091A10763
:104510000E944903AE0170E060E02AE08091A007AC
:104520009091A1070E94C413DF91CF911F910F9129
:10453000FF90EF90DF90CF90BF90AF900C94A613B8
:104540008091CF0681111EC085E00E942C148091BD
:10455000CF06882349F36091A3078091A00790912B
:10456000A1070E944903C091A007D091A1076DE265
:10457000CE010E9449032AE041E050E060E070E093
:10458000CE01D0CFDF91CF911F910F91FF90EF908F
:10459000DF90CF90BF90AF900895CF93DF930E94AC
:1045A0003002FC0190E3A6E1B1E001900D929A95F2
:1045B000E1F78091100690911106892B29F063E2B2
:1045C00090E080E00E94982D809110069091110655
:1045D000C09760F0D0E0C0E0BE016A5E7E4F2196D9
:1045E000CE010E941322CF32D105B1F78091CF06C0
:1045F00081110BC085E00E942C1486E191E00E949D
:104600000316DF91CF910C94A613DF91CF910895FB
:104610004F925F926F927F928F929F92AF92BF92D2
:10462000CF92DF92EF92FF92CF93DF930E943D03F0
:10463000611571058105910511F00E94D52B0E942D
:10464000862B2B013C010E94862B4B015C01CC2464
:10465000CA948FE0D82EE12CF12CC301B201A7013E
:1046600096010E94A62D7F936F93C501B401A70107
:1046700096010E94A62D7F936F9386EE91E09F9303
:104680008F9380E091E09F938F930E94F92F8DB7D5
:104690009EB708960FB6F8949EBF0FBE8DBF80914F
:1046A000100690911106CB9760F0C0E3D0E0BE01F8
:1046B00060537F4FCE010E9413222196CB33D10548
:1046C000B1F7DF91CF91FF90EF90DF90CF90BF9047
:1046D000AF909F908F907F906F905F904F900895D4
:1046E0000E9408238091CF06811109C08AE00E94B0
:1046F0002C1480E091E00E9403160C94A6130895F8
:10470000EF92FF920F931F93CF93DF9380E390E09C
:104710000E94F612833509F048C081E390E00E94C0
:10472000F6128E3409F049C080911006909111065E
:10473000CB9770F000E011E0C0E3D0E0CE010E9422
:10474000902DF80181938F012196CB33D105B1F7DC
:104750000E94A50F8AE00E942C148091CF06882326
:1047600081F06091A3078091A0079091A1070E941A
:1047700049036FEA71E08091A0079091A1070E9420
:10478000500386E191E00E94031680E091E00E94D0
:1047900003168CEF91E00E940316DF91CF911F91D9
:1047A0000F91FF90EF900C94A613893431F481E3BC
:1047B00090E00E94F612843471F00E9408238091E8
:1047C000100690911106CC9718F260E08BE390E010
:1047D0000E94982DBDCF63EF71E080E091E00E94D0
:1047E000F22F84EFE82E85E0F82ED0E0C0E007EF4E
:1047F00011E0F70181917F011F928F931F930F9317
:10480000CE018D5F9E4F9F938F930E94F92F22962A
:104810000F900F900F900F900F900F90C231D10515
:1048200041F796CF1F920F920FB60F9211242F933C
:104830003F938F939F93AF93BF9380917E0490910A
:104840007F04A0918004B091810430917D0423E025
:10485000230F2D3758F50196A11DB11D20937D041E
:1048600080937E0490937F04A0938004B09381048E
:104870008091820490918304A0918404B091850476
:104880000196A11DB11D8093820490938304A0938F
:104890008404B0938504BF91AF919F918F913F9114
:1048A0002F910F900FBE0F901F90189526E8230FA1
:1048B0000296A11DB11DD2CF1F920F920FB60F927B
:1048C00011242F933F934F935F936F937F938F9315
:1048D0009F93AF93BF93EF93FF9382E196E00E9483
:1048E000F703FF91EF91BF91AF919F918F917F91CE
:1048F0006F915F914F913F912F910F900FBE0F904D
:104900001F9018951F920F920FB60F9211242F939C
:104910005F936F937F938F939F93AF93BF93EF9327
:10492000FF93E0912206F09123068081E091280612
:10493000F091290682FD24C0208180912B0690E011
:10494000019660E670E00E945C2E90912C0698170C
:1049500041F0E0912B06F0E0EE5EF94F258F809359
:104960002B06FF91EF91BF91AF919F918F917F9116
:104970006F915F912F910F900FBE0F901F90189520
:104980008081EFCF1F920F920FB60F9211242F93B9
:104990003F934F935F936F937F938F939F93AF93C7
:1049A000BF93CF93DF93EF93FF9380912E04C09139
:1049B0002D04D0E087FF24C010928500109284005F
:1049C00080912E048F5F80932E0480912E04082EF8
:1049D000000C990B8C179D0724F480912E048C30C9
:1049E000C4F18091840090918500049680349C49A4
:1049F00008F47AC08091840090918500049676C076
:104A000080912E04082E000C990B8C179D07C4F67C
:104A1000E0912E048E2FEE0F990BFC01EE0FFF1F7D
:104A2000E80FF91FE75FFB4F808186FFC9CFE09158
:104A30002E048E2FEE0F990BFC01EE0FFF1FE80FD7
:104A4000F91FE75FFB4F808160E08F730E945F0278
:104A5000B7CF2091840030918500E0912E048E2FF5
:104A6000EE0F990BFC01EE0FFF1FE80FF91FE75F38
:104A7000FB4F81819281820F931F909389008093D5
:104A80008800E0912E048E2FEE0F990BFC01EE0FA3
:104A9000FF1FE80FF91FE75FFB4F808186FF11C002
:104AA000E0912E048E2FEE0F990BFC01EE0FFF1FED
:104AB000E80FF91FE75FFB4F808161E08F730E9471
:104AC0005F02FF91EF91DF91CF91BF91AF919F91E5
:104AD0008F917F916F915F914F913F912F910F90A7
:104AE0000FBE0F901F90189580E49CE99093890069
:104AF000809388008FEF80932E04E3CF1F920F9254
:104B00000FB60F9211242F933F934F935F936F93A0
:104B10007F938F939F93AF93BF93EF93FF93809176
:104B2000B900887F803609F44AC0F0F5883209F46C
:104B3000A7C018F5803109F49BC0B8F4882309F4A4
:104B4000F9C0883009F494C0FF91EF91BF91AF9103
:104B50009F918F917F916F915F914F913F912F9195
:104B60000F900FBE0F901F901895883109F488C0E0
:104B7000803251F78093AA0414C0803409F49DC098
:104B800040F48033B9F38833F9F68093AA0485ECB6
:104B9000B0C0803509F485C0883509F496C08834E2
:104BA00099F60E94FF16D0CF883909F48CC038F5E9
:104BB000883729F050F4883611F0803729F683E0E1
:104BC0008093AC041092080457C0883809F47BC065
:104BD000803919F0803809F0B7CF8091080480320D
:104BE00008F071C0E091080481E08E0F8093080402
:104BF0008091BB00F0E0E851FC4F80833DC0803BDA
:104C000039F0E0F4803A09F479C0883A09F09CCF91
:104C100084E08093AC041092E5031092E403E091E9
:104C2000E203F091E30309958091E40381110FC041
:104C300081E08093E4031092C20309C0803C09F430
:104C4000A6CF883C09F4A3CF883B09F07DCFE09143
:104C5000E50381E08E0F8093E503F0E0EE53FC4F17
:104C600080818093BB009091E5038091E40329C08B
:104C7000809187048093BB0085EC8093BC0064CF57
:104C80009091A9048091A804981758F5E091A9047F
:104C900081E08E0F8093A904F0E0E857FB4F8081FC
:104CA000E9CFE091A90481E08E0F8093A90480915F
:104CB000BB00F0E0E857FB4F80839091A9048091FE
:104CC000A8049817C8F285E8D8CFE091A90481E03C
:104CD0008E0F8093A9048091BB00F0E0E857FB4F52
:104CE00080838091AB0481115CCF81E08093860446
:104CF00084EA8093BC001092AC0426CF85EC8093AC
:104D0000BC001092AC0480910804803230F4E09131
:104D10000804F0E0E851FC4F10826091080470E054
:104D2000E091E603F091E70388EE93E00995109295
:104D300008040ACF1092AA0434CF109215061092DC
:104D4000140688EE93E0A0E0B0E0809316069093FE
:104D50001706A0931806B09319068FEA91E0909376
:104D600013068093120685EC90E090931F068093C3
:104D70001E0684EC90E0909321068093200680EC40
:104D800090E0909323068093220681EC90E090932C
:104D900025068093240682EC90E09093270680936A
:104DA000260686EC90E090932906809328061092C0
:104DB0002B0610922C0610922D0610922E06A4EFB0
:104DC000B5E090E080E041E2FC013E9621E030E079
:104DD0008630910510F430E020E0E20FF31F40939D
:104DE0005700E491ED9301968930910569F710928F
:104DF00000061092FF0588EE93E0A0E0B0E08093FB
:104E0000010690930206A0930306B093040681EC7A
:104E100091E09093FE058093FD0510920D068FEFB3
:104E20008093090680930A0680930B0680930C06F4
:104E300010921106109210061092A6071092A50764
:104E400082E196E09093A1078093A0071092D70685
:104E50008CE28093A3078BE38093A2078FE2809379
:104E6000A40780E68093D2068FE58093D306109244
:104E7000D10610929C0710929B0710929E071092E9
:104E80009D0781E080939907E7EAF7E08DEE97E0D0
:104E9000119211928E179F07D9F71092D606089596
:104EA000789484B5826084BD84B5816084BD85B505
:104EB000826085BD85B5816085BD80916E00816011
:104EC00080936E00109281008091810082608093B7
:104ED00081008091810081608093810080918000B9
:104EE0008160809380008091B10084608093B100E4
:104EF0008091B00081608093B00080917A008460DE
:104F000080937A0080917A00826080937A00809109
:104F10007A00816080937A0080917A008068809323
:104F20007A001092C100E0912206F091230682E0FF
:104F30008083E0911E06F0911F061082E09120060A
:104F4000F091210680E1808310922A06E0912606E6
:104F5000F091270686E08083E0912406F0912506F3
:104F6000808180618083E0912406F0912506808114
:104F700088608083E0912406F09125068081806816
:104F80008083E0912406F091250680818F7D8083C7
:104F900080E094E0909311068093100685E694E1FA
:104FA0009093A6078093A50783EC9BE19093A807B5
:104FB0008093A7078CEC9AE19093AA078093A907A6
:104FC0008DED9BE19093DC078093DB0786E691E112
:104FD0009093AC078093AB0788EC99E19093AE0770
:104FE0008093AD0783E791E19093D2078093D10737
:104FF00086E891E19093D4078093D30789E198E103
:105000009093E6078093E50789ED91E19093B007CF
:105010008093AF0780E893E29093BA078093B90733
:1050200080EC95E19093C0078093BF078AE292E2FB
:105030009093BE078093BD0784E794E19093C207E5
:105040008093C10785E295E19093C4078093C307DD
:1050500083EC91E29093C8078093C7078DEC92E2AE
:105060009093CE078093CD0780E793E29093D0078B
:105070008093CF078DE690E19093D6078093D50774
:105080008DEA92E19093DA078093D90787EC91E259
:105090009093DE078093DD0781E08093D7060E941E
:1050A000A50F90E080E00E94F6120091100610918A
:1050B0001106833299F40033110580F0F6E1EF2EEA
:1050C000F1E0FF2ED0E0C0E02196CE010E94902DAD
:1050D000D7018D937D01CF32D105B1F71092300405
:1050E00010922F048BE390E0EC0121960E94F612BF
:1050F000882309F409C180912F049091300401960E
:105100009093300480932F04CE010C171D0760F795
:1051100066EB72E085E00E9441140E943D036093BB
:1051200061047093620480936304909364040E940A
:105130003D036093650470936604809367049093C5
:1051400068040E943D036E5F7F4F8F4F9F4F6093B7
:10515000690470936A0480936B0490936C040E94BA
:105160003D036C5F7F4F8F4F9F4F60936D04709333
:105170006E0480936F04909370040E943D036C5FF3
:105180007F4F8F4F9F4F6093710470937204809391
:105190007304909374040E943D036A5F7F4F8F4FA6
:1051A0009F4F609375047093760480937704909377
:1051B00078040E943D03685F7F4F8F4F9F4F60933D
:1051C000790470937A0480937B0490937C04662422
:1051D0006394E0E0AE2EE0E0BE2E55245394772495
:1051E00073948091D6068111C9C08091A0079091D7
:1051F000A107DC01ED91FC910084F185E02D09957A
:10520000892B09F4BBC08091A0079091A107DC0114
:10521000ED91FC910084F185E02D099570E6E72E73
:10522000F12C8036910564F48091A0079091A1073C
:10523000DC01ED91FC910084F185E02D09957C0164
:10524000C091A007D091A10768E3862E67E0962E53
:10525000640110E000E0E016F10609F05AC0D0E069
:10526000C0E0EC16FD0609F4BCCFF40191914F01AA
:10527000109298073091A4072091D5069093D506F7
:10528000931304C0921302C01092D5068091D106E8
:10529000E82FF0E04091A207E153F94F94135CC06E
:1052A000321709F459C01186882321F070929807AB
:1052B0001092D5061092D10610929C0710929B076F
:1052C00010929E0710929D077092990780919807FF
:1052D000813009F051C00E9452118093D006833270
:1052E00008F044C020919A07222309F43FC0FC0132
:1052F000FF27EE0FFF1FE955F84F0190F081E02DD9
:105300003097A1F1099538C00E94321C0E94B8154F
:1053100004CF0E943D03688779878A879B87E8814D
:10532000F9810284F385E02DCE01099597FF78C1BC
:105330000E943D03288539854A855B85621B730B76
:10534000840B950B2C813D814E815F816217730721
:105350008407950720F383CF91878F5F8093D106D1
:105360009091D306891708F0A5CFB0CFE091A5079B
:10537000F091A607309731F6219673CFC09056046E
:10538000D0905704E0905804F090590480915A044A
:1053900081114CC10E943D036C197D098E099F0942
:1053A000613A7B4B8D40910508F450C050925A04ED
:1053B000C0E080915504C81788F4EC2FF0E0EE0FA0
:1053C000FF1FEF5CFB4F0190F081E02D118270E038
:1053D00060E080810E94BB02CF5FEBCF81E00E9442
:1053E000DF1BC0E080916004C81780F5EC2FF0E06F
:1053F000EE0FFF1FE45AFB4F0190F081E02D8281F8
:105400009381DC01ED91FC910190F081E02D0995F3
:10541000CF5FE8CF80E00E94DF1BC0E08091600496
:10542000C817A0F4EC2FF0E0EE0FFF1FE45AFB4F7B
:105430000190F081E02D82819381DC01ED91FC915E
:105440000280F381E02D0995CF5FE8CF80915B0466
:10545000882309F4D9C04AE061E674E081EE9EE059
:105460000E94C30A41E065E674E083EF9CE00E947D
:10547000C30A912C80916004981608F0A2C0E92D0F
:10548000F0E0EE0FFF1FE45AFB4FC081D1810A818B
:105490001B81F80184A195A1A6A1B7A1892B8A2B14
:1054A0008B2BE9F10E9418036B017C01F80180A5A8
:1054B00091A5A2A5B3A5B701A601481B590B6A0B7C
:1054C0007B0B84A195A1A6A1B7A1481759076A072C
:1054D0007B0728F184859585A685B78522812223BF
:1054E00009F46BC00196A11DB11D84879587A6871D
:1054F000B787D8011C964D915D916D917C911F9756
:10550000ED91FC910680F781E02DC8010995F80125
:10551000C0A6D1A6E2A6F3A6C8010E9471098C819B
:105520000E9443029D818917E9F08D8381111AC081
:1055300089818823B9F0EA81FB8114861586168655
:105540001786108A118A128A138A14AA15AA16AA13
:1055500017AA14A215A216A217A2148A158A168ACF
:10556000178A19828A819B814A852C85429FA001D6
:105570001124052E000C660B770B0E811F812885E8
:105580003985400F511F621F731FDC011C960D915E
:105590001D912D913C911F9740175107620773078A
:1055A00051F42B85222339F0ED91FC910190F0818B
:1055B000E02D09956D8693945DCF0197A109B109FE
:1055C00094CF45E069E674E085E29BE00E94C30A5F
:1055D00042E361E774E086E69FE00E94C30A4AE086
:1055E0006DE674E082E59FE00E94C30A4AE065E749
:1055F00074E088E590E10E94C30A4AE069E774E03C
:1056000085EA9EE00E94C30AA114B10409F4E9CD21
:105610000E94E303882309F4E4CD0E940000E1CD59
:10562000F60181936F010F5F1F4F15CE0E943D035E
:105630006C197D098E099F09603A7B4B8D4091055D
:1056400008F004CF10925A04C0E080915504C817A6
:1056500008F0E0CEEC2FF0E0EE0FFF1FEF5CFB4F09
:105660000190F081E02D618170E080810E94BB0299
:10567000CF5FEBCF8F929F92AF92BF92CF92DF928C
:10568000EF92FF92CF93DF93EC01688179818A8159
:105690009B81611571058105910521F464E279ED25
:1056A0008BE597E02DE133EF41E050E00E94A62D1D
:1056B00049015A019B01AC01A7EAB1E40E94C52D42
:1056C0006B017C01ACEEB4EFA50194010E94D32DD7
:1056D000C60ED71EE81EF91EF7FE06C081E0C81AE6
:1056E000D108E10880E8F80AC882D982EA82FB8200
:1056F000C701B6019F77DF91CF91FF90EF90DF90C8
:10570000CF90BF90AF909F908F9008958F929F926F
:10571000AF92BF92CF92DF92EF92FF9260914601DB
:10572000709147018091480190914901611571057F
:105730008105910521F464E279ED8BE597E02DE197
:1057400033EF41E050E00E94A62D49015A019B0130
:10575000AC01A7EAB1E40E94C52D6B017C01ACEE5F
:10576000B4EFA50194010E94D32DC60ED71EE81EEA
:10577000F91EF7FE06C081E0C81AD108E10880E8EA
:10578000F80AC0924601D0924701E0924801F09297
:105790004901C701B6019F77FF90EF90DF90CF904E
:1057A000BF90AF909F908F90089560934601709343
:1057B000470180934801909349010895FC0188278F
:1057C0009927E89421912032E9F3293010F02E3006
:1057D000C8F32B3241F02D3239F4689404C00E9492
:1057E000642C820F911D219120532A30C0F31EF4A6
:1057F000909581959F4F08951F93FC0199278827C5
:10580000BC01E89411911032E9F3193010F01E3008
:10581000C8F31B3251F01D3249F4689406C00E944F
:105820004F2C610F711D811D911D119110531A3064
:10583000B0F33EF490958095709561957F4F8F4FB2
:105840009F4F1F9108954DEE57E00E94282C089518
:10585000FA01A191B081009719F41097E1F0CD0100
:10586000DC01CD010D90002011F4C00113C0FB013B
:105870002191222319F02015D9F7F3CFFB012191B3
:10588000201519F41E92119606C02223C1F70D901F
:105890000020A1F7D001FA01A193B0830895592FF8
:1058A000482F372F262F660F771F881F991F660FE7
:1058B000771F881F991F620F731F841F951F660F24
:1058C000771F881F991F08957AE0979F902D879FD3
:1058D000802D910D112408950E94AE2C08F481E0D2
:1058E0000895E89409C097FB3EF4909580957095D3
:1058F00061957F4F8F4F9F4F9923A9F0F92F96E91C
:10590000BB279395F695879577956795B795F11190
:10591000F8CFFAF4BB0F11F460FF1BC06F5F7F4F2D
:105920008F4F9F4F16C0882311F096E911C077233F
:1059300021F09EE8872F762F05C0662371F096E848
:10594000862F70E060E02AF09A95660F771F881F17
:10595000DAF7880F9695879597F90895990F0008BB
:10596000550FAA0BE0E8FEEF16161706E807F90731
:10597000C0F012161306E407F50798F0621B730BCC
:10598000840B950B39F40A2661F0232B242B252B4D
:1059900021F408950A2609F4A140A6958FEF811DF0
:1059A000811D08950E94E52C0C94562D0E94482DCF
:1059B00038F00E944F2D20F0952311F00C943F2DCC
:1059C0000C94452D11240C948A2D0E94672D70F3A0
:1059D000959FC1F3950F50E0551F629FF001729F94
:1059E000BB27F00DB11D639FAA27F00DB11DAA1FA3
:1059F000649F6627B00DA11D661F829F2227B00DF0
:105A0000A11D621F739FB00DA11D621F839FA00D7A
:105A1000611D221F749F3327A00D611D231F849FCA
:105A2000600D211D822F762F6A2F11249F57504021
:105A30009AF0F1F088234AF0EE0FFF1FBB1F661F9C
:105A4000771F881F91505040A9F79E3F510580F065
:105A50000C943F2D0C948A2D5F3FE4F3983ED4F3D1
:105A6000869577956795B795F795E7959F5FC1F709
:105A7000FE2B880F911D9695879597F9089597F9B4
:105A80009F6780E870E060E008959FEF80EC0895E4
:105A900000240A941616170618060906089500240D
:105AA0000A9412161306140605060895092E039487
:105AB000000C11F4882352F0BB0F40F4BF2B11F4FB
:105AC00060FF04C06F5F7F4F8F4F9F4F089557FD5A
:105AD0009058440F551F59F05F3F71F04795880F5C
