:100000000C9416030C9447030C9447030C94470379
:100010000C9447030C9447030C9447030C94470338
:100020000C9447030C9447030C9447030C94470328
:100030000C9447030C9447030C9447030C94470318
:100040000C9447030C948F280C9447030C9447039B
:100050000C9447030C9447030C9447030C944D27CE
:100060000C9447030C94C1270C9497270C944703D6
:100070000C9447030C9447030C9447030C944703D8
:100080000C9461280C9447030C9447030C94470389
:100090000C9447030C9447030C9447030C94BD281D
:1000A0000C9447030C9447030C9433280C94470397
:1000B0000C9447030C9447030C9447030C940528B5
:1000C0000C9447030C9447030C9447030C94470388
:1000D0000C9447030C9447030C9447030C94470378
:1000E0000C9447030C943F0A0C948C170C944621F3
:1000F0000C9470190C9479230C9406210C9497118C
:100100000C94C30A0C94BB260C94CE090C94732156
:100110000C9404050C9408260C94380C0C94E129DA
:100120000C94BD0A0C9486040C9449180C94D314B6
:100130000C94EC1C0C94300C0C94D8210C941805E5
:100140000C9461060C9452130C94E50F0C943E0B26
:100150000C94E51E0C9429210C94D7040C94D3150F
:100160000C9460140C943D1B0C949B170C94C708C2
:100170000C943F0C0C94940A0C94ED210C94EB23FA
:100180000C94B1040C94B90A0C94720B0C941406E0
:100190000C94BB0A0C94E6040C94FF1E0C948B0484
:1001A0000C94C3040C9460120C9489190C943120A3
:1001B0000C94A9040C94C9080C944C120C94671369
:1001C0000C94CD040C94760A0C94F0040C94CC0599
:1001D0000C94C8080C941F090C94930B0C944D0CB0
:1001E0000C9480140C9479050C945D190C94C52121
:1001F0000C94B9040C94190C0C94460C0C94DA1958
:100200000C9402250C94A11F0C9436200C94C60863
:100210000C946C070C940E050C94E6090C94DA050A
:100220000C94F2080C94A6050C94AB260C94FE1FBB
:100230000C9495040C94B5050C949F040C94EB0855
:100240000C94420A0C94540C0C949C190C94FE24AB
:100250000C94F01D0C94E4180C94C70A0C947E04C2
:100260000C94BF0A0C9444190C94170E0C9450244F
:100270000C94C50A0C94620C0C94DB0B0C946D145A
:100280000C94D8080C9465250C945B0C0C94C50B4D
:100290000C941A230C94D3110C94C10A0C941D0BCA
:1002A0000C94FA046E2F61004F4B004F4B004F4BE4
:1002B00000427574746F6E20646F6573206E6F7486
:1002C0002066697420696E204D656D6F7279004FEC
:1002D000757470757420646F6573206E6F7420661A
:1002E000697420696E204D656D6F727900375365B2
:1002F000676D656E7420646F6573206E6F74206621
:10030000697420696E204D656D6F727921005365A7
:1003100072766F20646F6573206E6F7420666974E7
:1003200020696E204D656D6F727921004C43442029
:10033000646F6573206E6F742066697420696E2027
:100340004D656D6F72792100416E616C6F67496E0A
:1003500020646F6573206E6F742066697420696E07
:10036000204D656D6F7279004F75747075745368A8
:10037000696674657220646F6573206E6F742066A1
:10038000697420696E204D656D6F727900496E70D9
:1003900075745368696674657220646F6573206E46
:1003A0006F742066697420696E204D656D6F727977
:1003B00000446967496E4D757820646F6573206EDF
:1003C0006F742066697420696E204D656D6F727957
:1003D000004661696C757265206F6E20726561649C
:1003E000696E6720636F6E666967004D6F6269466C
:1003F0006C69676874204D65676100456E636F6462
:1004000065727320646F6573206E6F742066697403
:1004100020696E204D656D6F7279007E306D793385
:100420005B5F707F7B771F0D3D4F47000000000032
:1004300000000000000000000000000000000000BC
:1004400000000000000000800180257E306D7933BF
:100450005B5F707F7B00000009000000777F4E7EAD
:100460004F475F37307C000E00767E677E775B46B5
:100470003E000000336D4E13780008007D1F0D3DD7
:100480004F477B373038000600151D6773055B0F3B
:100490001C000000276D4E007800004D4653746527
:1004A0007070657220646F6573206E6F742066696A
:1004B0007420696E204D656D6F727900537465709C
:1004C00070657220646F6573206E6F742066697446
:1004D00020696E204D656D6F7279210044657669E3
:1004E0006365427566666572204F766572666C6FED
:1004F0007721004C6F6164696E6720636F6E666977
:1005000067206661696C65640000000A0B02090CD3
:100510000D0E0807030401000000000000000000A9
:1005200000000000000000000000000000000000CB
:100530000000000000121110000000000000000088
:1005400000000000000000000000000000000000AB
:10055000002100240027002A002D00300033000174
:10056000010000040107010A010000220025002803
:10057000002B002E003100340002010000050108AC
:10058000010B01000020002300260029002C002F71
:100590000032000001000003010601090105050504
:1005A00005070508080808020202020A0A080804EA
:1005B0000404040101010101010101030303030318
:1005C000030303040707070C0C0C0C0C0C0C0C02A7
:1005D00002020206060606060606060B0B0B0B0BAE
:1005E0000B0B0B01021020200808102040102040A7
:1005F00080020102010804020101020408102040E7
:100600008080402010080402018004020180402004
:10061000100804020108040201010204081020402D
:1006200080010204081020408000E12911241FBE2F
:10063000CFEFD1E2DEBFCDBF00E00CBF13E0A0E002
:10064000B2E0EEEFFBE600E00BBF02C007900D92B8
:10065000A230B107D9F723E1A2E0B3E001C01D92B7
:10066000A23BB207E1F713E0C6E1D3E000E006C029
:1006700021970109802FFE010E949C31C531D107CD
:1006800080E00807A9F70E94942A0C94FD350C9489
:100690000000AC011092971290916713809166133D
:1006A000FA01BF01641B750B2091971230813093C2
:1006B0009712931304C0921302C0109297123081C4
:1006C000311104C0921721F0CB0108953817D1F3EE
:1006D0003196E7CF0F931F93CF93DF9380915B13F6
:1006E000882309F446C0D0E0C0E0813029F482E0DC
:1006F00080935B13CBE9D2E180915C13882341F1B5
:10070000209721F4C0916013D09161138E01CE0126
:100710000E944903892B29F42196F80180818111D7
:10072000F5CFF8018081882309F1C8010E944903AF
:10073000F801E80FF91F8081882311F010823196AB
:10074000F0936113E093601310935F1300935E13B3
:1007500080915E1390915F13892B59F081E0809313
:100760005C13DF91CF911F910F91089510E000E08D
:10077000EBCF80E0F6CF0E946A03882351F081E03E
:1007800080935C1380935D1380915E1390915F134F
:10079000089510925D1390E080E0089590E0FC01D0
:1007A000ED51FA4F2491FC01E356FA4FE491EE2308
:1007B00071F0F0E0EE0FFF1FED57FA4FA591B491E5
:1007C000EC91E22381E090E021F480E0089580E064
:1007D00090E0089590E0FC01ED51FA4F2491FC0166
:1007E000E356FA4FE491EE2389F0F0E0EE0FFF1F9D
:1007F000E759FA4FA591B4918FB7F894611107C0EA
:100800009C91E22FE095E923EC938FBF0895EC9142
:10081000E22BFACFCF93DF9390E0FC01ED51FA4F3A
:10082000249183569A4FFC0184918823C9F090E06B
:10083000880F991FFC01E15BFA4FA591B491FC016F
:10084000E759FA4FC591D49161110DC09FB7F89443
:100850008C91209582238C938881282328839FBFA5
:10086000DF91CF910895623051F49FB7F8943C9195
:10087000822F809583238C93E8812E2BEFCF8FB727
:10088000F894EC912E2B2C938FBFEACF1F93CF932C
:10089000DF93182FEB0161E00E940A04209739F4DE
:1008A00060E0812FDF91CF911F910C94EA03CF3F3D
:1008B000D10511F461E0F5CFE12FF0E0E75FFA4FE9
:1008C000E491E150E23108F0B3C0F0E08827E45948
:1008D000FB4F8F4F0C949C317E0486048B0495044F
:1008E0009F041805A904B104B904C304CD04D704B6
:1008F000E604F0041805FA0404050E0584B58068C2
:1009000084BDC7BDDF91CF911F91089584B58062EA
:1009100084BDC8BDF7CF809180008068809380003F
:10092000D0938900C0938800EDCF809180008062D1
:1009300080938000D0938B00C0938A00E3CF809196
:100940008000886080938000D0938D00C0938C00DD
:10095000D9CF8091B00080688093B000C093B3007D
:10096000D1CF8091B00080628093B000C093B4007A
:10097000C9CF80919000806880939000D0939900B7
:10098000C0939800BFCF80919000806280939000C8
:10099000D0939B00C0939A00B5CF8091900088605F
:1009A00080939000D0939D00C0939C00ABCF80912A
:1009B000A00080688093A0008091A0008F7B80932E
:1009C000A000D093A900C093A8009CCF8091A00064
:1009D00080628093A000D093AB00C093AA0092CF16
:1009E0008091A00088608093A000D093AD00C09358
:1009F000AC0088CF80912001806880932001D09343
:100A00002901C09328017ECF8091200180628093CC
:100A10002001D0932B01C0932A0174CF8091200133
:100A2000886080932001D0932D01C0932C016ACF60
:100A3000C038D1050CF03ECF33CF3FB7F89480914A
:100A40008B0B90918C0BA0918D0BB0918E0B26B5DA
:100A5000A89B05C02F3F19F00196A11DB11D3FBFF6
:100A6000BA2FA92F982F8827BC01CD01620F711DC5
:100A7000811D911D42E0660F771F881F991F4A95BF
:100A8000D1F708952FB7F8946091870B7091880B78
:100A90008091890B90918A0B2FBF0895DC01ED9115
:100AA000FC910190F081E02D1994EF92FF920F9349
:100AB0001F93CF93DF938C017B01D0E0C0E0F7015F
:100AC000EC0FFD1F6491662361F0D801ED91FC915C
:100AD0000190F081E02DC8011995892B11F0219624
:100AE000EECFCE01DF91CF911F910F91FF90EF904C
:100AF0000895AF92BF92CF92DF92EF92FF920F9341
:100B00001F93CF93DF936C017B018B01040F151FA3
:100B1000EB015E01AE18BF08C017D10759F069910B
:100B2000D601ED91FC910190F081E02DC60119955F
:100B3000892B79F7C501DF91CF911F910F91FF901C
:100B4000EF90DF90CF90BF90AF900895FC01538D50
:100B5000448D252F30E0842F90E0821B930B541797
:100B600010F0CF96089501970895FC01918D828D24
:100B7000981779F0A28DAE0FBF2FB11D5D962C9105
:100B8000828D8F5F60E60E947C31928F822F90E091
:100B900008958FEF9FEF0895FC01918D828D981736
:100BA00031F0828DE80FF11D858D90E008958FEF73
:100BB0009FEF0895FC01918D228D892F90E0805A3E
:100BC0009F4F821B910960E670E00E948831089572
:100BD00085ED91E10E94DA0521E0892B09F420E0FE
:100BE000822F0895FC01A48DA80FB92FB11DA35821
:100BF000BF4F2C91848D90E001968F739927848F3D
:100C0000A689B7892C93A089B1898C91837080645F
:100C10008C93938D848D981306C00288F389E02D00
:100C200080818F7D80830895EF92FF920F931F93B1
:100C3000CF93DF93EC0181E0888F9B8D8C8D98138F
:100C40001AC0E889F989808185FF15C09FB7F8949B
:100C5000EE89FF896083E889F989808183708064E7
:100C600080839FBF81E090E0DF91CF911F910F9132
:100C7000FF90EF900895F62E0B8D10E00F5F1F4F41
:100C80000F731127E02E8C8D8E110CC00FB607FC50
:100C9000FACFE889F989808185FFF5CFCE010E94DE
:100CA000F205F1CFEB8DEC0FFD2FF11DE358FF4F57
:100CB000F0829FB7F8940B8FEA89FB89808180626C
:100CC000CFCFCF93DF93EC01888D8823B9F0AA8929
:100CD000BB89E889F9898C9185FD03C0808186FDF7
:100CE0000DC00FB607FCF7CF8C9185FFF2CF808146
:100CF00085FFEDCFCE010E94F205E9CFDF91CF91C4
:100D0000089580E090E0892B29F00E94E805811188
:100D10000E94000080E090E0892B49F080E090E0A4
:100D2000892B29F00E94000081110E94000080E0C0
:100D300090E0892B49F080E090E0892B29F00E9417
:100D4000000081110E94000080E090E0892B49F0B2
:100D500080E090E0892B29F00E94000081110C9422
:100D600000000895AF92BF92CF92DF92EF92FF9270
:100D70000F931F93CF93DF936B017A01EC01C8505F
:100D8000D54F28813CE0389F8001399F100D1124F8
:100D9000A090F70AB12C27FF1FC0FB01118210821F
:100DA00088818F5F888388819801280F311D87FD96
:100DB0003A95F6012A153B051CF488818C30C4F164
:100DC00080819181049680349C4908F473C0F601B7
:100DD00080819181049670C088819801280F311D0F
:100DE00087FD3A952A153B05DCF68881A801480F56
:100DF000511D87FD5A95FA01EE0FFF1FE40FF51FF5
:100E0000E959F54F808186FFCBCF8881F801E80F43
:100E1000F11D87FDFA95CF01EE0FFF1FE80FF91FB7
:100E2000E959F54F808160E08F730E94EA03B8CFE3
:100E3000808191812881A801420F511D27FD5A957B
:100E40009A01FA01EE0FFF1FE20FF31FE959F54F68
:100E500021813281820F931FF701918380838881E2
:100E60009801280F311D87FD3A95F901EE0FFF1FFC
:100E7000E20FF31FE959F54F808186FF22C0888178
:100E8000080F111D87FD1A95F801EE0FFF1FE00FE7
:100E9000F11FE959F54F808161E08F73DF91CF91A8
:100EA0001F910F91FF90EF90DF90CF90BF90AF9088
:100EB0000C94EA0380E49CE9F701918380838FEF2F
:100EC0008883DF91CF911F910F91FF90EF90DF907A
:100ED000CF90BF90AF90089508952091420A260FB9
:100EE0003327331F21323105ECF42091B50BFC017F
:100EF00090E080E0243069F082E00895A091420AF9
:100F00002191AC01405E554FA40FB52FB11D2C931C
:100F10000196861798F38091420A680F6093420AFF
:100F200080E0089581E008951092B50B81E08093F0
:100F3000B40B10928F0B61E084E10E94EA0361E040
:100F400085E10E94EA03E9EBF0E080818E7F8083F7
:100F500080818D7F808388E48093B80085E48093CE
:100F6000BC000895CF93DF9391E090931F0A8823EC
:100F7000B9F0C091B800D091BA008091BC008A7BD2
:100F80008093BC0060E084E10E94EA0360E085E1B8
:100F90000E94EA030E949407D093BA00C093B8005D
:100FA000DF91CF9108958F929F92AF92BF92CF928F
:100FB000DF92EF92FF920F931F93CF93DF93D09125
:100FC000DE0BD13208F0D7C0182FC091DD0B0E9484
:100FD0001D056B017C018091B50B81116BC082E016
:100FE0008093B50B1093B40B8FEF8093B30B1092DB
:100FF000B20BD093B10BADEBBBE0E1E9FBE080E0DD
:10100000D81391C01092900B8091900BCC0FC82BED
:10101000C093900B80918F0B813009F088C01092A3
:101020008F0B0E941D056B017C018091900B8093BA
:10103000BB008091B70B9091B80BA091B90BB09108
:10104000BA0B892B8A2B8B2BA1F00E941D050091D6
:10105000B70B1091B80B2091B90B3091BA0B6C19EA
:101060007D098E099F09061717072807390708F415
:1010700042C08091BC0083FDD8CF85EC8093BC003A
:101080000E941D056B017C018091B50B823009F433
:1010900050C08091B30B8F3F09F46FC08091B30BA8
:1010A000803209F46CC08091B30B803309F469C0BD
:1010B00084E026C08091B70B9091B80BA091B90B3A
:1010C000B091BA0B892B8A2B8B2B09F484CF0E9409
:1010D0001D058090B70B9090B80BA090B90BB09005
:1010E000BA0B6C197D098E099F0986169706A8060A
:1010F000B90608F070CF8091B60B0E94B20785E068
:101100001092BC0B1092DE0B1092BB0BDF91CF91B3
:101110001F910F91FF90EF90DF90CF90BF90AF9015
:101120009F908F9008959D9191938F5F69CF85EEE9
:10113000A5CF8091B70B9091B80BA091B90BB0914E
:10114000BA0B892B8A2B8B2B09F49ECF0E941D058D
:101150000091B70B1091B80B2091B90B3091BA0BDD
:101160006C197D098E099F0906171707280739078B
:1011700008F08ACFC0CF81E0C3CF80E0C1CF82E04A
:10118000BFCF83E0BDCF81E00C94D30708950895CD
:101190000895E0911E0A80911D0AE81730F4F0E0EE
:1011A000E350F64F808190E008958FEF9FEF089510
:1011B00090911E0A80911D0A2FEF3FEF981748F477
:1011C000E92FF0E0E350F64F208130E09F5F9093ED
:1011D0001E0AC901089580911D0A90911E0A891B5B
:1011E000990B0895CF92DF92EF92FF920F931F9386
:1011F000CF93DF937C01CB018A012091BB0B22238B
:1012000089F0EB016B01C40ED51ECC15DD0569F02C
:101210006991D701ED91FC910190F081E02DC7011A
:101220001995F3CF642F0E946D07C801DF91CF910C
:101230001F910F91FF90EF90DF90CF900895CF9383
:10124000DF931F92CDB7DEB769832091BB0B2223BA
:10125000F9F02091DE0B203258F021E030E0FC0163
:101260003383228390E080E00F90DF91CF91089547
:101270008091BC0BE82FF0E0E354F44F9981908308
:101280008F5F8093BC0B8093DE0B81E090E0ECCF0E
:1012900061E0CE0101960E946D07F7CFCF93C82F72
:1012A000682F646080EC91E10E941F096C2F70E050
:1012B0006B7F80EC91E1CF910C941F090F931F93EA
:1012C000CF93DF938C01C62FD42FFC01848191E052
:1012D0009093BB0B8093DD0B1092BC0B1092DE0B36
:1012E000862F807F842B9585892B0E944E09F0E103
:1012F000CF9FC0011124F8019585892B8D2B0E9469
:101300004E09DF91CF911F910F910C94C308CF9399
:10131000DF9300D000D01F921F92CDB7DEB728E038
:10132000EAE4F2E0DE01119601900D922A95E1F7D0
:10133000FC012385241710F44FEF420F50E0440FB7
:10134000551F21E030E02C0F3D1F420F531FFA01C3
:101350002081620F606840E028960FB6F894DEBFE7
:101360000FBECDBFDF91CF910C945E09CF93DF9379
:10137000EC0140E061E00E945E098BE39FE1019790
:10138000F1F78985882339F040E060E0CE01DF91F4
:10139000CF910C948709DF91CF91089541E00E948D
:1013A0005E0981E090E00895FC01248131E03093F2
:1013B000BB0B2093DD0B1092BC0B1092DE0B607FF9
:1013C0008585862B0E944E090C94C308AF92BF926C
:1013D000CF92DF92EF92FF920F931F93CF93DF9301
:1013E0006C01FC01848191E09093BB0B8093DD0B39
:1013F0001092BC0B1092DE0BEB01042F10E05B018E
:10140000A00EB11EF12CEE24E394CA15DB0541F1C8
:101410008991F60195859160807F892B0E944E0904
:10142000FE0131972081F0E12F0290011124F60195
:1014300085858160822B0E944E09F394F7E0FF15A9
:1014400020F780E00E94D307F6018481E092BB0B75
:101450008093DD0B1092BC0B1092DE0BF12CD5CFDC
:101460000E94C308C8010197DF91CF911F910F918E
:10147000FF90EF90DF90CF90BF90AF90089590E0F5
:1014800080E00895CF93DF93FC012381222359F15B
:10149000EC0161E084810E940A0461E08D810E9478
:1014A0000A048B81843011F08830B1F461E08E81C0
:1014B0000E940A0461E08F810E940A048FA58F3F79
:1014C00091F061E00E940A046EA581E068278FA573
:1014D000DF91CF910C94EA03833011F0863071F7DD
:1014E00061E08E81E9CFDF91CF910895CF93DF93B3
:1014F000FC0123812223A9F0EC010190F081E02D71
:101500000480F581E02D60E019958FA58F3F49F0AB
:1015100061E00E940A046EA58FA5DF91CF910C9423
:10152000EA03DF91CF910895DC01ED91FC911197D1
:101530002481358147705527662777274150510907
:1015400061097109473051056105710570F4FA01AF
:101550008827E255F54F8F4F0C949C31B90ABB0A8E
:10156000BD0ABF0AC10AC30AC50A61E0CD01F9017B
:10157000199465E0FBCF64E0F9CF66E0F7CF62E055
:10158000F5CF6AE0F3CF68E0F1CF69E0EFCFCF931A
:10159000DF93EC01CB01BA0126E030E040E050E0FF
:1015A0000E940931623071058105910589F16CF461
:1015B0006115710581059105D1F0613071058105D5
:1015C0009105F9F0DF91CF9108956430710581059F
:1015D000910561F124F1653071058105910591F75F
:1015E000E881F9810480F581E02D66E006C0E8819C
:1015F000F9810480F581E02D64E0CE01DF91CF9187
:101600001994E881F9810480F581E02D65E0F5CF3A
:10161000E881F9810480F581E02D61E0EECFE88179
:10162000F9810480F581E02D63E0E7CFE881F9815D
:101630000480F581E02D62E0E0CFDC01ED91FC91CA
:101640000480F581E02D43705527662777274230C7
:1016500051056105710571F0433051056105710552
:1016600059F0413051056105710511F065E019949B
:1016700066E0FDCF6AE0FBCF69E0F9CFCF93DF935F
:10168000EC01CB01BA0123E030E040E050E00E94E1
:101690000931613071058105910599F0623071055C
:1016A00081059105A9F0672B682B692BC1F4E881AE
:1016B000F9810480F581E02D64E0CE01DF91CF91C6
:1016C0001994E881F9810480F581E02D61E0F5CF7E
:1016D000E881F9810480F581E02D62E0EECFDF91B1
:1016E000CF910895DC01ED91FC910480F581E02D0E
:1016F00043705527662777274230510561057105EC
:1017000071F0433051056105710559F041305105C3
:101710006105710511F062E0199463E0FDCF61E0AD
:10172000FBCF60E0F9CFCF93DF93EC01E881F98143
:101730000480F581E02D8A8160E0811162E0CE01B4
:101740001995E881F9810480F581E02D8A8161E0B5
:10175000811163E0CE0119958CA59DA5823091057C
:1017600038F0880F991F880F991F05970197F1F797
:10177000E881F9810480F581E02D8A8160E08111A2
:1017800062E0CE01DF91CF911994CF93DF93EC010A
:1017900020E030E0A9016C897D898E899F890E94B3
:1017A000B93218162CF4E8A9F9A9DF91CF91199450
:1017B000EAA9FBA9FACFCF92DF92EF92FF920F93A3
:1017C0001F93CF93DF93DC011396CC91C43039F093
:1017D000C83059F1C33019F0C63049F1C2E08C016C
:1017E0000C5F1F4FF12CE12CC62ED12CD1E0F8015B
:1017F0006481C6010E2C02C0959587950A94E2F784
:1018000080FD6D270F5F1F4F80810E94EA03BFEFAD
:10181000EB1AFB0AEC1658F3DF91CF911F910F9151
:10182000FF90EF90DF90CF900895C4E0D8CFC3E051
:10183000D6CFDC011396EC911397E93008F042C043
:10184000F0E08827E95DF34F8F4F0C949C31300C0A
:10185000380C3F0C460C4D0C620C540C620C5B0CAB
:10186000ED91FC9111970084F185E02DCD01199443
:10187000ED91FC9111970284F385E02DF7CFED9166
:10188000FC9111970484F585E02DF0CFED91FC914A
:1018900011970684F785E02DE9CFED91FC91119722
:1018A0000088F189E02DE2CFED91FC91119702883B
:1018B000F389E02DDBCFED91FC9111970488F58938
:1018C000E02DD4CF08954F925F926F927F928F92C6
:1018D0009F92AF92BF92CF92DF92EF92FF920F93BF
:1018E0001F93CF93DF93EC01C888D988EA88FB88DF
:1018F0008C859D85AE85BF85C81AD90AEA0AFB0A80
:101900006C897D898E899F899B01AC010E9435304D
:101910004B015C016C8D7D8D8E8D9F8D9B01AC018B
:101920000E94A5319B01AC01C501B4010E94113296
:101930000E948332C114D104E104F10409F0B1C062
:1019400062307105810591050CF0CBC01CA21DA26F
:101950001EA21FA21C8A1D8A1E8A1F8A1CAA1DAADB
:101960001EAA1FAADF91CF911F910F91FF90EF90B8
:10197000DF90CF90BF90AF909F908F907F906F90AF
:101980005F904F9008951016110612061306B4F4D6
:101990006C157D058E059F051CF42A812111A1C0BF
:1019A0009B01AC0188279927DC01821B930BA40BB8
:1019B000B50B8CAB9DABAEABBFAB93C001151105A6
:1019C0002105310509F48DC06C157D058E059F0537
:1019D0000CF087C08A81882309F483C03095209554
:1019E000109501951F4F2F4F3F4F0CAB1DAB2EABEA
:1019F0003FAB77C0011511052105310509F471C010
:101A00008824992454018C189D08AE08BF086815D5
:101A100079058A059B050CF064C08A81811161C03B
:101A2000DDCFCCACDDACEEACFFACA7019601C701BD
:101A3000B6010E94A5312B013C01C501B4010E94F1
:101A4000D62F20E030E040E850E40E94353020E01E
:101A500030E040E85FE30E94A5319B01AC01C30187
:101A6000B2010E9411329B01AC01C701B6010E9474
:101A7000A4313B016C01FE01E05CFF4FE080F1808E
:101A8000028113819701A8010E94B932181614F43B
:101A900073018601C701D8018CAF9DAFAEAFBFAF58
:101AA0003AC00CA91DA92EA93FA91C141D041E048F
:101AB0001F040CF468CF10161106120613060CF062
:101AC00099CF0027112798010C191D092E093F09EC
:101AD00060177107820793070CF062CF2A812111EA
:101AE0005FCF8CA89DA8AEA8BFA881149104A104C3
:101AF000B10409F096CF88AD99ADAAADBBAD8CAF5E
:101B00009DAFAEAFBFAF81E01C141D041E041F04C7
:101B10000CF080E08A833FEF831A930AA30AB30A8A
:101B20008CAA9DAAAEAABFAACCACDDACEEACFFAC31
:101B3000C701B6010E948A326CA37DA38EA39FA326
:101B4000A701960160E074E284E799E40E941132F3
:101B50006C8B7D8B8E8B9F8B2A81211103CF9058AC
:101B60006C8B7D8B8E8B9F8BFDCE8F929F92AF92D5
:101B7000BF92EF92FF920F931F93CF937C018B0143
:101B8000C42F0E944205F80180809180A280B3801A
:101B9000DC01CB0188199909AA09BB094C2F50E037
:101BA00070E060E084179507A607B70748F0F701D3
:101BB00019950E944205F8016083718382839383A3
:101BC000CF911F910F91FF90EF90BF90AF909F909A
:101BD0008F9008952091FB093091FC09280F311D49
:101BE00081E02D3D354008F080E00895FC018481BE
:101BF0008823E1F08181811119C081E08183828194
:101C00009381FC0140895189628973894036594723
:101C10006E4F7F4F59F040E659E76EEF7FEFFC01C2
:101C2000408B518B628B738B0C94630C08954F9295
:101C30005F926F927F928F929F92AF92BF92DF924C
:101C4000EF92FF920F931F93CF93DF93D12C08E86D
:101C500010E0B8E5EB2EB2E0FB2EC4EB4C2E512C7D
:101C6000612C712C80911E04D81608F096C0ED2DC1
:101C7000F0E0EE0FFF1FE65FFB4FC081D181898945
:101C80009A89AB89BC894D855E856F857889841773
:101C90009507A607B70709F47AC0481759076A07D6
:101CA0007B070CF076C00197A109B109898B9A8B4B
:101CB000AB8BBC8BA989BA89A03282E0B807ACF59E
:101CC0002B854801821A910827FD9394880C991C52
:101CD000880C991C092C000CAA08BB082C85C7018C
:101CE000821B910927FD93959C01220F331F220F20
:101CF000331F032E000C440B550B281939094A09D0
:101D00005B09A53BB10514F0A4EBB0E0B7FF02C03E
:101D1000B0E0A0E00E943331A30192010E9409319A
:101D2000820E931EA41EB51ED401EA85E03378F519
:101D30002B85C801821B910927FD93959C01220FD9
:101D4000331F220F331FA217B3077CF02C85C70166
:101D5000821B910927FD93959C01220F331F220FAF
:101D6000331FA217B3070CF49D0122503109220F33
:101D7000331F4FB7F8948E2F90E0FC01EE0FFF1F3A
:101D8000E80FF91FE959F54F328321834FBFD394F0
:101D900069CF0196A11DB11D89CFDF91CF911F9110
:101DA0000F91FF90EF90DF90BF90AF909F908F903A
:101DB0007F906F905F904F9008958BE891E001972E
:101DC000F1F70895EF92FF920F931F93CF93DF9354
:101DD000EC01162FE42EFF24F394442311F080E845
:101DE000F82E08E061E089810E940A040E94DD0E5D
:101DF00061E08F2D812309F060E088810E940A0450
:101E00000E94DD0E60E089810E940A040E94DD0EBE
:101E1000EE2081F1110F015029F761E089810E94C4
:101E20000A0460E088810E940A040E94DD0E60E0DE
:101E300089810E940A040E94DD0E88810E94CE03DF
:101E4000182F811104C061E088810E940A040E9459
:101E5000DD0E61E089810E940A040E94DD0E81E0AE
:101E6000111101C080E0DF91CF911F910F91FF9080
:101E7000EF9008951695CFCFCF93DF93EC0161E0FB
:101E800088810E940A040E94DD0E60E089810E9420
:101E90000A040E94DD0E60E088810E940A04DF913E
:101EA000CF910C94DD0E61E0FC0180810E940A0458
:101EB0000C94DD0EAF92BF92CF92DF92EF92FF9221
:101EC0000F931F93CF93DF93EC01162F042FAB8852
:101ED0000E94530F40E060E4CE010E94E20ECE016A
:101EE0000E943C0F10958B89180FC02ED12CE12E2B
:101EF000F12C84E0B12EA81631F0F601EE0DFF1D95
:101F0000E657FD4FB080CE010E94530F60EC6B0D81
:101F100040E0CE010E94E20E8B89CE0CDF1C8C15B6
:101F20001D0414F4082F011B10E0DD24DA94D00EF8
:101F3000EC0EFD1E011781F084E0ED2DE11BA812CF
:101F400001C0E12FEE0DFF2DF11D41E06381CE01B7
:101F50000E94E20E1F5FEECFCE01DF91CF911F9165
:101F60000F91FF90EF90DF90CF90BF90AF900C94C7
:101F70003C0FEF92FF921F93CF93DF93EC01162F4C
:101F80008C8180FF10C0603170F46D837E0184E02D
:101F9000E80EF11C612F617089910E94EA03169589
:101FA000EC16FD06B9F7DF91CF911F91FF90EF90EE
:101FB0000895DC01842FE091F303F091F40330974E
:101FC00019F04D915C91199408954F925F926F9220
:101FD0007F928F929F92AF92BF92CF92DF92FF92A9
:101FE0000F931F93CF93DF93F12C8091E903F816A1
:101FF00008F0EEC0EF2DF0E0EE0FFF1FEF53FC4FA7
:10200000C081D1818A81882309F4B3C088810E946C
:10201000CE038C0189810E94CE036C010E9442058F
:102020004B015C0181E090E0CD2811F090E080E070
:10203000880F991F21E0012B09F020E0922F982BA7
:102040004B8D5C8D6D8D7E8D95018401041B150B70
:10205000260B370BB901A8014536510561057105FD
:1020600008F489C08885823008F485C08B8E9C8EE8
:10207000AD8EBE8E81508887EE859E1709F445C0CF
:10208000888503E310E0873010F401E010E06D85EF
:1020900024E0E202F0011124492F092E000C550B17
:1020A000E42BF52BE558FD4F708170039001719F73
:1020B000300D1124062E02C0220F331F0A94E2F7BE
:1020C000EF85F8892E0F3F1F388B2F874C0F5D1F30
:1020D000FA0141854423C1F04B885C886D887E8875
:1020E0004F8A588E698E7A8E8B8A9C8AAD8ABE8A78
:1020F00002C0359527956A95E2F73A8B298B8C308B
:1021000008F08BE08F5F88879E8709891A898D8107
:102110009E810817190769F19801281B390BC9011D
:10212000E091BF03F091C0036901CC0CDD1C309736
:1021300009F44BC04B815C812F5C3F4F2336310546
:10214000E0F597FD30C0688180E01995C00ED11E82
:1021500031E4C3163FE1D30654F08F85988983702C
:102160009927988B8F871A8A198A10E000E01E83BE
:102170000D83F3943ACF4F89588D698D7A8D9501EF
:102180008401041B150B260B370BB901A801453F31
:1021900051406105710508F46FCF8B8E9C8EAD8E1A
:1021A000BE8E188669CF698182E01995C8018C19A5
:1021B0009D09803C904E8CF2DACF97FD03C0688178
:1021C00081E0C3CF698183E0F0CF37FDEFCFBECF91
:1021D000DF91CF911F910F91FF90DF90CF90BF9033
:1021E000AF909F908F907F906F905F904F900895E9
:1021F000CF92DF92EF92FF920F931F93CF93DF93D3
:102200006C017A018091BD039091BE03892B31F15D
:10221000D60113968C9100E181FD08E0EB01CE25FB
:10222000DF2510E0C0FF13C08091BD039091BE0375
:10223000892B69F0E091BB03F091BC03309739F032
:10224000D6014D915C91612F8E2D81701995D69597
:10225000C795F694E7941F5F0113E4CFDF91CF9108
:102260001F910F91FF90EF90DF90CF900895AF9264
:10227000BF92CF92DF92EF92FF920F931F93CF9373
:10228000DF931F92CDB7DEB7C090BD03D090BE03E1
:10229000C114D10409F43FC0FC01238130E1B32E05
:1022A00021FF02C028E0B22EA62E8C01F601858106
:1022B0008683F12CE12CBA946B2DC6010E94B90FD4
:1022C000F80182810E94CE038983F80182810E94F5
:1022D000CE038983EE0CFF1C298181E090E021115F
:1022E00002C090E080E0E82AF92AB110E4CFF601BC
:1022F0006681C6010E94B90FF801648175816E156F
:102300007F0549F0AA2021F0A701C8010E94F8101A
:10231000F801F582E4820F90DF91CF911F910F9128
:10232000FF90EF90DF90CF90BF90AF900895CF9344
:10233000C0E08091BA03C81768F4EC2FF0E0EE0F0C
:10234000FF1FEE54FC4F61E0808191810E943711A4
:10235000CF5FEFCFCF910895DC01E091B003F09112
:10236000B103309761F013968C911397882339F05D
:102370004D915C91119712966C9181E0199408959A
:10238000DC01E091B003F091B103309759F013965E
:102390008C911397811106C04D915C911197129603
:1023A0006C91199408951F93CF93DF9310E080915F
:1023B000AF031817F0F4E12FF0E0EE0FFF1FE95D17
:1023C000FC4FC081D1818A810E94CE039B818917F5
:1023D00051F091E0811101C090E09B83811105C013
:1023E000CE010E94C0111F5FE2CFCE010E94AC114E
:1023F000FACFDF91CF911F910895FC01A08DB0E03D
:102400001396AA0FBB1FA80FB91F868997892D9114
:102410003C91821B930B978B868B8281863308F0CD
:10242000865320917B00982F9870277F922B909352
:102430007B008770806480937C0080917A00806448
:1024400080937A0080917A0086FDFCCF909178008D
:1024500080917900A08DB0E01396AA0FBB1FAE0F3C
:10246000BF1F8927982789278D939C93A08DB0E063
:102470001396AA0FBB1FAE0FBF1F868997892D9198
:102480003C91820F931F978B868B808D8F5F808FFF
:10249000808D8770808F0895CF93C0E08091260350
:1024A000C81760F4EC2FF0E0EE0FFF1FEA5FFC4F5F
:1024B000808191810E94FD11CF5FF0CFCF9108956F
:1024C000CF93C0E080912603C817B8F5EC2FF0E059
:1024D000EE0FFF1FEA5FFC4FA081B18156968D91F0
:1024E0009C91579723E0969587952A95E1F7139647
:1024F0002D913C911497AC01421B530B9A0157FF4D
:1025000003C031952195310915964C9115974217C5
:10251000130609F084F414969C938E931397E0911C
:102520000403F0910503309731F04D915C911197C0
:1025300012966C911995CF5FC5CFCF9108950E94E7
:10254000420560934F0B7093500B8093510B909307
:10255000520B0895BF92CF92DF92EF92FF920F93AA
:102560001F93CF93DF93EC0160E088810E94EA0320
:10257000FB800F2D10E00C5F1F4F0C0F1D1FFF2065
:10258000E1F0F801D2908F01C980BA8088E0E82E8E
:102590006D2D661F6627661F8B2D0E94EA03DD0CDA
:1025A00061E08C2D0E94EA0360E08C2D0E94EA031A
:1025B000EA94E110EDCFFA94E2CF61E08881DF91F7
:1025C000CF911F910F91FF90EF90DF90CF90BF9030
:1025D0000C94EA039F92AF92BF92CF92DF92EF9258
:1025E000FF920F931F93CF93DF93EC01C62E61E010
:1025F0008B810E94EA0361E08A810E94EA0310E075
:102600008D81181708F03FC0DB80BC8087E0E82E82
:10261000F12C00E061E08D2D0E94EA038B2D0E94D9
:10262000CE030E2C01C0880F0A94EAF7082B60E055
:102630008D2D0E94EA0381E0E81AF10858F75E0147
:10264000A10EB11CF501D780D016D9F0CC20B9F07D
:10265000912E990C990C990CE02EF12C8D2D8E2534
:1026600080FF07C04E2D4170692D6F0DCE010E9475
:10267000D90FD694E694F394F8E0FF12EFCFF5016A
:1026800007831F5FBDCF60E08A81DF91CF911F91EB
:102690000F91FF90EF90DF90CF90BF90AF909F9001
:1026A0000C94EA03CF93C0E08091F203C81768F45A
:1026B000EC2FF0E0EE0FFF1FE651FC4F61E0808150
:1026C00091810E94EA12CF5FEFCFCF9108957F9260
:1026D0008F929F92AF92BF92CF92DF92EF92FF9232
:1026E0000F931F93CF93DF93C0E08091AF03C81780
:1026F00060F4EC2FF0E0EE0FFF1FE95DFC4F8081EE
:1027000091810E94AC11CF5FF0CFC0E08091AF0308
:10271000C81760F4EC2FF0E0EE0FFF1FE95DFC4FEF
:10272000808191810E94C011CF5FF0CF10E0809135
:10273000F203181708F057C0E12FF0E0EE0FFF1F6B
:10274000E651FC4FC081D18160E0CE010E94EA12C7
:102750006E0187E0C80ED11C4601712CF12CE12CD2
:102760008D818E151F04D9F0D4F0F40181914F01B1
:1027700000E0A82EB12C80FF06C041E0672D600F5D
:10278000CE010E94D90FB594A7948A2D0F5F08300F
:1027900081F7FFEFEF1AFF0A88E0780EE1CFF12C06
:1027A000912C812C8D8188151904D9F0D4F0F60173
:1027B00081916F0100E0A82EB12C80FD06C040E0A1
:1027C0006F2D600FCE010E94D90FB594A7948A2D6A
:1027D0000F5F083081F7FFEF8F1A9F0A88E0F80E2D
:1027E000E1CF1F5FA4CF0E949F1210E08091BA0337
:1027F0001817E0F4E12FF0E0EE0FFF1FEE54FC4F4E
:10280000C081D18160E0CE010E9437114C815D8191
:1028100070E060E0CE010E94F8104C815D816FEFA6
:102820007FEFCE010E94F8101F5FE0CFC0E08091E3
:102830002603C81718F5EC2FF0E0EE0FFF1FEA5F34
:10284000FC4FA081B18156968D919C91579723E0C2
:10285000969587952A95E1F714969C938E931397F6
:10286000E0910403F0910503309731F04D915C91B4
:10287000119712966C911995CF5FD9CFDF91CF91B7
:102880001F910F91FF90EF90DF90CF90BF90AF908E
:102890009F908F907F9008950E946A03882359F03B
:1028A00081E080935C1380935D1380915E1390911F
:1028B0005F130C94422F10925D1390E080E0089516
:1028C000CF930E944C14C82F0E944C14BC018C2F33
:1028D0000E944604CF910C949F120E944C142091A8
:1028E000690B821760F4FC01FF27EE0FFF1FEB5A04
:1028F000F44F808191810E94F60D0C949F120895EF
:102900000F931F930E944C142091690B821708F0BB
:1029100047C0FC01FF27EE0FFF1FEB5AF44FA081C9
:10292000B1811296ED91FC91139714861586168647
:102930001786108A118A128A138A14AA15AA16AA4F
:1029400017AA14A215A216A217A2148A158A168A0B
:10295000178A1C968C911C978823F1F012968D9102
:102960009C9113971A964C9150E0519541955109BD
:10297000052E000C660B770BFC010089118922895A
:102980003389401751076207730731F0408B518B31
:10299000628B738B0E94630C1F910F910C949F129A
:1029A0001F910F9108958F929F92AF92BF92CF92F5
:1029B000DF92EF92FF921F93CF93DF930E944C140C
:1029C000EC010E944C14BC0180911E048C171D0662
:1029D00009F00CF4DCC0CC0FDD1FC65FDB4F0990A3
:1029E000D881C02DCD80DE800D2C000CEE08FF08B4
:1029F00089809A80092C000CAA08BB082F81388591
:102A0000032E000C440B550B2C193D094E095F0990
:102A1000072E000C880B990B681979098A099B0904
:102A20000E946C312B813C81032E000C440B550B12
:102A3000281939094A095B090E940931BA01A9011B
:102A40004C0D5D1D6E1D7F1D052E000C660B770B5A
:102A50008D859E85AF85B88984179507A607B7072A
:102A600009F45CC04D875E876F87788B89858111FB
:102A700055C08A85803308F04FC0188161E0812FEE
:102A80000E940A048A85282F30E0F901EE0FFF1F0B
:102A9000E20FF31FE959F54F1F739081907C912B42
:102AA00090831B861C862CE0622F0E947C31829FC3
:102AB000B001112430E020E0AB01420F531FFA01B6
:102AC000EE0FFF1FE40FF51FE959F54F908196FDBA
:102AD00016C02F5F3F4F2C30310571F7813059F50B
:102AE0001092800082E08093810010928500109205
:102AF0008400B19A80916F00826080936F00EA85B4
:102B00008E2F90E0FC01EE0FFF1FE80FF91FE9592F
:102B1000F54F80818064808381E08987DF91CF9148
:102B20001F91FF90EF90DF90CF90BF90AF909F905C
:102B30008F900C949F12823061F4109290008093D9
:102B40009100109295001092940088BB80937100C0
:102B5000D6CF833069F41092A00082E08093A10068
:102B60001092A5001092A40089BB80937200C7CF79
:102B70008111C5CF1092200182E080932101109233
:102B80002501109224018ABB80937300B8CFDF9196
:102B9000CF911F91FF90EF90DF90CF90BF90AF90BB
:102BA0009F908F900895EF92FF920F931F93CF9372
:102BB000DF930E944C148C010E94BB037C01EC014A
:102BC000FC01DE018081882349F09091671389130D
:102BD00001C03196808189933196F3CFAE17BF073C
:102BE00010F41D92FBCF000F111FF801EB50FC4FAA
:102BF00000811181F80186858823B1F0C0E0F801D9
:102C000081898C1789F04C2F60E0C8010E948709E8
:102C1000F8014089B701C49F600D711D1124C801DE
:102C20000E94E609CF5FEBCFDF91CF911F910F910B
:102C3000FF90EF900C949F122091D3113091D411FA
:102C40008217930710F40C94F33080E008950F93EB
:102C50001F93CF93DF938C01EB01F8018081918169
:102C60009C012F5F3F4F318320830E941C162881D7
:102C70003981A9014F5F5F4F598348832152344FF7
:102C8000F901808328813981283EF3E03F0760F411
:102C90008A3319F72252344FF901108281E0DF9113
:102CA000CF911F910F91089580E0F9CFEF92FF929D
:102CB0000F931F93CF93DF93EC01E090D311F0902B
:102CC000D411888199818C010F5F1F4F198308836C
:102CD0000E941C16E016F10650F08A3391F781E04D
:102CE000DF91CF911F910F91FF90EF90089580E0B9
:102CF000F7CFAF92BF92CF92DF92EF92FF920F93F6
:102D00001F93CF93DF9300D01F92CDB7DEB75C0146
:102D100019821A821B821C82CE0101967C0110E06E
:102D200000E06C01F501808191819C012F5F3F4F94
:102D3000318320830E941C16F7018083F8018E32B4
:102D400041F00F5F1F4F8FEFE81AF80A04301105AA
:102D500049F7EC0DFD1D1082C6010E94422F0F9015
:102D60000F900F900F90DF91CF911F910F91FF90D7
:102D7000EF90DF90CF90BF90AF900895FB0101904E
:102D80000020E9F73197AF01461B570BDC01ED91AD
:102D9000FC910280F381E02D199480919212882396
:102DA000A1F06091651380916313909164130E9468
:102DB0004E0580919A12882341F06FEC72E0809169
:102DC0006313909164130E94BE1610929912109290
:102DD000921280E008958F929F92AF92BF92EF92ED
:102DE000FF920F931F93CF93DF93CDB7DEB7A197D9
:102DF0000FB6F894DEBF0FBECDBF7C01FA01CB0148
:102E000019A2223008F42AE08E010F5D1F4F822E96
:102E1000912CB12CA12CBF01A50194010E943B3142
:102E2000F901CA016A300CF5605DD8016E938D011D
:102E3000232B242B252B79F790E080E0109721F0AD
:102E4000BD01C7010E94BE16A1960FB6F894DEBF61
:102E50000FBECDBFDF91CF911F910F91FF90EF90EB
:102E6000BF90AF909F908F900895695CDECFCF9315
:102E7000909192129923A9F0C82F609166138091C6
:102E80006313909164130E944E054C2F50E070E044
:102E900060E02AE08091631390916413CF910C94C9
:102EA000EB16CF91089590919212911110C091E07C
:102EB0009093921290939912482F50E070E060E046
:102EC0002AE080916313909164130C94EB1608959B
:102ED000CF93DF939091921291111AC0EB010E944F
:102EE000531780919212882379F060916613809134
:102EF0006313909164130E944E05BE018091631389
:102F0000909164130E945505DF91CF910C94CD16DA
:102F100080E0DF91CF9108950E94420560934F0BAE
:102F20007093500B8093510B9093520B64EA72E0B4
:102F300085E00C9468171F93CF93DF931092AF0333
:102F40001092E90310924E0B90910104E2E0F4E03C
:102F500080E0981731F0A191B19155961C928F5F46
:102F6000F8CF1092010430911E04CAE0D4E020E0B2
:102F70003217D1F0A991B99119968C91199788239C
:102F800089F01A96EC911A978E2F90E0FC01EE0FC3
:102F9000FF1FE80FF91FE959F54F80818F7B808370
:102FA00019961C922F5FE4CF10921E049091690B2A
:102FB000E5E5FBE080E0981729F0A191B1911C9222
:102FC0008F5FF9CF1092690B90910203E5EFF3E068
:102FD00080E0981759F0A191B1911E962C911E97FF
:102FE000222311F01E961C928F5FF3CF10920203E2
:102FF0001092260390910303E9EFF3E080E0981725
:1030000059F0A191B19118962C911897222311F0A3
:1030100018961C928F5FF3CF109203039091F203E6
:10302000EAEEF3E080E0981731F0A191B1911696A5
:103030001C928F5FF8CF1092F20310E0E091BA0378
:103040001E1798F4F0E0EE0FFF1FEE54FC4FC08106
:10305000D1818B8180FF07C062E08A810E940A04CF
:103060008B818E7F8B831F5FE9CF1092BA03109202
:10307000FD0A1092FC0A1092540B1092FC09109257
:10308000FB0968EA72E085E0DF91CF911F910C9413
:1030900068176BEA72E08FE00C9468172091FB09C7
:1030A0003091FC09820F932F911D9093FC0980931E
:1030B000FB098C3D954040F06CED74E085E00E948A
:1030C000681790E080E00895C901815E9B4F0895E4
:1030D000CF92DF92EF92FF920F931F93CF93DF93E4
:1030E0009091E903943109F45EC07901142FC62E42
:1030F000D82E8FE10E94EA0D81110DC06BEF73E0B5
:1031000085E0DF91CF911F910F91FF90EF90DF90BD
:10311000CF900C9468178FE10E944E18EC01892B18
:1031200009F01A820091E903E02FF0E0EE0FFF1F93
:10313000EF53FC4FD183C0831E821D82FC82EB8241
:10314000D882C98285E0819FF0011124EE59FD4F9C
:10315000DE01199601900D928A95E1F762E08D2DBE
:103160000E940A0462E089810E940A041E86188A6D
:103170001F861A8A198A18861F8A188E198E1A8E27
:1031800084EF91E0A0E0B0E08B8B9C8BAD8BBE8B8D
:1031900081E08A838DE599E19093C0038093BF031A
:1031A0000F5F0093E903DF91CF911F910F91FF9083
:1031B000EF90DF90CF90089581E08093540B6EEAFA
:1031C00072E081E10C946817CF93DF930E949F1205
:1031D0008AE00E9453178091FC0A9091FD0A892B86
:1031E00091F18BE390E00E941C16C82F80919212FF
:1031F000882379F060916613809163139091641332
:103200000E944E056C2F80916313909164130E946D
:103210004E05C1E0D0E08091FC0A9091FD0AC817EC
:10322000D90788F4CE01CB960E941C169091921279
:10323000992339F0682F80916313909164130E9451
:103240004E052196E8CFDF91CF910C94CD16CF9308
:10325000DF93209192122223A1F0EC01609166137A
:1032600080916313909164130E944E05209749F05A
:10327000BE018091631390916413DF91CF910C9400
:10328000BE16DF91CF9108950F931F93CF93DF93D5
:10329000C82FD62F8A018DE10E945317C8010E94C2
:1032A00027198D2F0E9437178C2F0E943717DF9117
:1032B000CF911F910F910C94CD160F931F93CF9325
:1032C000C82F8A0186E00E945317C8010E9427195F
:1032D0008C2F0E943717CF911F910F910C94CD1610
:1032E0000F931F93CF93DF93C82FD62F8A018EE1C0
:1032F0000E945317C8010E9427198D2F0E9437176B
:103300008C2F0E943717DF91CF911F910F910C9452
:10331000CD160F931F93CF93C82F8A0187E00E9489
:103320005317C8010E9427198C2F0E943717CF917D
:103330001F910F910C94CD16CF92DF92EF92FF92D6
:10334000CF93DF936C01EA018CE10E945317CE0109
:103350000E94271980919212882321F160916613AF
:1033600080916313909164130E944E05C091631382
:10337000D09164130D2C000CEE08FF082AE0B70171
:10338000A601F7FE0CC06DE2CE010E944E05442757
:103390005527BA014C195D096E097F092AE0CE0153
:1033A0000E94EB16DF91CF91FF90EF90DF90CF90CE
:1033B0000C94CD16FB0101900020E9F73197AF0185
:1033C000461B570BDC01ED91FC910284F385E02D47
:1033D0001994CF92DF92EF92FF920F931F93CF93A6
:1033E000DF938C01EB01FC01D0886D2D70E0FE01B4
:1033F00001900020E9F7CF0101978C1B9D0B8617E8
:103400009707B0F4681B790B76956795D82EC8019D
:103410000E948709CC2EEC2EFD2E8E2D8C198D1539
:1034200048F4F70161917F01C8010E94CE09F5CFF0
:1034300060E0EDCFDF91CF911F910F91FF90EF9062
:10344000DF90CF90089585ED8093BC008091B70BFD
:103450009091B80BA091B90BB091BA0B0796A11D32
:10346000B11D23E0B695A795979587952A95D1F735
:103470002091BC0024FD03C01092B50B089540912B
:10348000B70B5091B80B6091B90B7091BA0B452BEB
:10349000462B472B69F30097A105B10541F025E3C1
:1034A0002A95F1F700000197A109B109E1CF8091B8
:1034B000B60B0C94B2074F925F926F927F928F92ED
:1034C0009F92AF92BF92CF92DF92EF92FF92CF93F3
:1034D000DF93EC016A017B0120E030E0A901CB0120
:1034E000B6010E94CF2F87FF04C0F7FAF094F7F8D7
:1034F000F0948C8C9D8CAE8CBF8CA7019601C5017D
:10350000B4010E94CF2F882309F449C06CA97DA97A
:103510008EA99FA90E94D62F2B013C01A7019601DD
:10352000C501B4010E9411329B01AC01C301B2017B
:103530000E9435300E9483326CAB7DAB8EAB9FAB6B
:10354000A701960160E070E080E090E40E941132F3
:103550000E94C43226E53EE04DE25FE30E94353032
:1035600020E034E244E759E40E94353068AF79AF97
:103570008AAF9BAFCC8EDD8EEE8EFF8ECE01DF91BB
:10358000CF91FF90EF90DF90CF90BF90AF909F9042
:103590008F907F906F905F904F900C94630CDF91B1
:1035A000CF91FF90EF90DF90CF90BF90AF909F9022
:1035B0008F907F906F905F904F900895EF920F9350
:1035C000CF93DF93EC0185E992E0998388836B8345
:1035D0001C861D861E861F86188A198A1A8A1B8ACF
:1035E0001C8A1D8A1E8A1F8A80E090E0A0E8BFE343
:1035F000888F998FAA8FBB8F1C8E1D8E1E8E1F8E5B
:1036000088A399A3AAA3BBA31CA21DA21EA21FA2AA
:1036100061E070E07DA76CA73FEF3FA718A619A651
:103620001AA61BA64C832D830E83EF821EA61CAA0E
:103630001DAA1EAA1FAA18AE19AE1AAE1BAE1CAE4A
:103640001DAE1EAE1FAEFE01E05CFF4F8083918376
:10365000A283B3831A82188619861A861B86CE0126
:103660000E94420A40E050E060E87FE3CE01DF9133
:10367000CF910F91EF900C945B1A8F929F92AF9223
:10368000BF92CF92DF92EF92FF920F931F93CF934F
:10369000DF930E944C14EC010E944C148C010E9498
:1036A0004C147C018091690BC81708F078C0DD27A5
:1036B000CC0FDD1FCB5AD44FC880D980F601C28110
:1036C000D381B80190E080E00E94D42F4B015C01CF
:1036D000288D398D4A8D5B8D0E94CF2F8823F1F183
:1036E000888E998EAA8EBB8E8E01005C1F4FA5011D
:1036F000940160E074E284E799E40E941132F801D9
:1037000060837183828393838CA99DA9AEA9BFA98D
:10371000181619061A061B060CF56C897D898E8908
:103720009F899B01AC010E9435304B015C016C8D7F
:103730007D8D8E8D9F8D9B01AC010E94A5319B01DB
:10374000AC01C501B4010E9411320E9483326CABFE
:103750007DAB8EAB9FABCE010E94630CB70190E0B6
:1037600080E00E94D42F4B015C0120E030E0A901F1
:103770000E94CF2F882399F0B501A401F601828120
:103780009381DF91CF911F910F91FF90EF90DF9088
:10379000CF90BF90AF909F908F900C945B1ADF9169
:1037A000CF911F910F91FF90EF90DF90CF90BF903E
:1037B000AF909F908F9008954F925F926F927F92FB
:1037C0008F929F92AF92BF92CF92DF92EF92FF9231
:1037D0000F931F93CF93DF93D02E9091690B9A3064
:1037E00009F44AC00E2DB22EE42E162FF82E8EE0CC
:1037F0000E94EA0D811115C06CEB74E085E0DF9149
:10380000CF911F910F91FF90EF90DF90CF90BF90DD
:10381000AF909F908F907F906F905F904F900C949F
:1038200068178EE00E944E18EC01892B09F018826F
:10383000E091690BF0E0EE0FFF1FEB5AF44FD183DC
:10384000C08384E40E94EA0D811127C06BE974E013
:1038500085E00E946817C091690BDD2051F0EC2FC4
:10386000F0E0EE0FFF1FEB5AF44F808191810E9430
:10387000F60DCF5FC093690BDF91CF911F910F9130
:10388000FF90EF90DF90CF90BF90AF909F908F9080
:103890007F906F905F904F900895013009F48EC033
:1038A00028F0023009F496C01882D5CF84E4FE10C7
:1038B0000EC01B110CC00E944E184C01892B99F0B0
:1038C00095E0E92E04E0212F4F2D61E009C00E9410
:1038D0004E184C01892B39F00F2D212F4B2D64E010
:1038E000C4010E94DE1A9B828A82EA80FB8020E06B
:1038F00030E048EC53E4F701608D718D828D938D3B
:103900000E94CF2F882309F440C080E090E0A8EC0B
:10391000B3E4F701808F918FA28FB38F80E090E4A2
:10392000ACE1B5E4E05CFF4F80839183A283B38375
:10393000F70184A995A9A6A9B7A9181619061A0608
:103940001B061CF564897589868997899B01AC01E2
:103950000E9435302B013C01F701648D758D868DF9
:10396000978D9B01AC010E94A5319B01AC01C30165
:10397000B2010E9411320E948332F70164AB75AB31
:1039800086AB97ABC7010E94630C40E050E068E44F
:1039900074E48A819B810E945B1ADC8281E08D83C2
:1039A000DD2021F062E08D2D0E940A04CA86AB86DC
:1039B00081E0888319828D878C874DCF84E40E94B3
:1039C0004E184C01892B09F48ECF0F2D212F4B2D32
:1039D00068E086CF84E46FCF8F929F92AF92BF92C0
:1039E000CF92DF92EF92FF92CF93DF930E944C141D
:1039F000EC01B82E0E946A03882309F48FC081E08D
:103A000080935C1380935D1380915E1390915F139C
:103A10000E94602F6B017C018091690BB81608F041
:103A200083C0DD27CC0FDD1FCB5AD44F0990D8813E
:103A3000C02D19828E819F81A885B985C816D906A7
:103A4000EA06FB0609F45EC08A819B81DC011C96B4
:103A50008D909D90AD90BC901F972B85222351F0A7
:103A60002D85222339F0ED91FC910280F381E02D28
:103A700019951D868C85882379F0C814D904EA0429
:103A8000FB0454F48E819F81A885B985C816D90698
:103A9000EA06FB060CF41C868C85811110C08C1480
:103AA0009D04AE04BF045CF48E819F81A885B98516
:103AB0008C159D05AE05BF0514F481E08C878A81C5
:103AC0009B814A852C85429FA0011124052E000C64
:103AD000660B770B4C0D5D1D6E1D7F1DFC018088F4
:103AE0009188A288B388481559056A057B0531F08D
:103AF000408B518B628B738B0E94630CCE82DF8272
:103B0000E886F986DF91CF91FF90EF90DF90CF901C
:103B1000BF90AF909F908F900C949F1210925D1366
:103B2000C12CD12C760178CFDF91CF91FF90EF900F
:103B3000DF90CF90BF90AF909F908F900895BF92ED
:103B4000CF92DF92EF92FF920F931F93CF93DF9369
:103B5000EC01E62EC42ED22EFB88FF0C0F2D10E0B8
:103B6000A80170E060E003960E941933EE2DEE0F7D
:103B7000EC0FFD2FF11DC482D38260E08A810E9488
:103B8000EA030D5F1F4F0C0F1D1FFF20E1F0F8012E
:103B9000B2908F0188E0C82ED12C90E8E92E6B2DD1
:103BA0006E2188810E94EA0361E089810E94EA0314
:103BB00060E089810E94EA03E694F1E0CF1AD1081F
:103BC00071F7FA94E2CF61E08A81DF91CF911F9182
:103BD0000F91FF90EF90DF90CF90BF900C94EA038D
:103BE0008F929F92AF92BF92CF92DF92EF92FF920D
:103BF0000F931F93CF93DF930E944C14EC010E940C
:103C00004C14882E0E94BB035C010E944C146C0172
:103C10000E944C14CC0FDD1FCE5FDB4F0881198151
:103C2000F8012589222309F43CC0C7E0D0E0912C9B
:103C30007C01FF24DD246C2F4C2F4F5FC7010C2E1D
:103C400002C0959587950A94E2F780FF28C0F80195
:103C5000A3898A1618F5F501E90DF11D808187FD0C
:103C600080E296010C2E02C0359527950A94E2F762
:103C700020FD8068F80192819D3F10F06A1770F472
:103C8000E82FEF77F0E0E55EFB4F24919D3FB8F41D
:103C900087FD2068682DC8010E949F1D939421977D
:103CA00050F6DF91CF911F910F91FF90EF90DF9031
:103CB000CF90BF90AF909F908F900C949F12220F47
:103CC00087FD2160A150BB0BAC1BBD0BA00FB11F2A
:103CD00013962C9341E0C8010E945A0FDFCF1F9327
:103CE000CF93DF93DC0112962C9112972D3F60F455
:103CF00053962C91621700F521E024274CE0DF91C8
:103D0000CF911F910C949F1D5496EC91F0E0F59586
:103D1000E7951E2F411101C01860EC010E94530F5E
:103D200060E8610F40E0CE010E94E20ECE01DF911B
:103D3000CF911F910C943C0FDF91CF911F9108956B
:103D40000F931F93CF93DF93FC0125892223C1F1A9
:103D50006217B0F5442391F12FEF240F203108F0C2
:103D60002FE0D62F8C01FC01248B82818D3F80F4C3
:103D70008389681720F44AE0C8010E949F1D40E033
:103D80006D2FC801DF91CF911F910F910C946F1E81
:103D9000C0E0413031F02695423009F421E0C22FD5
:103DA000C860C8010E94530F60E86C0F40E0C80172
:103DB0000E94E20EC8010E943C0FE1CF41E0E2CF39
:103DC000DF91CF911F910F9108951F93CF93DF93B0
:103DD0000E944C14EC010E944C14182F0E944C14A9
:103DE000CC0FDD1FCE5FDB4F482F612F888199817B
:103DF0000E94A01EDF91CF911F910C949F120C94F2
:103E0000E51EFF920F931F93CF93DF93F82EC0E030
:103E100080910104C817B0F4EC2FF0E0EE0FFF1F03
:103E2000EE5FFB4F00811181D0E0F80185898D178D
:103E300039F04F2D6D2FC8010E946F1EDF5FF5CF47
:103E4000CF5FE6CFDF91CF911F910F91FF90089543
:103E50000F931F93CF93DF93EC01062F4B898A8139
:103E60008D3F88F4641750F410E01F5F20E0412F6D
:103E7000602FCE010E949F1D1830B9F7DF91CF91BE
:103E80001F910F91089550E070E060E0CE0103961D
:103E90000E9419334B896FEF640FCE01DF91CF91F0
:103EA0001F910F910C945A0F2F923F924F925F9255
:103EB0006F927F928F929F92AF92CF92DF92EF920A
:103EC000FF920F931F93CF93DF9300D01F92CDB734
:103ED000DEB78091FC0A9091FD0A892B09F478C520
:103EE0008BE390E09A8389831C821B82CE0101962A
:103EF0000E947916882309F46BC56BE4862E66E46C
:103F0000962E74EB672E712CEFEFE80FEF3008F070
:103F1000A8C00E2E000CFF0B8827EE56F04E8F4FD8
:103F20000C949C31A11FC521FE1F36200621732150
:103F3000ED21D821292179231A23EB233120502484
:103F40004621CE0101960E947916D82E8091AF03AA
:103F50008434D9F184E00E94EA0D61EB72E0882399
:103F600009F4E7C4EB80FC8084E00E944E188C01C9
:103F70000097C1F0DC011296DC921297C7018152C2
:103F8000944F8D939C9362E08D2D0E940A04F8015A
:103F900082810E94CE0321E0892B09F420E0D80120
:103FA00013962C938091AF03E82FF0E0EE0FFF1FE4
:103FB000E95DFC4F1183008329E839E13093B103B7
:103FC0002093B0038F5F8093AF03BE016D5F7F4F7F
:103FD000CE0101960E942716182FCE0101960E944D
:103FE0007916882309F4F1C411118ECF1092C60FEF
:103FF00061ED73E085E00E946817EAC4CE01019686
:104000000E947916F82E80914E0B883251F182E091
:104010000E94EA0D6FEC72E0882309F48AC382E003
:104020000E944E188C01009779F0FC01F0821182F9
:1040300061E08F2D0E940A04D80111966C911197AE
:1040400070E08C910E94460480914E0BE82FF0E0C6
:10405000EE0FFF1FE250F54F118300838F5F8093B7
:104060004E0BCE0101960E945616B6CFCE01019698
:104070000E947916582ECE0101960E947916D82EEC
:10408000CE0101960E947916C82ECE0101960E949B
:104090007916482ECE0101960E947916E82E80915D
:1040A00001048430F1F286E10E94EA0D6DEE72E0C7
:1040B000882309F43EC386E10E944E188C010097C4
:1040C00029F0FC01138A8FE0848B158AF09001049B
:1040D000EF2DF0E0EE0FFF1FEE5FFB4F118300832B
:1040E000D8015C921196CC9211971296DC92BCEF9B
:1040F000BD1508F447C08E2DE8E0EE1508F488E001
:10410000D80153968C9361E0852D0E940A0461E0EA
:10411000F80181810E940A0461E0D80112968C9115
:104120000E940A0461E0F80182810E94EA03D12C16
:10413000D80153968C91D81608F04CC020E04FE07F
:104140006D2DC8010E949F1DF80182818D3F48F4AA
:104150008389D81630F427E04BE06D2DC8010E940A
:104160009F1D20E049E06D2DC8010E949F1D6D2D0F
:10417000C8010E94281F41E06D2DC8010E946F1EDA
:10418000D394D6CFFDEF84E0DF1286E0D8015396BA
:104190008C9362E08C2D0E940A0462E0F801808119
:1041A0000E940A0460E0D80111968C910E94EA03F3
:1041B00060E0F80180810E94EA0360E0C8010E948B
:1041C000281F8FE0D80154968C9341E060E0C8012D
:1041D0000E946F1EF801E58AE12CD80155968C915A
:1041E000E81680F4442D6E2DC8010E94A01E40E008
:1041F0006E2DC8010E946F1E6E2DC8010E94281FDF
:10420000E394EBCFF394F09201042BCFCE0101960F
:104210000E947916182FCE0101960E947916F82E69
:10422000CE0101960E947916D82ECE0101960E94E9
:104230007916582ECE0101960E947916A12CC12C18
:10424000E12C00E0252D4D2D6F2D812F0E94DC1BD0
:1042500008CFCE0101960E947916182FCE01019643
:104260000E947916F82ECE0101960E947916D82E5A
:10427000CE0101960E947916582ECE0101960E9419
:104280007916A12CC12CE12C082FDCCFCE01019690
:104290000E947916182FCE0101960E947916F82EE9
:1042A000CE0101960E947916D82ECE0101960E9469
:1042B0007916582ECE0101960E947916082FCE014C
:1042C00001960E947916E82ECE0101960E94791679
:1042D000C82ECE0101960E947916AA24A3948111BA
:1042E000B1CFA12CAFCFCE0101960E947916182F25
:1042F00080911E048A3009F4B4CE87E10E94EA0D51
:104300006EE073E0882309F414C287E10E944E181E
:10431000FC01892BB9F08091F70A803398F591E080
:10432000980F9093F70A828790E0DC01AA0FBB1FD9
:10433000A80FB91FA959B54F28EB3BE012963C9343
:104340002E93119780911E04A82FB0E0AA0FBB1FD7
:10435000A65FBB4FED93FC931186158616861786D4
:10436000108A118A128A138A148A12821182748224
:104370006382168215827086678210838F5F8093B6
:104380001E046FCE8FEF8287DDCFCE0101960E9493
:104390007916182FCE0101960E9479162B813C8147
:1043A0002152344F40E0682F812F0E9468180DCEB3
:1043B000CE0101960E947916182FCE0101960E9417
:1043C0007916082FCE0101960E9479162B813C8127
:1043D0002152344F482F602FE7CFCE0101960E9423
:1043E0007916D82ECE0101960E947916E82ECE01BC
:1043F00001960E947916F82E80910203823009F40A
:1044000030CE82E10E94EA0D6CE273E0882309F469
:1044100090C182E10E944E188C01009761F0DC018E
:1044200013961C921E921297E6E5F2E01196FC9309
:10443000EE9319961C92E0910203F0E0EE0FFF1F3D
:10444000EB50FC4F11830083D8011F96DC921F971D
:104450005096EC9250975196FC92519781E01E969F
:104460008C931E971496DC9214971A96EC921A97D6
:104470001B96FC921B971C961C921C971D961C92D7
:1044800010921E0A10921D0A1092BC0B1092DE0BA5
:104490000E949407E6ECF8E0F093410AE093400AAA
:1044A00027EC38E03093450A2093440AD80115964A
:1044B0001C9215971B968C911B97823018F098E0F0
:1044C00015969C93F8019485992329F0813019F46D
:1044D0008581846085830E941D056B017C0162E3F8
:1044E000262E312C412C512C0E941D056C197D0962
:1044F0008E099F09683E734081059105A8F3F1E09C
:104500002F1A31084108510828EEC20E23E0D21EAE
:10451000E11CF11C211431044104510429F7D80194
:104520001D966C91C8010E94D40960E3C8010E94E5
:10453000D409C4010197F1F760E3C8010E94D409CE
:10454000C4010197F1F760E3C8010E94D40983E533
:1045500092E00197F1F760E2C8010E94D409F801E6
:104560006581606240E0C8010E945E0984E0D80174
:1045700016968C9340E06CE0C8010E945E09C80169
:104580000E94B60982E0F801878340E066E0C80136
:104590000E945E0940E062E0C8010E945E098BE370
:1045A0009FE10197F1F788E0D8011D968C931D9744
:1045B00014968C9191E09093BB0B8093DD0B10923D
:1045C000BC0B1092DE0B68E080EC91E10E941F09A9
:1045D0000E94C3088CE08093B800F8018685882388
:1045E00019F1C8010E94B609D80151964C91F12CDD
:1045F000433020F04695FF24FA94F40E4F2D62EDDF
:1046000072E0C8010E94E919F8018189823038F00E
:1046100041E04F0D6DED72E0C8010E94E91940E0E4
:1046200060E0C8010E948709809102038F5F809338
:10463000020317CDCE0101960E947916D82ECE0125
:1046400001960E947916C82E80912603803109F4C4
:10465000BCCC8DE10E94EA0D68E473E0882309F484
:1046600068C1EB80FC808DE10E944E188C01892B83
:1046700061F180E1F8013696DF011D928A95E9F734
:10468000F801178A168A108EC582D282C70181521C
:10469000944F9183808362E08D2D0E940A0458E03C
:1046A000F52EC8010E94FD11FA94F110FACFD8013D
:1046B00056968D919C91579743E0969587954A958C
:1046C000E1F714969C938E93139780912603E82F1D
:1046D000F0E0EE0FFF1FEA5FFC4F11830083ECE96F
:1046E000F9E1F0930503E09304038F5F80932603C1
:1046F0006CCCCE0101960E947916C82ECE0101968F
:104700000E947916382ECE0101960E947916482E05
:10471000CE0101960E947916582E809103038430B1
:1047200009F49FCC89E00E94EA0D811106C068E679
:1047300073E085E00E94681794CC89E00E944E18CF
:104740008C01D0900303ED2CF12CEE0CFF1CF70133
:10475000E750FC4F9183808381E0D80118968C93B9
:104760001897CC9211963C92119712964C921297F0
:1047700013965C9261E08C2D0E940A0461E0F801BE
:1047800081810E940A0461E0D80112968C910E94F6
:104790000A04F8019381349680E0981719F0119279
:1047A0008F5FFBCFC8010E94AA12F701E750FC4FB0
:1047B00080819181DC0113963C91FC01349620E0CC
:1047C000321719F011922F5FFBCF0E94AA12D394D7
:1047D000D092030346CCCE0101960E947916D82EC2
:1047E000CE0101960E947916482ECE0101960E94B4
:1047F0007916582ECE0101960E947916C82E809106
:10480000F203843009F4E1CB8BE00E94EA0D6DE8FD
:1048100073E0882309F48DC0EB80FC808BE00E945C
:104820004E188C01009731F0FC0116821782108619
:1048300011861286E091F203F0E0EE0FFF1FE651C1
:10484000FC4F11830083F801D28243825482C70156
:104850008152944F91838083C58261E08D2D0E94A7
:104860000A0461E0D80113968C910E940A0460E06A
:10487000F80184810E940A0481E0D80116968C9385
:1048800060E0C8010E94EA12E4E4F9E1F093F40365
:10489000E093F3038091F2038F5F8093F20395CB53
:1048A000CE0101960E947916D82ECE0101960E9463
:1048B0007916F82ECE0101960E947916082FCE01A6
:1048C00001960E947916182FCE0101960E94791642
:1048D000F092CC110093CD111093CE118093CF1193
:1048E0001092D0110CEC11E161E0D8018D918D0195
:1048F0000E940A04B1E1003D1B07B1F78091D0117D
:1049000081608093D01160E08CEC91E10E94B90F3E
:10491000CE0101960E947916C82E8091BA03843088
:1049200009F453CB86E00E94EA0D811106C061EBC9
:1049300073E085E00E94681748CBEB80FC8086E03E
:104940000E944E188C01009759F0ECECF1E1F093C5
:10495000BE03E093BD03DC0115961C921E921497D2
:10496000E091BA03F0E0EE0FFF1FEE54FC4F11830D
:104970000083F801D282C7018152944F91838083D2
:10498000F1E0CF16F1F0D80113961C9262E08D2D64
:104990000E940A04D80113968C9113978160139694
:1049A0008C9360E0C8010E943711E0E7F9E1F093D1
:1049B000BC03E093BB038091BA038F5F8093BA037B
:1049C00004CB82E0F8018383E1CF112309F40ECBFD
:1049D0000F900F900F900F90DF91CF911F910F913B
:1049E000FF90EF90DF90CF90AF909F908F907F904F
:1049F0006F905F904F903F902F9008950E94541FAA
:104A00000C94DC18FF920F931F93CF93DF930E94B7
:104A10004C14EC010E94BB038C010E944C14F82E34
:104A2000CC0FDD1FC750DC4F0990D881C02D888581
:104A3000882369F164EE72E0C8010E94872F01E0CB
:104A400010E0009709F10E94422F9885992391F078
:104A5000982F9770980101C0220F9A95EAF78695D2
:104A600086958695FE01E80FF11D8481FF2049F0AF
:104A7000282B248364EE72E090E080E00E94872F70
:104A8000E0CF20952823F5CFCE010E94AA12DF9116
:104A9000CF911F910F91FF900C949F12FF920F9353
:104AA0001F93CF93DF938C01EB01F8800E94F330CA
:104AB000F81621F06F2DC8010E94FB30CE01DF9166
:104AC000CF911F910F91FF900895AF92BF92CF9217
:104AD000DF92EF92FF920F931F93CF93DF930E9489
:104AE0009F120E94BB036C01EC0109900020E9F7C2
:104AF0002197C81BD90BDD27E090FC0AF090FD0A36
:104B0000C70101968C0F9D1F883D954008F053C04A
:104B10005E018FEFA81AB80A2BE3E20EF11C950193
:104B20002E0D3F1D8091D3119091D41182179307C0
:104B300078F010E000E0B601600F711FC701800F30
:104B4000911F0E944E250F5F1F4F0A151B0598F3FA
:104B50004091FC0A5091FD0AC40FD51FD093FD0A65
:104B6000C093FC0A80919212811147C085E00E9497
:104B7000531780919212882391F06091661380916F
:104B80006313909164130E944E05AE0170E060E0E3
:104B90002AE080916313909164130E94EB16DF91D9
:104BA000CF911F910F91FF90EF90DF90CF90BF902A
:104BB000AF900C94CD168091921281111EC085E0A9
:104BC0000E94531780919212882349F360916613D3
:104BD00080916313909164130E944E05C0916313FA
:104BE000D09164136DE2CE010E944E052AE041E0AF
:104BF00050E060E070E0CE01D0CFDF91CF911F9107
:104C00000F91FF90EF90DF90CF90BF90AF900895FD
:104C1000CF93DF930E94BB03FC0190E3A6E1B2E0D7
:104C200001900D929A95E1F78091D3119091D41152
:104C3000892B29F063E290E080E00E94FB308091B4
:104C4000D3119091D411C09760F0D0E0C0E0BE01C4
:104C50006A5E7D4F2196CE010E944E25CF32D1054E
:104C6000B1F78091921281110BC085E00E94531719
:104C700086E192E00E942719DF91CF910C94CD1626
:104C8000DF91CF9108954F925F926F927F928F92B2
:104C90009F92AF92BF92CF92DF92EF92FF92CF930B
:104CA000DF930E944205611571058105910511F0A0
:104CB0000E94392F0E94EA2E2B013C010E94EA2E0D
:104CC0004B015C01CC24CA948FE0D82EE12CF12C4E
:104CD000C301B201A70196010E9409317F936F932E
:104CE000C501B401A70196010E9409317F936F931A
:104CF00086EE92E09F938F9380E092E09F938F9354
:104D00000E9427338DB79EB708960FB6F8949EBFC2
:104D10000FBE8DBF8091D3119091D411CB9760F0CD
:104D2000C0E3D0E0BE0160537E4FCE010E944E250D
:104D30002196CB33D105B1F7DF91CF91FF90EF9062
:104D4000DF90CF90BF90AF909F908F907F906F90AB
:104D50005F904F9008950E94432680919212811196
:104D600009C08AE00E94531780E092E00E94271950
:104D70000C94CD160895EF92FF920F931F93CF934B
:104D8000DF9380E390E00E941C16833509F048C051
:104D900081E390E00E941C168E3409F049C0809196
:104DA000D3119091D411CB9770F000E012E0C0E3E2
:104DB000D0E0CE010E94F330F80181938F0121965B
:104DC000CB33D105B1F70E949F128AE00E9453179E
:104DD00080919212882381F0609166138091631311
:104DE000909164130E944E056BEE73E08091631303
:104DF000909164130E94550586E192E00E94271964
:104E000080E092E00E9427198CEF92E00E9427191F
:104E1000DF91CF911F910F91FF90EF900C94CD16E1
:104E2000893431F481E390E00E941C16843471F0DF
:104E30000E9443268091D3119091D411CC9718F2FF
:104E400060E08BE390E00E94FB30BDCF63EF72E047
:104E500080E092E00E94203387EBE82E81E1F82E7B
:104E6000D0E0C0E007EF12E0F70181917F011F92CF
:104E70008F931F930F93CE018D5F9D4F9F938F93C1
:104E80000E94273322960F900F900F900F900F9053
:104E90000F90C231D10541F796CF1F920F920FB6F6
:104EA0000F9211242F933F938F939F93AF93BF93B0
:104EB0008091870B9091880BA091890BB0918A0B00
:104EC0003091860B23E0230F2D3758F50196A11D55
:104ED000B11D2093860B8093870B9093880BA09332
:104EE000890BB0938A0B80918B0B90918C0BA091C6
:104EF0008D0BB0918E0B0196A11DB11D80938B0B74
:104F000090938C0BA0938D0BB0938E0BBF91AF91B0
:104F10009F918F913F912F910F900FBE0F901F90F7
:104F2000189526E8230F0296A11DB11DD2CF1F921E
:104F30000F920FB60F9211240BB60F922F933F933F
:104F40004F935F936F937F938F939F93AF93BF9391
:104F5000EF93FF9385ED91E10E94F205FF91EF91B0
:104F6000BF91AF919F918F917F916F915F914F9181
:104F70003F912F910F900BBE0F900FBE0F901F907F
:104F800018951F920F920FB60F9211240BB60F9225
:104F90002F935F936F937F938F939F93AF93BF9361
:104FA000EF93FF93E091E511F091E6118081E0919C
:104FB000EB11F091EC1182FD26C020818091EE1161
:104FC00090E0019660E670E00E9488319091EF11C8
:104FD000981741F0E091EE11F0E0EB52FE4E258F74
:104FE0008093EE11FF91EF91BF91AF919F918F91BF
:104FF0007F916F915F912F910F900BBE0F900FBE1D
:105000000F901F9018958081EDCF1F920F920FB6D1
:105010000F9211240BB60F922F933F934F935F93F0
:105020006F937F938F939F93AF93BF93EF93FF9370
:1050300048E251E064E271E090E080E00E94B20654
:10504000FF91EF91BF91AF919F918F917F916F9160
:105050005F914F913F912F910F900BBE0F900FBE1C
:105060000F901F9018951F920F920FB60F92112458
:105070000BB60F922F933F934F935F936F937F9352
:105080008F939F93AF93BF93EF93FF9348EA50E0C2
:1050900064EA70E083E090E00E94B206FF91EF9135
:1050A000BF91AF919F918F917F916F915F914F9140
:1050B0003F912F910F900BBE0F900FBE0F901F903E
:1050C00018951F920F920FB60F9211240BB60F92E4
:1050D0002F933F934F935F936F937F938F939F9300
:1050E000AF93BF93EF93FF9348E950E064E970E01A
:1050F00082E090E00E94B206FF91EF91BF91AF91E4
:105100009F918F917F916F915F914F913F912F91DF
:105110000F900BBE0F900FBE0F901F9018951F920F
:105120000F920FB60F9211240BB60F922F933F934D
:105130004F935F936F937F938F939F93AF93BF939F
:10514000EF93FF9348E850E064E870E081E090E07E
:105150000E94B206FF91EF91BF91AF919F918F9105
:105160007F916F915F914F913F912F910F900BBE67
:105170000F900FBE0F901F9018951F920F920FB6B1
:105180000F9211240BB60F922F933F934F935F937F
:105190006F937F938F939F93AF93BF93EF93FF93FF
:1051A0008091B900887F803609F44DC008F040C076
:1051B000883209F4A9C028F5803109F49DC0C8F4EB
:1051C000882309F4FBC0883009F496C0FF91EF9161
:1051D000BF91AF919F918F917F916F915F914F910F
:1051E0003F912F910F900BBE0F900FBE0F901F900D
:1051F0001895883109F488C0803241F78093B30B49
:1052000014C0803409F49DC040F48033B9F388336E
:10521000E9F68093B30B85ECB0C0803509F485C006
:10522000883509F496C0883489F60E94231ACECFB7
:10523000883909F48CC038F5883729F050F488365D
:1052400011F0803719F683E08093B50B1092660A4F
:1052500057C0883809F47BC0803919F0803809F0CC
:10526000B5CF8091660A803208F071C0E091660A7D
:1052700081E08E0F8093660A8091BB00F0E0EA5BCC
:10528000F54F80833DC0803B39F0E0F4803A09F46B
:1052900079C0883A09F09ACF84E08093B50B1092D8
:1052A000430A1092420AE091400AF091410A19958E
:1052B0008091420A81110FC081E08093420A1092CE
:1052C000200A09C0803C09F4A6CF883C09F4A3CF8A
:1052D000883B09F07BCFE091430A81E08E0F8093F9
:1052E000430AF0E0E05EF54F80818093BB0090912F
:1052F000430A8091420A29C08091900B8093BB00A1
:1053000085EC8093BC0062CF9091B20B8091B10B81
:10531000981758F5E091B20B81E08E0F8093B20B95
:10532000F0E0EF56F44F8081E9CFE091B20B81E0DD
:105330008E0F8093B20B8091BB00F0E0EF56F44FDC
:1053400080839091B20B8091B10B9817C8F285E8D9
:10535000D8CFE091B20B81E08E0F8093B20B809199
:10536000BB00F0E0EF56F44F80838091B40B8111C5
:105370005CCF81E080938F0B84EA8093BC00109215
:10538000B50B24CF85EC8093BC001092B50B8091B7
:10539000660A803230F4E091660AF0E0EA5BF54F8D
:1053A00010826091660A70E0E091440AF091450A2B
:1053B00086E49AE019951092660A08CF1092B30B12
:1053C00034CF1092D8111092D71188EE93E0A0E05C
:1053D000B0E08093D9119093DA11A093DB11B093D0
:1053E000DC118FEA92E09093D6118093D51185EC71
:1053F00090E09093E2118093E11184EC90E090931F
:10540000E4118093E31180EC90E09093E611809397
:10541000E51181EC90E09093E8118093E71182EC24
:1054200090E09093EA118093E91186EC90E09093DC
:10543000EC118093EB111092EE111092EF1110927B
:10544000F0111092F111A7EBB1E190E080E041E2A0
:10545000FC013E9621E030E08630910510F430E00A
:1054600020E0E20FF31F40935700E491ED93019683
:105470008930910569F71092C3111092C21188EE1C
:1054800093E0A0E0B0E08093C4119093C511A09385
:10549000C611B093C71181EC92E09093C111809333
:1054A000C0111092D0118FEF8093CC118093CD1149
:1054B0008093CE118093CF111092D4111092D311FA
:1054C000109269131092681385ED91E19093641323
:1054D0008093631310929A128CE2809366138BE38D
:1054E000809365138FE28093671380E68093951213
:1054F0008FE5809396121092941210925F1310927F
:105500005E13109261131092601381E080935C131C
:10551000EAE6F3E180EB93E1119211928E179F0777
:10552000D9F7109299120895789484B5826084BD59
:1055300084B5816084BD85B5826085BD85B5816097
:1055400085BD80916E00816080936E001092810015
:1055500080918100826080938100809181008160D0
:105560008093810080918000816080938000809191
:10557000B10084608093B1008091B000816080931D
:10558000B0008091910082608093910080919100A1
:105590008160809391008091900081608093900061
:1055A0008091A10082608093A1008091A100816020
:1055B0008093A1008091A00081608093A0008091E1
:1055C000210182608093210180912101816080937B
:1055D00021018091200181608093200180917A00D7
:1055E000846080937A0080917A00826080937A0050
:1055F00080917A00816080937A0080917A0080683F
:1056000080937A001092C100E091E511F091E611CB
:1056100082E08083E091E111F091E2111082E0914B
:10562000E311F091E41180E180831092ED11E0919B
:10563000E911F091EA1186E08083E091E711F091A1
:10564000E811808180618083E091E711F091E81199
:10565000808188608083E091E711F091E81180817A
:1056600080688083E091E711F091E81180818F7D5F
:10567000808380E090E19093D4118093D3118CE8E3
:1056800097E1909369138093681385EE9EE1909360
:105690006B1380936A1380EF9DE190936D13809359
:1056A0006C138FEF9EE190939F1380939E1380E67F
:1056B00094E190936F1380936E138CEE9CE1909322
:1056C0007113809370138DE694E1909395138093FA
:1056D000941380E894E190939713809396138DE34D
:1056E0009BE19093A9138093A81383ED94E1909389
:1056F0007313809372138BEB96E290937D138093D8
:105700007C1384EE98E1909383138093821385E653
:1057100095E290938113809380138BE997E19093A6
:1057200085138093841389E498E190938713809381
:1057300086138EEF94E290938B1380938A1388E004
:1057400096E290939113809390138BEA96E2909354
:1057500093138093921387E693E190939913809328
:10576000981383ED95E190939D1380939C1382E0B1
:1057700095E29093A1138093A01381E080939A12F5
:105780000E949F1290E080E00E941C160091D311AD
:105790001091D411833299F40033110580F0E6E1C1
:1057A000EE2EE2E0FE2ED0E0C0E02196CE010E9477
:1057B000F330D7018D937D01CF32D105B1F710922F
:1057C000FD0A1092FC0A8BE390E0EC0121960E9406
:1057D0001C16882309F405C18091FC0A9091FD0AEA
:1057E00001969093FD0A8093FC0ACE010C171D07C9
:1057F00060F763EF74E085E00E9468170E9442053D
:1058000060936A0B70936B0B80936C0B90936D0B92
:105810000E94420560936E0B70936F0B8093700B28
:105820009093710B0E9442056E5F7F4F8F4F9F4F89
:105830006093720B7093730B8093740B9093750B42
:105840000E9442056C5F7F4F8F4F9F4F6093760B96
:105850007093770B8093780B9093790B0E9442059D
:105860006C5F7F4F8F4F9F4F60937A0B70937B0BD2
:1058700080937C0B90937D0B0E9442056A5F7F4F63
:105880008F4F9F4F60937E0B70937F0B8093800BA5
:105890009093810B0E944205685F7F4F8F4F9F4F0F
:1058A0006093820B7093830B8093840B9093850B92
:1058B000CC24C39477247394DD24D39480919912DB
:1058C0008111C9C08091631390916413DC01ED9143
:1058D000FC910084F185E02D1995892B09F4BBC05A
:1058E0008091631390916413DC01ED91FC9100842D
:1058F000F185E02D199570E6E72EF12C80369105A3
:1059000064F48091631390916413DC01ED91FC9138
:105910000084F185E02D19957C01C0916313D0912D
:1059200064136BEF862E62E1962E540110E000E0C6
:10593000E016F10609F05AC0D0E0C0E0EC16FD0612
:1059400009F4BCCFF40191914F0110925B13309197
:1059500067132091981290939812931304C0921396
:1059600002C01092981280919412E82FF0E04091BA
:105970006513EE56FD4E94135CC0321709F459C0FE
:105980001186882321F0D0925B1310929812109206
:10599000941210925F1310925E1310926113109282
:1059A0006013D0925C1380915B13813009F051C079
:1059B0000E944C1480939312833208F044C02091CB
:1059C0005D13222309F43FC0FC01FF27EE0FFF1FE8
:1059D000E659FC4E0190F081E02D3097A1F1199528
:1059E00038C00E94541F0E94DC1808CF0E94420554
:1059F000688779878A879B87E881F9810284F385A4
:105A0000E02DCE01199597FF6FC10E9442052885B0
:105A100039854A855B85621B730B840B950B2C8142
:105A20003D814E815F81621773078407950720F3DC
:105A300083CF91878F5F80939412909196128917EC
:105A400008F0A5CFB0CFE0916813F09169133097BB
:105A500031F6219673CF80904F0B9090500BA09011
:105A6000510BB090520B8091530B811143C10E9496
:105A70004205681979098A099B09613A7B4B8D4077
:105A8000910508F450C07092530BC0E080914E0B0A
:105A9000C81788F4EC2FF0E0EE0FFF1FE250F54F2F
:105AA0000190F081E02D118270E060E080810E9421
:105AB0004604CF5FEBCF81E00E94011FC0E08091E0
:105AC000690BC81780F5EC2FF0E0EE0FFF1FEB5AC3
:105AD000F44F0190F081E02D82819381DC01ED9102
